{"contracts/EPortfolio.sol":{"EPortfolio":{"abi":[{"anonymous":false,"inputs":[{"indexed":true,"internalType":"address","name":"user","type":"address"},{"indexed":false,"internalType":"string","name":"name","type":"string"},{"indexed":false,"internalType":"string","name":"issuer","type":"string"}],"name":"CertificateAdded","type":"event"},{"anonymous":false,"inputs":[{"indexed":true,"internalType":"address","name":"user","type":"address"},{"indexed":false,"internalType":"string","name":"name","type":"string"}],"name":"ProfileCreated","type":"event"},{"anonymous":false,"inputs":[{"indexed":true,"internalType":"address","name":"user","type":"address"},{"indexed":false,"internalType":"string","name":"name","type":"string"}],"name":"ProfileUpdated","type":"event"},{"inputs":[{"internalType":"string","name":"_name","type":"string"},{"internalType":"string","name":"_issuer","type":"string"},{"internalType":"string","name":"_date","type":"string"},{"internalType":"string","name":"_cid","type":"string"}],"name":"addCertificate","outputs":[],"stateMutability":"nonpayable","type":"function"},{"inputs":[{"internalType":"address","name":"_user","type":"address"},{"internalType":"uint256","name":"_index","type":"uint256"}],"name":"getCertificate","outputs":[{"internalType":"string","name":"name","type":"string"},{"internalType":"string","name":"issuer","type":"string"},{"internalType":"string","name":"date","type":"string"},{"internalType":"string","name":"cid","type":"string"},{"internalType":"bool","name":"verified","type":"bool"}],"stateMutability":"view","type":"function"},{"inputs":[{"internalType":"address","name":"_user","type":"address"}],"name":"getCertificateCount","outputs":[{"internalType":"uint256","name":"","type":"uint256"}],"stateMutability":"view","type":"function"},{"inputs":[{"internalType":"address","name":"_user","type":"address"}],"name":"getUserBasicInfo","outputs":[{"internalType":"string","name":"name","type":"string"},{"internalType":"string","name":"title","type":"string"},{"internalType":"string","name":"email","type":"string"},{"internalType":"string","name":"phone","type":"string"},{"internalType":"string","name":"location","type":"string"},{"internalType":"string","name":"bio","type":"string"}],"stateMutability":"view","type":"function"},{"inputs":[{"internalType":"address","name":"_user","type":"address"}],"name":"getUserProfessionalInfo","outputs":[{"internalType":"string","name":"skills","type":"string"},{"internalType":"string","name":"education","type":"string"},{"internalType":"string","name":"experience","type":"string"}],"stateMutability":"view","type":"function"},{"inputs":[{"internalType":"address","name":"_user","type":"address"}],"name":"getUserSocialInfo","outputs":[{"internalType":"string","name":"linkedinUrl","type":"string"},{"internalType":"string","name":"githubUrl","type":"string"},{"internalType":"string","name":"websiteUrl","type":"string"},{"internalType":"string","name":"profilePicCid","type":"string"}],"stateMutability":"view","type":"function"},{"inputs":[{"internalType":"string","name":"_name","type":"string"},{"internalType":"string","name":"_title","type":"string"},{"internalType":"string","name":"_email","type":"string"},{"internalType":"string","name":"_phone","type":"string"},{"internalType":"string","name":"_location","type":"string"},{"internalType":"string","name":"_bio","type":"string"}],"name":"setUserBasicInfo","outputs":[],"stateMutability":"nonpayable","type":"function"},{"inputs":[{"internalType":"string","name":"_skills","type":"string"},{"internalType":"string","name":"_education","type":"string"},{"internalType":"string","name":"_experience","type":"string"}],"name":"setUserProfessionalInfo","outputs":[],"stateMutability":"nonpayable","type":"function"},{"inputs":[{"internalType":"string","name":"_linkedinUrl","type":"string"},{"internalType":"string","name":"_githubUrl","type":"string"},{"internalType":"string","name":"_websiteUrl","type":"string"},{"internalType":"string","name":"_profilePicCid","type":"string"}],"name":"setUserSocialInfo","outputs":[],"stateMutability":"nonpayable","type":"function"},{"inputs":[{"internalType":"address","name":"","type":"address"},{"internalType":"uint256","name":"","type":"uint256"}],"name":"userCertificates","outputs":[{"internalType":"string","name":"name","type":"string"},{"internalType":"string","name":"issuer","type":"string"},{"internalType":"string","name":"date","type":"string"},{"internalType":"string","name":"cid","type":"string"},{"internalType":"bool","name":"verified","type":"bool"}],"stateMutability":"view","type":"function"},{"inputs":[{"internalType":"address","name":"_user","type":"address"}],"name":"userProfileExists","outputs":[{"internalType":"bool","name":"","type":"bool"}],"stateMutability":"view","type":"function"},{"inputs":[{"internalType":"address","name":"","type":"address"}],"name":"userProfiles","outputs":[{"components":[{"internalType":"string","name":"name","type":"string"},{"internalType":"string","name":"title","type":"string"},{"internalType":"string","name":"email","type":"string"},{"internalType":"string","name":"phone","type":"string"},{"internalType":"string","name":"location","type":"string"},{"internalType":"string","name":"bio","type":"string"}],"internalType":"struct EPortfolio.UserBasicInfo","name":"basicInfo","type":"tuple"},{"components":[{"internalType":"string","name":"skills","type":"string"},{"internalType":"string","name":"education","type":"string"},{"internalType":"string","name":"experience","type":"string"}],"internalType":"struct EPortfolio.UserProfessionalInfo","name":"professionalInfo","type":"tuple"},{"components":[{"internalType":"string","name":"linkedinUrl","type":"string"},{"internalType":"string","name":"githubUrl","type":"string"},{"internalType":"string","name":"websiteUrl","type":"string"},{"internalType":"string","name":"profilePicCid","type":"string"}],"internalType":"struct EPortfolio.UserSocialInfo","name":"socialInfo","type":"tuple"},{"internalType":"bool","name":"exists","type":"bool"}],"stateMutability":"view","type":"function"}],"evm":{"bytecode":{"linkReferences":{},"object":"608060405234801561001057600080fd5b50613eef806100206000396000f3fe608060405234801561001057600080fd5b50600436106100b45760003560e01c80635e26111d116100715780635e26111d146101d357806372c4463814610206578063817bb331146102225780639382b61c14610256578063aa40c36814610272578063b1d5ccf81461028e576100b4565b80630175f889146100b95780630d54d50e146100ed578063332d56d71461011f57806341cc2215146101525780634a2ff37e1461016e5780635215608b146101a3575b600080fd5b6100d360048036038101906100ce91906130c3565b6102be565b6040516100e49594939291906131ae565b60405180910390f35b6101076004803603810190610102919061321d565b61053e565b6040516101169392919061324a565b60405180910390f35b6101396004803603810190610134919061321d565b610d7a565b6040516101499493929190613462565b60405180910390f35b61016c600480360381019061016791906135f1565b61153f565b005b6101886004803603810190610183919061321d565b611681565b60405161019a969594939291906136c8565b60405180910390f35b6101bd60048036038101906101b8919061321d565b611ee4565b6040516101ca9190613753565b60405180910390f35b6101ed60048036038101906101e8919061321d565b611f3c565b6040516101fd949392919061376e565b60405180910390f35b610220600480360381019061021b91906135f1565b612784565b005b61023c600480360381019061023791906130c3565b61297a565b60405161024d9594939291906131ae565b60405180910390f35b610270600480360381019061026b91906137cf565b612d05565b005b61028c60048036038101906102879190613904565b612ea3565b005b6102a860048036038101906102a3919061321d565b612fcf565b6040516102b591906139ba565b60405180910390f35b600160205281600052604060002081815481106102da57600080fd5b9060005260206000209060050201600091509150508060000180546102fe90613a04565b80601f016020809104026020016040519081016040528092919081815260200182805461032a90613a04565b80156103775780601f1061034c57610100808354040283529160200191610377565b820191906000526020600020905b81548152906001019060200180831161035a57829003601f168201915b50505050509080600101805461038c90613a04565b80601f01602080910402602001604051908101604052809291908181526020018280546103b890613a04565b80156104055780601f106103da57610100808354040283529160200191610405565b820191906000526020600020905b8154815290600101906020018083116103e857829003601f168201915b50505050509080600201805461041a90613a04565b80601f016020809104026020016040519081016040528092919081815260200182805461044690613a04565b80156104935780601f1061046857610100808354040283529160200191610493565b820191906000526020600020905b81548152906001019060200180831161047657829003601f168201915b5050505050908060030180546104a890613a04565b80601f01602080910402602001604051908101604052809291908181526020018280546104d490613a04565b80156105215780601f106104f657610100808354040283529160200191610521565b820191906000526020600020905b81548152906001019060200180831161050457829003601f168201915b5050505050908060040160009054906101000a900460ff16905085565b606080606060008060008673ffffffffffffffffffffffffffffffffffffffff1673ffffffffffffffffffffffffffffffffffffffff168152602001908152602001600020604051806080016040529081600082016040518060c00160405290816000820180546105ae90613a04565b80601f01602080910402602001604051908101604052809291908181526020018280546105da90613a04565b80156106275780601f106105fc57610100808354040283529160200191610627565b820191906000526020600020905b81548152906001019060200180831161060a57829003601f168201915b5050505050815260200160018201805461064090613a04565b80601f016020809104026020016040519081016040528092919081815260200182805461066c90613a04565b80156106b95780601f1061068e576101008083540402835291602001916106b9565b820191906000526020600020905b81548152906001019060200180831161069c57829003601f168201915b505050505081526020016002820180546106d290613a04565b80601f01602080910402602001604051908101604052809291908181526020018280546106fe90613a04565b801561074b5780601f106107205761010080835404028352916020019161074b565b820191906000526020600020905b81548152906001019060200180831161072e57829003601f168201915b5050505050815260200160038201805461076490613a04565b80601f016020809104026020016040519081016040528092919081815260200182805461079090613a04565b80156107dd5780601f106107b2576101008083540402835291602001916107dd565b820191906000526020600020905b8154815290600101906020018083116107c057829003601f168201915b505050505081526020016004820180546107f690613a04565b80601f016020809104026020016040519081016040528092919081815260200182805461082290613a04565b801561086f5780601f106108445761010080835404028352916020019161086f565b820191906000526020600020905b81548152906001019060200180831161085257829003601f168201915b5050505050815260200160058201805461088890613a04565b80601f01602080910402602001604051908101604052809291908181526020018280546108b490613a04565b80156109015780601f106108d657610100808354040283529160200191610901565b820191906000526020600020905b8154815290600101906020018083116108e457829003601f168201915b50505050508152505081526020016006820160405180606001604052908160008201805461092e90613a04565b80601f016020809104026020016040519081016040528092919081815260200182805461095a90613a04565b80156109a75780601f1061097c576101008083540402835291602001916109a7565b820191906000526020600020905b81548152906001019060200180831161098a57829003601f168201915b505050505081526020016001820180546109c090613a04565b80601f01602080910402602001604051908101604052809291908181526020018280546109ec90613a04565b8015610a395780601f10610a0e57610100808354040283529160200191610a39565b820191906000526020600020905b815481529060010190602001808311610a1c57829003601f168201915b50505050508152602001600282018054610a5290613a04565b80601f0160208091040260200160405190810160405280929190818152602001828054610a7e90613a04565b8015610acb5780601f10610aa057610100808354040283529160200191610acb565b820191906000526020600020905b815481529060010190602001808311610aae57829003601f168201915b505050505081525050815260200160098201604051806080016040529081600082018054610af890613a04565b80601f0160208091040260200160405190810160405280929190818152602001828054610b2490613a04565b8015610b715780601f10610b4657610100808354040283529160200191610b71565b820191906000526020600020905b815481529060010190602001808311610b5457829003601f168201915b50505050508152602001600182018054610b8a90613a04565b80601f0160208091040260200160405190810160405280929190818152602001828054610bb690613a04565b8015610c035780601f10610bd857610100808354040283529160200191610c03565b820191906000526020600020905b815481529060010190602001808311610be657829003601f168201915b50505050508152602001600282018054610c1c90613a04565b80601f0160208091040260200160405190810160405280929190818152602001828054610c4890613a04565b8015610c955780601f10610c6a57610100808354040283529160200191610c95565b820191906000526020600020905b815481529060010190602001808311610c7857829003601f168201915b50505050508152602001600382018054610cae90613a04565b80601f0160208091040260200160405190810160405280929190818152602001828054610cda90613a04565b8015610d275780601f10610cfc57610100808354040283529160200191610d27565b820191906000526020600020905b815481529060010190602001808311610d0a57829003601f168201915b5050505050815250508152602001600d820160009054906101000a900460ff1615151515815250509050806020015160000151816020015160200151826020015160400151935093509350509193909250565b6000602052806000526040600020600091509050806000016040518060c0016040529081600082018054610dad90613a04565b80601f0160208091040260200160405190810160405280929190818152602001828054610dd990613a04565b8015610e265780601f10610dfb57610100808354040283529160200191610e26565b820191906000526020600020905b815481529060010190602001808311610e0957829003601f168201915b50505050508152602001600182018054610e3f90613a04565b80601f0160208091040260200160405190810160405280929190818152602001828054610e6b90613a04565b8015610eb85780601f10610e8d57610100808354040283529160200191610eb8565b820191906000526020600020905b815481529060010190602001808311610e9b57829003601f168201915b50505050508152602001600282018054610ed190613a04565b80601f0160208091040260200160405190810160405280929190818152602001828054610efd90613a04565b8015610f4a5780601f10610f1f57610100808354040283529160200191610f4a565b820191906000526020600020905b815481529060010190602001808311610f2d57829003601f168201915b50505050508152602001600382018054610f6390613a04565b80601f0160208091040260200160405190810160405280929190818152602001828054610f8f90613a04565b8015610fdc5780601f10610fb157610100808354040283529160200191610fdc565b820191906000526020600020905b815481529060010190602001808311610fbf57829003601f168201915b50505050508152602001600482018054610ff590613a04565b80601f016020809104026020016040519081016040528092919081815260200182805461102190613a04565b801561106e5780601f106110435761010080835404028352916020019161106e565b820191906000526020600020905b81548152906001019060200180831161105157829003601f168201915b5050505050815260200160058201805461108790613a04565b80601f01602080910402602001604051908101604052809291908181526020018280546110b390613a04565b80156111005780601f106110d557610100808354040283529160200191611100565b820191906000526020600020905b8154815290600101906020018083116110e357829003601f168201915b505050505081525050908060060160405180606001604052908160008201805461112990613a04565b80601f016020809104026020016040519081016040528092919081815260200182805461115590613a04565b80156111a25780601f10611177576101008083540402835291602001916111a2565b820191906000526020600020905b81548152906001019060200180831161118557829003601f168201915b505050505081526020016001820180546111bb90613a04565b80601f01602080910402602001604051908101604052809291908181526020018280546111e790613a04565b80156112345780601f1061120957610100808354040283529160200191611234565b820191906000526020600020905b81548152906001019060200180831161121757829003601f168201915b5050505050815260200160028201805461124d90613a04565b80601f016020809104026020016040519081016040528092919081815260200182805461127990613a04565b80156112c65780601f1061129b576101008083540402835291602001916112c6565b820191906000526020600020905b8154815290600101906020018083116112a957829003601f168201915b50505050508152505090806009016040518060800160405290816000820180546112ef90613a04565b80601f016020809104026020016040519081016040528092919081815260200182805461131b90613a04565b80156113685780601f1061133d57610100808354040283529160200191611368565b820191906000526020600020905b81548152906001019060200180831161134b57829003601f168201915b5050505050815260200160018201805461138190613a04565b80601f01602080910402602001604051908101604052809291908181526020018280546113ad90613a04565b80156113fa5780601f106113cf576101008083540402835291602001916113fa565b820191906000526020600020905b8154815290600101906020018083116113dd57829003601f168201915b5050505050815260200160028201805461141390613a04565b80601f016020809104026020016040519081016040528092919081815260200182805461143f90613a04565b801561148c5780601f106114615761010080835404028352916020019161148c565b820191906000526020600020905b81548152906001019060200180831161146f57829003601f168201915b505050505081526020016003820180546114a590613a04565b80601f01602080910402602001604051908101604052809291908181526020018280546114d190613a04565b801561151e5780601f106114f35761010080835404028352916020019161151e565b820191906000526020600020905b81548152906001019060200180831161150157829003601f168201915b5050505050815250509080600d0160009054906101000a900460ff16905084565b60008060003373ffffffffffffffffffffffffffffffffffffffff1673ffffffffffffffffffffffffffffffffffffffff168152602001908152602001600020905080600d0160009054906101000a900460ff166115d2576040517f08c379a00000000000000000000000000000000000000000000000000000000081526004016115c990613a81565b60405180910390fd5b848160090160000190816115e69190613c4d565b50838160090160010190816115fb9190613c4d565b50828160090160020190816116109190613c4d565b50818160090160030190816116259190613c4d565b503373ffffffffffffffffffffffffffffffffffffffff167fdd635a4cd84864e37e4479dbfc2ec667acfa473c83c8422a8ac9d9d07599b01c826000016000016040516116729190613da3565b60405180910390a25050505050565b60608060608060608060008060008973ffffffffffffffffffffffffffffffffffffffff1673ffffffffffffffffffffffffffffffffffffffff168152602001908152602001600020604051806080016040529081600082016040518060c00160405290816000820180546116f590613a04565b80601f016020809104026020016040519081016040528092919081815260200182805461172190613a04565b801561176e5780601f106117435761010080835404028352916020019161176e565b820191906000526020600020905b81548152906001019060200180831161175157829003601f168201915b5050505050815260200160018201805461178790613a04565b80601f01602080910402602001604051908101604052809291908181526020018280546117b390613a04565b80156118005780601f106117d557610100808354040283529160200191611800565b820191906000526020600020905b8154815290600101906020018083116117e357829003601f168201915b5050505050815260200160028201805461181990613a04565b80601f016020809104026020016040519081016040528092919081815260200182805461184590613a04565b80156118925780601f1061186757610100808354040283529160200191611892565b820191906000526020600020905b81548152906001019060200180831161187557829003601f168201915b505050505081526020016003820180546118ab90613a04565b80601f01602080910402602001604051908101604052809291908181526020018280546118d790613a04565b80156119245780601f106118f957610100808354040283529160200191611924565b820191906000526020600020905b81548152906001019060200180831161190757829003601f168201915b5050505050815260200160048201805461193d90613a04565b80601f016020809104026020016040519081016040528092919081815260200182805461196990613a04565b80156119b65780601f1061198b576101008083540402835291602001916119b6565b820191906000526020600020905b81548152906001019060200180831161199957829003601f168201915b505050505081526020016005820180546119cf90613a04565b80601f01602080910402602001604051908101604052809291908181526020018280546119fb90613a04565b8015611a485780601f10611a1d57610100808354040283529160200191611a48565b820191906000526020600020905b815481529060010190602001808311611a2b57829003601f168201915b505050505081525050815260200160068201604051806060016040529081600082018054611a7590613a04565b80601f0160208091040260200160405190810160405280929190818152602001828054611aa190613a04565b8015611aee5780601f10611ac357610100808354040283529160200191611aee565b820191906000526020600020905b815481529060010190602001808311611ad157829003601f168201915b50505050508152602001600182018054611b0790613a04565b80601f0160208091040260200160405190810160405280929190818152602001828054611b3390613a04565b8015611b805780601f10611b5557610100808354040283529160200191611b80565b820191906000526020600020905b815481529060010190602001808311611b6357829003601f168201915b50505050508152602001600282018054611b9990613a04565b80601f0160208091040260200160405190810160405280929190818152602001828054611bc590613a04565b8015611c125780601f10611be757610100808354040283529160200191611c12565b820191906000526020600020905b815481529060010190602001808311611bf557829003601f168201915b505050505081525050815260200160098201604051806080016040529081600082018054611c3f90613a04565b80601f0160208091040260200160405190810160405280929190818152602001828054611c6b90613a04565b8015611cb85780601f10611c8d57610100808354040283529160200191611cb8565b820191906000526020600020905b815481529060010190602001808311611c9b57829003601f168201915b50505050508152602001600182018054611cd190613a04565b80601f0160208091040260200160405190810160405280929190818152602001828054611cfd90613a04565b8015611d4a5780601f10611d1f57610100808354040283529160200191611d4a565b820191906000526020600020905b815481529060010190602001808311611d2d57829003601f168201915b50505050508152602001600282018054611d6390613a04565b80601f0160208091040260200160405190810160405280929190818152602001828054611d8f90613a04565b8015611ddc5780601f10611db157610100808354040283529160200191611ddc565b820191906000526020600020905b815481529060010190602001808311611dbf57829003601f168201915b50505050508152602001600382018054611df590613a04565b80601f0160208091040260200160405190810160405280929190818152602001828054611e2190613a04565b8015611e6e5780601f10611e4357610100808354040283529160200191611e6e565b820191906000526020600020905b815481529060010190602001808311611e5157829003601f168201915b5050505050815250508152602001600d820160009054906101000a900460ff1615151515815250509050806000015160000151816000015160200151826000015160400151836000015160600151846000015160800151856000015160a001519650965096509650965096505091939550919395565b60008060008373ffffffffffffffffffffffffffffffffffffffff1673ffffffffffffffffffffffffffffffffffffffff168152602001908152602001600020600d0160009054906101000a900460ff169050919050565b60608060608060008060008773ffffffffffffffffffffffffffffffffffffffff1673ffffffffffffffffffffffffffffffffffffffff168152602001908152602001600020604051806080016040529081600082016040518060c0016040529081600082018054611fad90613a04565b80601f0160208091040260200160405190810160405280929190818152602001828054611fd990613a04565b80156120265780601f10611ffb57610100808354040283529160200191612026565b820191906000526020600020905b81548152906001019060200180831161200957829003601f168201915b5050505050815260200160018201805461203f90613a04565b80601f016020809104026020016040519081016040528092919081815260200182805461206b90613a04565b80156120b85780601f1061208d576101008083540402835291602001916120b8565b820191906000526020600020905b81548152906001019060200180831161209b57829003601f168201915b505050505081526020016002820180546120d190613a04565b80601f01602080910402602001604051908101604052809291908181526020018280546120fd90613a04565b801561214a5780601f1061211f5761010080835404028352916020019161214a565b820191906000526020600020905b81548152906001019060200180831161212d57829003601f168201915b5050505050815260200160038201805461216390613a04565b80601f016020809104026020016040519081016040528092919081815260200182805461218f90613a04565b80156121dc5780601f106121b1576101008083540402835291602001916121dc565b820191906000526020600020905b8154815290600101906020018083116121bf57829003601f168201915b505050505081526020016004820180546121f590613a04565b80601f016020809104026020016040519081016040528092919081815260200182805461222190613a04565b801561226e5780601f106122435761010080835404028352916020019161226e565b820191906000526020600020905b81548152906001019060200180831161225157829003601f168201915b5050505050815260200160058201805461228790613a04565b80601f01602080910402602001604051908101604052809291908181526020018280546122b390613a04565b80156123005780601f106122d557610100808354040283529160200191612300565b820191906000526020600020905b8154815290600101906020018083116122e357829003601f168201915b50505050508152505081526020016006820160405180606001604052908160008201805461232d90613a04565b80601f016020809104026020016040519081016040528092919081815260200182805461235990613a04565b80156123a65780601f1061237b576101008083540402835291602001916123a6565b820191906000526020600020905b81548152906001019060200180831161238957829003601f168201915b505050505081526020016001820180546123bf90613a04565b80601f01602080910402602001604051908101604052809291908181526020018280546123eb90613a04565b80156124385780601f1061240d57610100808354040283529160200191612438565b820191906000526020600020905b81548152906001019060200180831161241b57829003601f168201915b5050505050815260200160028201805461245190613a04565b80601f016020809104026020016040519081016040528092919081815260200182805461247d90613a04565b80156124ca5780601f1061249f576101008083540402835291602001916124ca565b820191906000526020600020905b8154815290600101906020018083116124ad57829003601f168201915b5050505050815250508152602001600982016040518060800160405290816000820180546124f790613a04565b80601f016020809104026020016040519081016040528092919081815260200182805461252390613a04565b80156125705780601f1061254557610100808354040283529160200191612570565b820191906000526020600020905b81548152906001019060200180831161255357829003601f168201915b5050505050815260200160018201805461258990613a04565b80601f01602080910402602001604051908101604052809291908181526020018280546125b590613a04565b80156126025780601f106125d757610100808354040283529160200191612602565b820191906000526020600020905b8154815290600101906020018083116125e557829003601f168201915b5050505050815260200160028201805461261b90613a04565b80601f016020809104026020016040519081016040528092919081815260200182805461264790613a04565b80156126945780601f1061266957610100808354040283529160200191612694565b820191906000526020600020905b81548152906001019060200180831161267757829003601f168201915b505050505081526020016003820180546126ad90613a04565b80601f01602080910402602001604051908101604052809291908181526020018280546126d990613a04565b80156127265780601f106126fb57610100808354040283529160200191612726565b820191906000526020600020905b81548152906001019060200180831161270957829003601f168201915b5050505050815250508152602001600d820160009054906101000a900460ff16151515158152505090508060400151600001518160400151602001518260400151604001518360400151606001519450945094509450509193509193565b6000803373ffffffffffffffffffffffffffffffffffffffff1673ffffffffffffffffffffffffffffffffffffffff168152602001908152602001600020600d0160009054906101000a900460ff16612812576040517f08c379a000000000000000000000000000000000000000000000000000000000815260040161280990613a81565b60405180910390fd5b60006040518060a00160405280868152602001858152602001848152602001838152602001600015158152509050600160003373ffffffffffffffffffffffffffffffffffffffff1673ffffffffffffffffffffffffffffffffffffffff16815260200190815260200160002081908060018154018082558091505060019003906000526020600020906005020160009091909190915060008201518160000190816128be9190613c4d565b5060208201518160010190816128d49190613c4d565b5060408201518160020190816128ea9190613c4d565b5060608201518160030190816129009190613c4d565b5060808201518160040160006101000a81548160ff02191690831515021790555050503373ffffffffffffffffffffffffffffffffffffffff167f87be2da18798460424d9cf9d0fe10ab3232d6942a225257c106658fc3dda6fd2868660405161296b929190613dc5565b60405180910390a25050505050565b6060806060806000600160008873ffffffffffffffffffffffffffffffffffffffff1673ffffffffffffffffffffffffffffffffffffffff168152602001908152602001600020805490508610612a06576040517f08c379a00000000000000000000000000000000000000000000000000000000081526004016129fd90613e48565b60405180910390fd5b6000600160008973ffffffffffffffffffffffffffffffffffffffff1673ffffffffffffffffffffffffffffffffffffffff1681526020019081526020016000208781548110612a5957612a58613e68565b5b90600052602060002090600502016040518060a0016040529081600082018054612a8290613a04565b80601f0160208091040260200160405190810160405280929190818152602001828054612aae90613a04565b8015612afb5780601f10612ad057610100808354040283529160200191612afb565b820191906000526020600020905b815481529060010190602001808311612ade57829003601f168201915b50505050508152602001600182018054612b1490613a04565b80601f0160208091040260200160405190810160405280929190818152602001828054612b4090613a04565b8015612b8d5780601f10612b6257610100808354040283529160200191612b8d565b820191906000526020600020905b815481529060010190602001808311612b7057829003601f168201915b50505050508152602001600282018054612ba690613a04565b80601f0160208091040260200160405190810160405280929190818152602001828054612bd290613a04565b8015612c1f5780601f10612bf457610100808354040283529160200191612c1f565b820191906000526020600020905b815481529060010190602001808311612c0257829003601f168201915b50505050508152602001600382018054612c3890613a04565b80601f0160208091040260200160405190810160405280929190818152602001828054612c6490613a04565b8015612cb15780601f10612c8657610100808354040283529160200191612cb1565b820191906000526020600020905b815481529060010190602001808311612c9457829003601f168201915b505050505081526020016004820160009054906101000a900460ff16151515158152505090508060000151816020015182604001518360600151846080015195509550955095509550509295509295909350565b60008060003373ffffffffffffffffffffffffffffffffffffffff1673ffffffffffffffffffffffffffffffffffffffff168152602001908152602001600020905086816000016000019081612d5b9190613c4d565b5085816000016001019081612d709190613c4d565b5084816000016002019081612d859190613c4d565b5083816000016003019081612d9a9190613c4d565b5082816000016004019081612daf9190613c4d565b5081816000016005019081612dc49190613c4d565b5080600d0160009054906101000a900460ff16612e4b57600181600d0160006101000a81548160ff0219169083151502179055503373ffffffffffffffffffffffffffffffffffffffff167fbafddecbd1dec1c1afb76d693f1de16901f521bdf29a02438e3e6806c0b8d94888604051612e3e9190613e97565b60405180910390a2612e9a565b3373ffffffffffffffffffffffffffffffffffffffff167fdd635a4cd84864e37e4479dbfc2ec667acfa473c83c8422a8ac9d9d07599b01c88604051612e919190613e97565b60405180910390a25b50505050505050565b60008060003373ffffffffffffffffffffffffffffffffffffffff1673ffffffffffffffffffffffffffffffffffffffff168152602001908152602001600020905080600d0160009054906101000a900460ff16612f36576040517f08c379a0000000000000000000000000000000000000000000000000000000008152600401612f2d90613a81565b60405180910390fd5b83816006016000019081612f4a9190613c4d565b5082816006016001019081612f5f9190613c4d565b5081816006016002019081612f749190613c4d565b503373ffffffffffffffffffffffffffffffffffffffff167fdd635a4cd84864e37e4479dbfc2ec667acfa473c83c8422a8ac9d9d07599b01c82600001600001604051612fc19190613da3565b60405180910390a250505050565b6000600160008373ffffffffffffffffffffffffffffffffffffffff1673ffffffffffffffffffffffffffffffffffffffff168152602001908152602001600020805490509050919050565b6000604051905090565b600080fd5b600080fd5b600073ffffffffffffffffffffffffffffffffffffffff82169050919050565b600061305a8261302f565b9050919050565b61306a8161304f565b811461307557600080fd5b50565b60008135905061308781613061565b92915050565b6000819050919050565b6130a08161308d565b81146130ab57600080fd5b50565b6000813590506130bd81613097565b92915050565b600080604083850312156130da576130d9613025565b5b60006130e885828601613078565b92505060206130f9858286016130ae565b9150509250929050565b600081519050919050565b600082825260208201905092915050565b60005b8381101561313d578082015181840152602081019050613122565b60008484015250505050565b6000601f19601f8301169050919050565b600061316582613103565b61316f818561310e565b935061317f81856020860161311f565b61318881613149565b840191505092915050565b60008115159050919050565b6131a881613193565b82525050565b600060a08201905081810360008301526131c8818861315a565b905081810360208301526131dc818761315a565b905081810360408301526131f0818661315a565b90508181036060830152613204818561315a565b9050613213608083018461319f565b9695505050505050565b60006020828403121561323357613232613025565b5b600061324184828501613078565b91505092915050565b60006060820190508181036000830152613264818661315a565b90508181036020830152613278818561315a565b9050818103604083015261328c818461315a565b9050949350505050565b600082825260208201905092915050565b60006132b282613103565b6132bc8185613296565b93506132cc81856020860161311f565b6132d581613149565b840191505092915050565b600060c08301600083015184820360008601526132fd82826132a7565b9150506020830151848203602086015261331782826132a7565b9150506040830151848203604086015261333182826132a7565b9150506060830151848203606086015261334b82826132a7565b9150506080830151848203608086015261336582826132a7565b91505060a083015184820360a086015261337f82826132a7565b9150508091505092915050565b600060608301600083015184820360008601526133a982826132a7565b915050602083015184820360208601526133c382826132a7565b915050604083015184820360408601526133dd82826132a7565b9150508091505092915050565b6000608083016000830151848203600086015261340782826132a7565b9150506020830151848203602086015261342182826132a7565b9150506040830151848203604086015261343b82826132a7565b9150506060830151848203606086015261345582826132a7565b9150508091505092915050565b6000608082019050818103600083015261347c81876132e0565b90508181036020830152613490818661338c565b905081810360408301526134a481856133ea565b90506134b3606083018461319f565b95945050505050565b600080fd5b600080fd5b7f4e487b7100000000000000000000000000000000000000000000000000000000600052604160045260246000fd5b6134fe82613149565b810181811067ffffffffffffffff8211171561351d5761351c6134c6565b5b80604052505050565b600061353061301b565b905061353c82826134f5565b919050565b600067ffffffffffffffff82111561355c5761355b6134c6565b5b61356582613149565b9050602081019050919050565b82818337600083830152505050565b600061359461358f84613541565b613526565b9050828152602081018484840111156135b0576135af6134c1565b5b6135bb848285613572565b509392505050565b600082601f8301126135d8576135d76134bc565b5b81356135e8848260208601613581565b91505092915050565b6000806000806080858703121561360b5761360a613025565b5b600085013567ffffffffffffffff8111156136295761362861302a565b5b613635878288016135c3565b945050602085013567ffffffffffffffff8111156136565761365561302a565b5b613662878288016135c3565b935050604085013567ffffffffffffffff8111156136835761368261302a565b5b61368f878288016135c3565b925050606085013567ffffffffffffffff8111156136b0576136af61302a565b5b6136bc878288016135c3565b91505092959194509250565b600060c08201905081810360008301526136e2818961315a565b905081810360208301526136f6818861315a565b9050818103604083015261370a818761315a565b9050818103606083015261371e818661315a565b90508181036080830152613732818561315a565b905081810360a0830152613746818461315a565b9050979650505050505050565b6000602082019050613768600083018461319f565b92915050565b60006080820190508181036000830152613788818761315a565b9050818103602083015261379c818661315a565b905081810360408301526137b0818561315a565b905081810360608301526137c4818461315a565b905095945050505050565b60008060008060008060c087890312156137ec576137eb613025565b5b600087013567ffffffffffffffff81111561380a5761380961302a565b5b61381689828a016135c3565b965050602087013567ffffffffffffffff8111156138375761383661302a565b5b61384389828a016135c3565b955050604087013567ffffffffffffffff8111156138645761386361302a565b5b61387089828a016135c3565b945050606087013567ffffffffffffffff8111156138915761389061302a565b5b61389d89828a016135c3565b935050608087013567ffffffffffffffff8111156138be576138bd61302a565b5b6138ca89828a016135c3565b92505060a087013567ffffffffffffffff8111156138eb576138ea61302a565b5b6138f789828a016135c3565b9150509295509295509295565b60008060006060848603121561391d5761391c613025565b5b600084013567ffffffffffffffff81111561393b5761393a61302a565b5b613947868287016135c3565b935050602084013567ffffffffffffffff8111156139685761396761302a565b5b613974868287016135c3565b925050604084013567ffffffffffffffff8111156139955761399461302a565b5b6139a1868287016135c3565b9150509250925092565b6139b48161308d565b82525050565b60006020820190506139cf60008301846139ab565b92915050565b7f4e487b7100000000000000000000000000000000000000000000000000000000600052602260045260246000fd5b60006002820490506001821680613a1c57607f821691505b602082108103613a2f57613a2e6139d5565b5b50919050565b7f50726f66696c6520646f6573206e6f7420657869737400000000000000000000600082015250565b6000613a6b60168361310e565b9150613a7682613a35565b602082019050919050565b60006020820190508181036000830152613a9a81613a5e565b9050919050565b60008190508160005260206000209050919050565b60006020601f8301049050919050565b600082821b905092915050565b600060088302613b037fffffffffffffffffffffffffffffffffffffffffffffffffffffffffffffffff82613ac6565b613b0d8683613ac6565b95508019841693508086168417925050509392505050565b6000819050919050565b6000613b4a613b45613b408461308d565b613b25565b61308d565b9050919050565b6000819050919050565b613b6483613b2f565b613b78613b7082613b51565b848454613ad3565b825550505050565b600090565b613b8d613b80565b613b98818484613b5b565b505050565b5b81811015613bbc57613bb1600082613b85565b600181019050613b9e565b5050565b601f821115613c0157613bd281613aa1565b613bdb84613ab6565b81016020851015613bea578190505b613bfe613bf685613ab6565b830182613b9d565b50505b505050565b600082821c905092915050565b6000613c2460001984600802613c06565b1980831691505092915050565b6000613c3d8383613c13565b9150826002028217905092915050565b613c5682613103565b67ffffffffffffffff811115613c6f57613c6e6134c6565b5b613c798254613a04565b613c84828285613bc0565b600060209050601f831160018114613cb75760008415613ca5578287015190505b613caf8582613c31565b865550613d17565b601f198416613cc586613aa1565b60005b82811015613ced57848901518255600182019150602085019450602081019050613cc8565b86831015613d0a5784890151613d06601f891682613c13565b8355505b6001600288020188555050505b505050505050565b60008154613d2c81613a04565b613d36818661310e565b94506001821660008114613d515760018114613d6757613d9a565b60ff198316865281151560200286019350613d9a565b613d7085613aa1565b60005b83811015613d9257815481890152600182019150602081019050613d73565b808801955050505b50505092915050565b60006020820190508181036000830152613dbd8184613d1f565b905092915050565b60006040820190508181036000830152613ddf818561315a565b90508181036020830152613df3818461315a565b90509392505050565b7f436572746966696361746520646f6573206e6f74206578697374000000000000600082015250565b6000613e32601a8361310e565b9150613e3d82613dfc565b602082019050919050565b60006020820190508181036000830152613e6181613e25565b9050919050565b7f4e487b7100000000000000000000000000000000000000000000000000000000600052603260045260246000fd5b60006020820190508181036000830152613eb1818461315a565b90509291505056fea2646970667358221220b4eeea44c3020704b150207eea0284f868b90c88b156c71e73e3d5622889ef4464736f6c63430008110033","opcodes":"PUSH1 0x80 PUSH1 0x40 MSTORE CALLVALUE DUP1 ISZERO PUSH2 0x10 JUMPI PUSH1 0x0 DUP1 REVERT JUMPDEST POP PUSH2 0x3EEF DUP1 PUSH2 0x20 PUSH1 0x0 CODECOPY PUSH1 0x0 RETURN INVALID PUSH1 0x80 PUSH1 0x40 MSTORE CALLVALUE DUP1 ISZERO PUSH2 0x10 JUMPI PUSH1 0x0 DUP1 REVERT JUMPDEST POP PUSH1 0x4 CALLDATASIZE LT PUSH2 0xB4 JUMPI PUSH1 0x0 CALLDATALOAD PUSH1 0xE0 SHR DUP1 PUSH4 0x5E26111D GT PUSH2 0x71 JUMPI DUP1 PUSH4 0x5E26111D EQ PUSH2 0x1D3 JUMPI DUP1 PUSH4 0x72C44638 EQ PUSH2 0x206 JUMPI DUP1 PUSH4 0x817BB331 EQ PUSH2 0x222 JUMPI DUP1 PUSH4 0x9382B61C EQ PUSH2 0x256 JUMPI DUP1 PUSH4 0xAA40C368 EQ PUSH2 0x272 JUMPI DUP1 PUSH4 0xB1D5CCF8 EQ PUSH2 0x28E JUMPI PUSH2 0xB4 JUMP JUMPDEST DUP1 PUSH4 0x175F889 EQ PUSH2 0xB9 JUMPI DUP1 PUSH4 0xD54D50E EQ PUSH2 0xED JUMPI DUP1 PUSH4 0x332D56D7 EQ PUSH2 0x11F JUMPI DUP1 PUSH4 0x41CC2215 EQ PUSH2 0x152 JUMPI DUP1 PUSH4 0x4A2FF37E EQ PUSH2 0x16E JUMPI DUP1 PUSH4 0x5215608B EQ PUSH2 0x1A3 JUMPI JUMPDEST PUSH1 0x0 DUP1 REVERT JUMPDEST PUSH2 0xD3 PUSH1 0x4 DUP1 CALLDATASIZE SUB DUP2 ADD SWAP1 PUSH2 0xCE SWAP2 SWAP1 PUSH2 0x30C3 JUMP JUMPDEST PUSH2 0x2BE JUMP JUMPDEST PUSH1 0x40 MLOAD PUSH2 0xE4 SWAP6 SWAP5 SWAP4 SWAP3 SWAP2 SWAP1 PUSH2 0x31AE JUMP JUMPDEST PUSH1 0x40 MLOAD DUP1 SWAP2 SUB SWAP1 RETURN JUMPDEST PUSH2 0x107 PUSH1 0x4 DUP1 CALLDATASIZE SUB DUP2 ADD SWAP1 PUSH2 0x102 SWAP2 SWAP1 PUSH2 0x321D JUMP JUMPDEST PUSH2 0x53E JUMP JUMPDEST PUSH1 0x40 MLOAD PUSH2 0x116 SWAP4 SWAP3 SWAP2 SWAP1 PUSH2 0x324A JUMP JUMPDEST PUSH1 0x40 MLOAD DUP1 SWAP2 SUB SWAP1 RETURN JUMPDEST PUSH2 0x139 PUSH1 0x4 DUP1 CALLDATASIZE SUB DUP2 ADD SWAP1 PUSH2 0x134 SWAP2 SWAP1 PUSH2 0x321D JUMP JUMPDEST PUSH2 0xD7A JUMP JUMPDEST PUSH1 0x40 MLOAD PUSH2 0x149 SWAP5 SWAP4 SWAP3 SWAP2 SWAP1 PUSH2 0x3462 JUMP JUMPDEST PUSH1 0x40 MLOAD DUP1 SWAP2 SUB SWAP1 RETURN JUMPDEST PUSH2 0x16C PUSH1 0x4 DUP1 CALLDATASIZE SUB DUP2 ADD SWAP1 PUSH2 0x167 SWAP2 SWAP1 PUSH2 0x35F1 JUMP JUMPDEST PUSH2 0x153F JUMP JUMPDEST STOP JUMPDEST PUSH2 0x188 PUSH1 0x4 DUP1 CALLDATASIZE SUB DUP2 ADD SWAP1 PUSH2 0x183 SWAP2 SWAP1 PUSH2 0x321D JUMP JUMPDEST PUSH2 0x1681 JUMP JUMPDEST PUSH1 0x40 MLOAD PUSH2 0x19A SWAP7 SWAP6 SWAP5 SWAP4 SWAP3 SWAP2 SWAP1 PUSH2 0x36C8 JUMP JUMPDEST PUSH1 0x40 MLOAD DUP1 SWAP2 SUB SWAP1 RETURN JUMPDEST PUSH2 0x1BD PUSH1 0x4 DUP1 CALLDATASIZE SUB DUP2 ADD SWAP1 PUSH2 0x1B8 SWAP2 SWAP1 PUSH2 0x321D JUMP JUMPDEST PUSH2 0x1EE4 JUMP JUMPDEST PUSH1 0x40 MLOAD PUSH2 0x1CA SWAP2 SWAP1 PUSH2 0x3753 JUMP JUMPDEST PUSH1 0x40 MLOAD DUP1 SWAP2 SUB SWAP1 RETURN JUMPDEST PUSH2 0x1ED PUSH1 0x4 DUP1 CALLDATASIZE SUB DUP2 ADD SWAP1 PUSH2 0x1E8 SWAP2 SWAP1 PUSH2 0x321D JUMP JUMPDEST PUSH2 0x1F3C JUMP JUMPDEST PUSH1 0x40 MLOAD PUSH2 0x1FD SWAP5 SWAP4 SWAP3 SWAP2 SWAP1 PUSH2 0x376E JUMP JUMPDEST PUSH1 0x40 MLOAD DUP1 SWAP2 SUB SWAP1 RETURN JUMPDEST PUSH2 0x220 PUSH1 0x4 DUP1 CALLDATASIZE SUB DUP2 ADD SWAP1 PUSH2 0x21B SWAP2 SWAP1 PUSH2 0x35F1 JUMP JUMPDEST PUSH2 0x2784 JUMP JUMPDEST STOP JUMPDEST PUSH2 0x23C PUSH1 0x4 DUP1 CALLDATASIZE SUB DUP2 ADD SWAP1 PUSH2 0x237 SWAP2 SWAP1 PUSH2 0x30C3 JUMP JUMPDEST PUSH2 0x297A JUMP JUMPDEST PUSH1 0x40 MLOAD PUSH2 0x24D SWAP6 SWAP5 SWAP4 SWAP3 SWAP2 SWAP1 PUSH2 0x31AE JUMP JUMPDEST PUSH1 0x40 MLOAD DUP1 SWAP2 SUB SWAP1 RETURN JUMPDEST PUSH2 0x270 PUSH1 0x4 DUP1 CALLDATASIZE SUB DUP2 ADD SWAP1 PUSH2 0x26B SWAP2 SWAP1 PUSH2 0x37CF JUMP JUMPDEST PUSH2 0x2D05 JUMP JUMPDEST STOP JUMPDEST PUSH2 0x28C PUSH1 0x4 DUP1 CALLDATASIZE SUB DUP2 ADD SWAP1 PUSH2 0x287 SWAP2 SWAP1 PUSH2 0x3904 JUMP JUMPDEST PUSH2 0x2EA3 JUMP JUMPDEST STOP JUMPDEST PUSH2 0x2A8 PUSH1 0x4 DUP1 CALLDATASIZE SUB DUP2 ADD SWAP1 PUSH2 0x2A3 SWAP2 SWAP1 PUSH2 0x321D JUMP JUMPDEST PUSH2 0x2FCF JUMP JUMPDEST PUSH1 0x40 MLOAD PUSH2 0x2B5 SWAP2 SWAP1 PUSH2 0x39BA JUMP JUMPDEST PUSH1 0x40 MLOAD DUP1 SWAP2 SUB SWAP1 RETURN JUMPDEST PUSH1 0x1 PUSH1 0x20 MSTORE DUP2 PUSH1 0x0 MSTORE PUSH1 0x40 PUSH1 0x0 KECCAK256 DUP2 DUP2 SLOAD DUP2 LT PUSH2 0x2DA JUMPI PUSH1 0x0 DUP1 REVERT JUMPDEST SWAP1 PUSH1 0x0 MSTORE PUSH1 0x20 PUSH1 0x0 KECCAK256 SWAP1 PUSH1 0x5 MUL ADD PUSH1 0x0 SWAP2 POP SWAP2 POP POP DUP1 PUSH1 0x0 ADD DUP1 SLOAD PUSH2 0x2FE SWAP1 PUSH2 0x3A04 JUMP JUMPDEST DUP1 PUSH1 0x1F ADD PUSH1 0x20 DUP1 SWAP2 DIV MUL PUSH1 0x20 ADD PUSH1 0x40 MLOAD SWAP1 DUP2 ADD PUSH1 0x40 MSTORE DUP1 SWAP3 SWAP2 SWAP1 DUP2 DUP2 MSTORE PUSH1 0x20 ADD DUP3 DUP1 SLOAD PUSH2 0x32A SWAP1 PUSH2 0x3A04 JUMP JUMPDEST DUP1 ISZERO PUSH2 0x377 JUMPI DUP1 PUSH1 0x1F LT PUSH2 0x34C JUMPI PUSH2 0x100 DUP1 DUP4 SLOAD DIV MUL DUP4 MSTORE SWAP2 PUSH1 0x20 ADD SWAP2 PUSH2 0x377 JUMP JUMPDEST DUP3 ADD SWAP2 SWAP1 PUSH1 0x0 MSTORE PUSH1 0x20 PUSH1 0x0 KECCAK256 SWAP1 JUMPDEST DUP2 SLOAD DUP2 MSTORE SWAP1 PUSH1 0x1 ADD SWAP1 PUSH1 0x20 ADD DUP1 DUP4 GT PUSH2 0x35A JUMPI DUP3 SWAP1 SUB PUSH1 0x1F AND DUP3 ADD SWAP2 JUMPDEST POP POP POP POP POP SWAP1 DUP1 PUSH1 0x1 ADD DUP1 SLOAD PUSH2 0x38C SWAP1 PUSH2 0x3A04 JUMP JUMPDEST DUP1 PUSH1 0x1F ADD PUSH1 0x20 DUP1 SWAP2 DIV MUL PUSH1 0x20 ADD PUSH1 0x40 MLOAD SWAP1 DUP2 ADD PUSH1 0x40 MSTORE DUP1 SWAP3 SWAP2 SWAP1 DUP2 DUP2 MSTORE PUSH1 0x20 ADD DUP3 DUP1 SLOAD PUSH2 0x3B8 SWAP1 PUSH2 0x3A04 JUMP JUMPDEST DUP1 ISZERO PUSH2 0x405 JUMPI DUP1 PUSH1 0x1F LT PUSH2 0x3DA JUMPI PUSH2 0x100 DUP1 DUP4 SLOAD DIV MUL DUP4 MSTORE SWAP2 PUSH1 0x20 ADD SWAP2 PUSH2 0x405 JUMP JUMPDEST DUP3 ADD SWAP2 SWAP1 PUSH1 0x0 MSTORE PUSH1 0x20 PUSH1 0x0 KECCAK256 SWAP1 JUMPDEST DUP2 SLOAD DUP2 MSTORE SWAP1 PUSH1 0x1 ADD SWAP1 PUSH1 0x20 ADD DUP1 DUP4 GT PUSH2 0x3E8 JUMPI DUP3 SWAP1 SUB PUSH1 0x1F AND DUP3 ADD SWAP2 JUMPDEST POP POP POP POP POP SWAP1 DUP1 PUSH1 0x2 ADD DUP1 SLOAD PUSH2 0x41A SWAP1 PUSH2 0x3A04 JUMP JUMPDEST DUP1 PUSH1 0x1F ADD PUSH1 0x20 DUP1 SWAP2 DIV MUL PUSH1 0x20 ADD PUSH1 0x40 MLOAD SWAP1 DUP2 ADD PUSH1 0x40 MSTORE DUP1 SWAP3 SWAP2 SWAP1 DUP2 DUP2 MSTORE PUSH1 0x20 ADD DUP3 DUP1 SLOAD PUSH2 0x446 SWAP1 PUSH2 0x3A04 JUMP JUMPDEST DUP1 ISZERO PUSH2 0x493 JUMPI DUP1 PUSH1 0x1F LT PUSH2 0x468 JUMPI PUSH2 0x100 DUP1 DUP4 SLOAD DIV MUL DUP4 MSTORE SWAP2 PUSH1 0x20 ADD SWAP2 PUSH2 0x493 JUMP JUMPDEST DUP3 ADD SWAP2 SWAP1 PUSH1 0x0 MSTORE PUSH1 0x20 PUSH1 0x0 KECCAK256 SWAP1 JUMPDEST DUP2 SLOAD DUP2 MSTORE SWAP1 PUSH1 0x1 ADD SWAP1 PUSH1 0x20 ADD DUP1 DUP4 GT PUSH2 0x476 JUMPI DUP3 SWAP1 SUB PUSH1 0x1F AND DUP3 ADD SWAP2 JUMPDEST POP POP POP POP POP SWAP1 DUP1 PUSH1 0x3 ADD DUP1 SLOAD PUSH2 0x4A8 SWAP1 PUSH2 0x3A04 JUMP JUMPDEST DUP1 PUSH1 0x1F ADD PUSH1 0x20 DUP1 SWAP2 DIV MUL PUSH1 0x20 ADD PUSH1 0x40 MLOAD SWAP1 DUP2 ADD PUSH1 0x40 MSTORE DUP1 SWAP3 SWAP2 SWAP1 DUP2 DUP2 MSTORE PUSH1 0x20 ADD DUP3 DUP1 SLOAD PUSH2 0x4D4 SWAP1 PUSH2 0x3A04 JUMP JUMPDEST DUP1 ISZERO PUSH2 0x521 JUMPI DUP1 PUSH1 0x1F LT PUSH2 0x4F6 JUMPI PUSH2 0x100 DUP1 DUP4 SLOAD DIV MUL DUP4 MSTORE SWAP2 PUSH1 0x20 ADD SWAP2 PUSH2 0x521 JUMP JUMPDEST DUP3 ADD SWAP2 SWAP1 PUSH1 0x0 MSTORE PUSH1 0x20 PUSH1 0x0 KECCAK256 SWAP1 JUMPDEST DUP2 SLOAD DUP2 MSTORE SWAP1 PUSH1 0x1 ADD SWAP1 PUSH1 0x20 ADD DUP1 DUP4 GT PUSH2 0x504 JUMPI DUP3 SWAP1 SUB PUSH1 0x1F AND DUP3 ADD SWAP2 JUMPDEST POP POP POP POP POP SWAP1 DUP1 PUSH1 0x4 ADD PUSH1 0x0 SWAP1 SLOAD SWAP1 PUSH2 0x100 EXP SWAP1 DIV PUSH1 0xFF AND SWAP1 POP DUP6 JUMP JUMPDEST PUSH1 0x60 DUP1 PUSH1 0x60 PUSH1 0x0 DUP1 PUSH1 0x0 DUP7 PUSH20 0xFFFFFFFFFFFFFFFFFFFFFFFFFFFFFFFFFFFFFFFF AND PUSH20 0xFFFFFFFFFFFFFFFFFFFFFFFFFFFFFFFFFFFFFFFF AND DUP2 MSTORE PUSH1 0x20 ADD SWAP1 DUP2 MSTORE PUSH1 0x20 ADD PUSH1 0x0 KECCAK256 PUSH1 0x40 MLOAD DUP1 PUSH1 0x80 ADD PUSH1 0x40 MSTORE SWAP1 DUP2 PUSH1 0x0 DUP3 ADD PUSH1 0x40 MLOAD DUP1 PUSH1 0xC0 ADD PUSH1 0x40 MSTORE SWAP1 DUP2 PUSH1 0x0 DUP3 ADD DUP1 SLOAD PUSH2 0x5AE SWAP1 PUSH2 0x3A04 JUMP JUMPDEST DUP1 PUSH1 0x1F ADD PUSH1 0x20 DUP1 SWAP2 DIV MUL PUSH1 0x20 ADD PUSH1 0x40 MLOAD SWAP1 DUP2 ADD PUSH1 0x40 MSTORE DUP1 SWAP3 SWAP2 SWAP1 DUP2 DUP2 MSTORE PUSH1 0x20 ADD DUP3 DUP1 SLOAD PUSH2 0x5DA SWAP1 PUSH2 0x3A04 JUMP JUMPDEST DUP1 ISZERO PUSH2 0x627 JUMPI DUP1 PUSH1 0x1F LT PUSH2 0x5FC JUMPI PUSH2 0x100 DUP1 DUP4 SLOAD DIV MUL DUP4 MSTORE SWAP2 PUSH1 0x20 ADD SWAP2 PUSH2 0x627 JUMP JUMPDEST DUP3 ADD SWAP2 SWAP1 PUSH1 0x0 MSTORE PUSH1 0x20 PUSH1 0x0 KECCAK256 SWAP1 JUMPDEST DUP2 SLOAD DUP2 MSTORE SWAP1 PUSH1 0x1 ADD SWAP1 PUSH1 0x20 ADD DUP1 DUP4 GT PUSH2 0x60A JUMPI DUP3 SWAP1 SUB PUSH1 0x1F AND DUP3 ADD SWAP2 JUMPDEST POP POP POP POP POP DUP2 MSTORE PUSH1 0x20 ADD PUSH1 0x1 DUP3 ADD DUP1 SLOAD PUSH2 0x640 SWAP1 PUSH2 0x3A04 JUMP JUMPDEST DUP1 PUSH1 0x1F ADD PUSH1 0x20 DUP1 SWAP2 DIV MUL PUSH1 0x20 ADD PUSH1 0x40 MLOAD SWAP1 DUP2 ADD PUSH1 0x40 MSTORE DUP1 SWAP3 SWAP2 SWAP1 DUP2 DUP2 MSTORE PUSH1 0x20 ADD DUP3 DUP1 SLOAD PUSH2 0x66C SWAP1 PUSH2 0x3A04 JUMP JUMPDEST DUP1 ISZERO PUSH2 0x6B9 JUMPI DUP1 PUSH1 0x1F LT PUSH2 0x68E JUMPI PUSH2 0x100 DUP1 DUP4 SLOAD DIV MUL DUP4 MSTORE SWAP2 PUSH1 0x20 ADD SWAP2 PUSH2 0x6B9 JUMP JUMPDEST DUP3 ADD SWAP2 SWAP1 PUSH1 0x0 MSTORE PUSH1 0x20 PUSH1 0x0 KECCAK256 SWAP1 JUMPDEST DUP2 SLOAD DUP2 MSTORE SWAP1 PUSH1 0x1 ADD SWAP1 PUSH1 0x20 ADD DUP1 DUP4 GT PUSH2 0x69C JUMPI DUP3 SWAP1 SUB PUSH1 0x1F AND DUP3 ADD SWAP2 JUMPDEST POP POP POP POP POP DUP2 MSTORE PUSH1 0x20 ADD PUSH1 0x2 DUP3 ADD DUP1 SLOAD PUSH2 0x6D2 SWAP1 PUSH2 0x3A04 JUMP JUMPDEST DUP1 PUSH1 0x1F ADD PUSH1 0x20 DUP1 SWAP2 DIV MUL PUSH1 0x20 ADD PUSH1 0x40 MLOAD SWAP1 DUP2 ADD PUSH1 0x40 MSTORE DUP1 SWAP3 SWAP2 SWAP1 DUP2 DUP2 MSTORE PUSH1 0x20 ADD DUP3 DUP1 SLOAD PUSH2 0x6FE SWAP1 PUSH2 0x3A04 JUMP JUMPDEST DUP1 ISZERO PUSH2 0x74B JUMPI DUP1 PUSH1 0x1F LT PUSH2 0x720 JUMPI PUSH2 0x100 DUP1 DUP4 SLOAD DIV MUL DUP4 MSTORE SWAP2 PUSH1 0x20 ADD SWAP2 PUSH2 0x74B JUMP JUMPDEST DUP3 ADD SWAP2 SWAP1 PUSH1 0x0 MSTORE PUSH1 0x20 PUSH1 0x0 KECCAK256 SWAP1 JUMPDEST DUP2 SLOAD DUP2 MSTORE SWAP1 PUSH1 0x1 ADD SWAP1 PUSH1 0x20 ADD DUP1 DUP4 GT PUSH2 0x72E JUMPI DUP3 SWAP1 SUB PUSH1 0x1F AND DUP3 ADD SWAP2 JUMPDEST POP POP POP POP POP DUP2 MSTORE PUSH1 0x20 ADD PUSH1 0x3 DUP3 ADD DUP1 SLOAD PUSH2 0x764 SWAP1 PUSH2 0x3A04 JUMP JUMPDEST DUP1 PUSH1 0x1F ADD PUSH1 0x20 DUP1 SWAP2 DIV MUL PUSH1 0x20 ADD PUSH1 0x40 MLOAD SWAP1 DUP2 ADD PUSH1 0x40 MSTORE DUP1 SWAP3 SWAP2 SWAP1 DUP2 DUP2 MSTORE PUSH1 0x20 ADD DUP3 DUP1 SLOAD PUSH2 0x790 SWAP1 PUSH2 0x3A04 JUMP JUMPDEST DUP1 ISZERO PUSH2 0x7DD JUMPI DUP1 PUSH1 0x1F LT PUSH2 0x7B2 JUMPI PUSH2 0x100 DUP1 DUP4 SLOAD DIV MUL DUP4 MSTORE SWAP2 PUSH1 0x20 ADD SWAP2 PUSH2 0x7DD JUMP JUMPDEST DUP3 ADD SWAP2 SWAP1 PUSH1 0x0 MSTORE PUSH1 0x20 PUSH1 0x0 KECCAK256 SWAP1 JUMPDEST DUP2 SLOAD DUP2 MSTORE SWAP1 PUSH1 0x1 ADD SWAP1 PUSH1 0x20 ADD DUP1 DUP4 GT PUSH2 0x7C0 JUMPI DUP3 SWAP1 SUB PUSH1 0x1F AND DUP3 ADD SWAP2 JUMPDEST POP POP POP POP POP DUP2 MSTORE PUSH1 0x20 ADD PUSH1 0x4 DUP3 ADD DUP1 SLOAD PUSH2 0x7F6 SWAP1 PUSH2 0x3A04 JUMP JUMPDEST DUP1 PUSH1 0x1F ADD PUSH1 0x20 DUP1 SWAP2 DIV MUL PUSH1 0x20 ADD PUSH1 0x40 MLOAD SWAP1 DUP2 ADD PUSH1 0x40 MSTORE DUP1 SWAP3 SWAP2 SWAP1 DUP2 DUP2 MSTORE PUSH1 0x20 ADD DUP3 DUP1 SLOAD PUSH2 0x822 SWAP1 PUSH2 0x3A04 JUMP JUMPDEST DUP1 ISZERO PUSH2 0x86F JUMPI DUP1 PUSH1 0x1F LT PUSH2 0x844 JUMPI PUSH2 0x100 DUP1 DUP4 SLOAD DIV MUL DUP4 MSTORE SWAP2 PUSH1 0x20 ADD SWAP2 PUSH2 0x86F JUMP JUMPDEST DUP3 ADD SWAP2 SWAP1 PUSH1 0x0 MSTORE PUSH1 0x20 PUSH1 0x0 KECCAK256 SWAP1 JUMPDEST DUP2 SLOAD DUP2 MSTORE SWAP1 PUSH1 0x1 ADD SWAP1 PUSH1 0x20 ADD DUP1 DUP4 GT PUSH2 0x852 JUMPI DUP3 SWAP1 SUB PUSH1 0x1F AND DUP3 ADD SWAP2 JUMPDEST POP POP POP POP POP DUP2 MSTORE PUSH1 0x20 ADD PUSH1 0x5 DUP3 ADD DUP1 SLOAD PUSH2 0x888 SWAP1 PUSH2 0x3A04 JUMP JUMPDEST DUP1 PUSH1 0x1F ADD PUSH1 0x20 DUP1 SWAP2 DIV MUL PUSH1 0x20 ADD PUSH1 0x40 MLOAD SWAP1 DUP2 ADD PUSH1 0x40 MSTORE DUP1 SWAP3 SWAP2 SWAP1 DUP2 DUP2 MSTORE PUSH1 0x20 ADD DUP3 DUP1 SLOAD PUSH2 0x8B4 SWAP1 PUSH2 0x3A04 JUMP JUMPDEST DUP1 ISZERO PUSH2 0x901 JUMPI DUP1 PUSH1 0x1F LT PUSH2 0x8D6 JUMPI PUSH2 0x100 DUP1 DUP4 SLOAD DIV MUL DUP4 MSTORE SWAP2 PUSH1 0x20 ADD SWAP2 PUSH2 0x901 JUMP JUMPDEST DUP3 ADD SWAP2 SWAP1 PUSH1 0x0 MSTORE PUSH1 0x20 PUSH1 0x0 KECCAK256 SWAP1 JUMPDEST DUP2 SLOAD DUP2 MSTORE SWAP1 PUSH1 0x1 ADD SWAP1 PUSH1 0x20 ADD DUP1 DUP4 GT PUSH2 0x8E4 JUMPI DUP3 SWAP1 SUB PUSH1 0x1F AND DUP3 ADD SWAP2 JUMPDEST POP POP POP POP POP DUP2 MSTORE POP POP DUP2 MSTORE PUSH1 0x20 ADD PUSH1 0x6 DUP3 ADD PUSH1 0x40 MLOAD DUP1 PUSH1 0x60 ADD PUSH1 0x40 MSTORE SWAP1 DUP2 PUSH1 0x0 DUP3 ADD DUP1 SLOAD PUSH2 0x92E SWAP1 PUSH2 0x3A04 JUMP JUMPDEST DUP1 PUSH1 0x1F ADD PUSH1 0x20 DUP1 SWAP2 DIV MUL PUSH1 0x20 ADD PUSH1 0x40 MLOAD SWAP1 DUP2 ADD PUSH1 0x40 MSTORE DUP1 SWAP3 SWAP2 SWAP1 DUP2 DUP2 MSTORE PUSH1 0x20 ADD DUP3 DUP1 SLOAD PUSH2 0x95A SWAP1 PUSH2 0x3A04 JUMP JUMPDEST DUP1 ISZERO PUSH2 0x9A7 JUMPI DUP1 PUSH1 0x1F LT PUSH2 0x97C JUMPI PUSH2 0x100 DUP1 DUP4 SLOAD DIV MUL DUP4 MSTORE SWAP2 PUSH1 0x20 ADD SWAP2 PUSH2 0x9A7 JUMP JUMPDEST DUP3 ADD SWAP2 SWAP1 PUSH1 0x0 MSTORE PUSH1 0x20 PUSH1 0x0 KECCAK256 SWAP1 JUMPDEST DUP2 SLOAD DUP2 MSTORE SWAP1 PUSH1 0x1 ADD SWAP1 PUSH1 0x20 ADD DUP1 DUP4 GT PUSH2 0x98A JUMPI DUP3 SWAP1 SUB PUSH1 0x1F AND DUP3 ADD SWAP2 JUMPDEST POP POP POP POP POP DUP2 MSTORE PUSH1 0x20 ADD PUSH1 0x1 DUP3 ADD DUP1 SLOAD PUSH2 0x9C0 SWAP1 PUSH2 0x3A04 JUMP JUMPDEST DUP1 PUSH1 0x1F ADD PUSH1 0x20 DUP1 SWAP2 DIV MUL PUSH1 0x20 ADD PUSH1 0x40 MLOAD SWAP1 DUP2 ADD PUSH1 0x40 MSTORE DUP1 SWAP3 SWAP2 SWAP1 DUP2 DUP2 MSTORE PUSH1 0x20 ADD DUP3 DUP1 SLOAD PUSH2 0x9EC SWAP1 PUSH2 0x3A04 JUMP JUMPDEST DUP1 ISZERO PUSH2 0xA39 JUMPI DUP1 PUSH1 0x1F LT PUSH2 0xA0E JUMPI PUSH2 0x100 DUP1 DUP4 SLOAD DIV MUL DUP4 MSTORE SWAP2 PUSH1 0x20 ADD SWAP2 PUSH2 0xA39 JUMP JUMPDEST DUP3 ADD SWAP2 SWAP1 PUSH1 0x0 MSTORE PUSH1 0x20 PUSH1 0x0 KECCAK256 SWAP1 JUMPDEST DUP2 SLOAD DUP2 MSTORE SWAP1 PUSH1 0x1 ADD SWAP1 PUSH1 0x20 ADD DUP1 DUP4 GT PUSH2 0xA1C JUMPI DUP3 SWAP1 SUB PUSH1 0x1F AND DUP3 ADD SWAP2 JUMPDEST POP POP POP POP POP DUP2 MSTORE PUSH1 0x20 ADD PUSH1 0x2 DUP3 ADD DUP1 SLOAD PUSH2 0xA52 SWAP1 PUSH2 0x3A04 JUMP JUMPDEST DUP1 PUSH1 0x1F ADD PUSH1 0x20 DUP1 SWAP2 DIV MUL PUSH1 0x20 ADD PUSH1 0x40 MLOAD SWAP1 DUP2 ADD PUSH1 0x40 MSTORE DUP1 SWAP3 SWAP2 SWAP1 DUP2 DUP2 MSTORE PUSH1 0x20 ADD DUP3 DUP1 SLOAD PUSH2 0xA7E SWAP1 PUSH2 0x3A04 JUMP JUMPDEST DUP1 ISZERO PUSH2 0xACB JUMPI DUP1 PUSH1 0x1F LT PUSH2 0xAA0 JUMPI PUSH2 0x100 DUP1 DUP4 SLOAD DIV MUL DUP4 MSTORE SWAP2 PUSH1 0x20 ADD SWAP2 PUSH2 0xACB JUMP JUMPDEST DUP3 ADD SWAP2 SWAP1 PUSH1 0x0 MSTORE PUSH1 0x20 PUSH1 0x0 KECCAK256 SWAP1 JUMPDEST DUP2 SLOAD DUP2 MSTORE SWAP1 PUSH1 0x1 ADD SWAP1 PUSH1 0x20 ADD DUP1 DUP4 GT PUSH2 0xAAE JUMPI DUP3 SWAP1 SUB PUSH1 0x1F AND DUP3 ADD SWAP2 JUMPDEST POP POP POP POP POP DUP2 MSTORE POP POP DUP2 MSTORE PUSH1 0x20 ADD PUSH1 0x9 DUP3 ADD PUSH1 0x40 MLOAD DUP1 PUSH1 0x80 ADD PUSH1 0x40 MSTORE SWAP1 DUP2 PUSH1 0x0 DUP3 ADD DUP1 SLOAD PUSH2 0xAF8 SWAP1 PUSH2 0x3A04 JUMP JUMPDEST DUP1 PUSH1 0x1F ADD PUSH1 0x20 DUP1 SWAP2 DIV MUL PUSH1 0x20 ADD PUSH1 0x40 MLOAD SWAP1 DUP2 ADD PUSH1 0x40 MSTORE DUP1 SWAP3 SWAP2 SWAP1 DUP2 DUP2 MSTORE PUSH1 0x20 ADD DUP3 DUP1 SLOAD PUSH2 0xB24 SWAP1 PUSH2 0x3A04 JUMP JUMPDEST DUP1 ISZERO PUSH2 0xB71 JUMPI DUP1 PUSH1 0x1F LT PUSH2 0xB46 JUMPI PUSH2 0x100 DUP1 DUP4 SLOAD DIV MUL DUP4 MSTORE SWAP2 PUSH1 0x20 ADD SWAP2 PUSH2 0xB71 JUMP JUMPDEST DUP3 ADD SWAP2 SWAP1 PUSH1 0x0 MSTORE PUSH1 0x20 PUSH1 0x0 KECCAK256 SWAP1 JUMPDEST DUP2 SLOAD DUP2 MSTORE SWAP1 PUSH1 0x1 ADD SWAP1 PUSH1 0x20 ADD DUP1 DUP4 GT PUSH2 0xB54 JUMPI DUP3 SWAP1 SUB PUSH1 0x1F AND DUP3 ADD SWAP2 JUMPDEST POP POP POP POP POP DUP2 MSTORE PUSH1 0x20 ADD PUSH1 0x1 DUP3 ADD DUP1 SLOAD PUSH2 0xB8A SWAP1 PUSH2 0x3A04 JUMP JUMPDEST DUP1 PUSH1 0x1F ADD PUSH1 0x20 DUP1 SWAP2 DIV MUL PUSH1 0x20 ADD PUSH1 0x40 MLOAD SWAP1 DUP2 ADD PUSH1 0x40 MSTORE DUP1 SWAP3 SWAP2 SWAP1 DUP2 DUP2 MSTORE PUSH1 0x20 ADD DUP3 DUP1 SLOAD PUSH2 0xBB6 SWAP1 PUSH2 0x3A04 JUMP JUMPDEST DUP1 ISZERO PUSH2 0xC03 JUMPI DUP1 PUSH1 0x1F LT PUSH2 0xBD8 JUMPI PUSH2 0x100 DUP1 DUP4 SLOAD DIV MUL DUP4 MSTORE SWAP2 PUSH1 0x20 ADD SWAP2 PUSH2 0xC03 JUMP JUMPDEST DUP3 ADD SWAP2 SWAP1 PUSH1 0x0 MSTORE PUSH1 0x20 PUSH1 0x0 KECCAK256 SWAP1 JUMPDEST DUP2 SLOAD DUP2 MSTORE SWAP1 PUSH1 0x1 ADD SWAP1 PUSH1 0x20 ADD DUP1 DUP4 GT PUSH2 0xBE6 JUMPI DUP3 SWAP1 SUB PUSH1 0x1F AND DUP3 ADD SWAP2 JUMPDEST POP POP POP POP POP DUP2 MSTORE PUSH1 0x20 ADD PUSH1 0x2 DUP3 ADD DUP1 SLOAD PUSH2 0xC1C SWAP1 PUSH2 0x3A04 JUMP JUMPDEST DUP1 PUSH1 0x1F ADD PUSH1 0x20 DUP1 SWAP2 DIV MUL PUSH1 0x20 ADD PUSH1 0x40 MLOAD SWAP1 DUP2 ADD PUSH1 0x40 MSTORE DUP1 SWAP3 SWAP2 SWAP1 DUP2 DUP2 MSTORE PUSH1 0x20 ADD DUP3 DUP1 SLOAD PUSH2 0xC48 SWAP1 PUSH2 0x3A04 JUMP JUMPDEST DUP1 ISZERO PUSH2 0xC95 JUMPI DUP1 PUSH1 0x1F LT PUSH2 0xC6A JUMPI PUSH2 0x100 DUP1 DUP4 SLOAD DIV MUL DUP4 MSTORE SWAP2 PUSH1 0x20 ADD SWAP2 PUSH2 0xC95 JUMP JUMPDEST DUP3 ADD SWAP2 SWAP1 PUSH1 0x0 MSTORE PUSH1 0x20 PUSH1 0x0 KECCAK256 SWAP1 JUMPDEST DUP2 SLOAD DUP2 MSTORE SWAP1 PUSH1 0x1 ADD SWAP1 PUSH1 0x20 ADD DUP1 DUP4 GT PUSH2 0xC78 JUMPI DUP3 SWAP1 SUB PUSH1 0x1F AND DUP3 ADD SWAP2 JUMPDEST POP POP POP POP POP DUP2 MSTORE PUSH1 0x20 ADD PUSH1 0x3 DUP3 ADD DUP1 SLOAD PUSH2 0xCAE SWAP1 PUSH2 0x3A04 JUMP JUMPDEST DUP1 PUSH1 0x1F ADD PUSH1 0x20 DUP1 SWAP2 DIV MUL PUSH1 0x20 ADD PUSH1 0x40 MLOAD SWAP1 DUP2 ADD PUSH1 0x40 MSTORE DUP1 SWAP3 SWAP2 SWAP1 DUP2 DUP2 MSTORE PUSH1 0x20 ADD DUP3 DUP1 SLOAD PUSH2 0xCDA SWAP1 PUSH2 0x3A04 JUMP JUMPDEST DUP1 ISZERO PUSH2 0xD27 JUMPI DUP1 PUSH1 0x1F LT PUSH2 0xCFC JUMPI PUSH2 0x100 DUP1 DUP4 SLOAD DIV MUL DUP4 MSTORE SWAP2 PUSH1 0x20 ADD SWAP2 PUSH2 0xD27 JUMP JUMPDEST DUP3 ADD SWAP2 SWAP1 PUSH1 0x0 MSTORE PUSH1 0x20 PUSH1 0x0 KECCAK256 SWAP1 JUMPDEST DUP2 SLOAD DUP2 MSTORE SWAP1 PUSH1 0x1 ADD SWAP1 PUSH1 0x20 ADD DUP1 DUP4 GT PUSH2 0xD0A JUMPI DUP3 SWAP1 SUB PUSH1 0x1F AND DUP3 ADD SWAP2 JUMPDEST POP POP POP POP POP DUP2 MSTORE POP POP DUP2 MSTORE PUSH1 0x20 ADD PUSH1 0xD DUP3 ADD PUSH1 0x0 SWAP1 SLOAD SWAP1 PUSH2 0x100 EXP SWAP1 DIV PUSH1 0xFF AND ISZERO ISZERO ISZERO ISZERO DUP2 MSTORE POP POP SWAP1 POP DUP1 PUSH1 0x20 ADD MLOAD PUSH1 0x0 ADD MLOAD DUP2 PUSH1 0x20 ADD MLOAD PUSH1 0x20 ADD MLOAD DUP3 PUSH1 0x20 ADD MLOAD PUSH1 0x40 ADD MLOAD SWAP4 POP SWAP4 POP SWAP4 POP POP SWAP2 SWAP4 SWAP1 SWAP3 POP JUMP JUMPDEST PUSH1 0x0 PUSH1 0x20 MSTORE DUP1 PUSH1 0x0 MSTORE PUSH1 0x40 PUSH1 0x0 KECCAK256 PUSH1 0x0 SWAP2 POP SWAP1 POP DUP1 PUSH1 0x0 ADD PUSH1 0x40 MLOAD DUP1 PUSH1 0xC0 ADD PUSH1 0x40 MSTORE SWAP1 DUP2 PUSH1 0x0 DUP3 ADD DUP1 SLOAD PUSH2 0xDAD SWAP1 PUSH2 0x3A04 JUMP JUMPDEST DUP1 PUSH1 0x1F ADD PUSH1 0x20 DUP1 SWAP2 DIV MUL PUSH1 0x20 ADD PUSH1 0x40 MLOAD SWAP1 DUP2 ADD PUSH1 0x40 MSTORE DUP1 SWAP3 SWAP2 SWAP1 DUP2 DUP2 MSTORE PUSH1 0x20 ADD DUP3 DUP1 SLOAD PUSH2 0xDD9 SWAP1 PUSH2 0x3A04 JUMP JUMPDEST DUP1 ISZERO PUSH2 0xE26 JUMPI DUP1 PUSH1 0x1F LT PUSH2 0xDFB JUMPI PUSH2 0x100 DUP1 DUP4 SLOAD DIV MUL DUP4 MSTORE SWAP2 PUSH1 0x20 ADD SWAP2 PUSH2 0xE26 JUMP JUMPDEST DUP3 ADD SWAP2 SWAP1 PUSH1 0x0 MSTORE PUSH1 0x20 PUSH1 0x0 KECCAK256 SWAP1 JUMPDEST DUP2 SLOAD DUP2 MSTORE SWAP1 PUSH1 0x1 ADD SWAP1 PUSH1 0x20 ADD DUP1 DUP4 GT PUSH2 0xE09 JUMPI DUP3 SWAP1 SUB PUSH1 0x1F AND DUP3 ADD SWAP2 JUMPDEST POP POP POP POP POP DUP2 MSTORE PUSH1 0x20 ADD PUSH1 0x1 DUP3 ADD DUP1 SLOAD PUSH2 0xE3F SWAP1 PUSH2 0x3A04 JUMP JUMPDEST DUP1 PUSH1 0x1F ADD PUSH1 0x20 DUP1 SWAP2 DIV MUL PUSH1 0x20 ADD PUSH1 0x40 MLOAD SWAP1 DUP2 ADD PUSH1 0x40 MSTORE DUP1 SWAP3 SWAP2 SWAP1 DUP2 DUP2 MSTORE PUSH1 0x20 ADD DUP3 DUP1 SLOAD PUSH2 0xE6B SWAP1 PUSH2 0x3A04 JUMP JUMPDEST DUP1 ISZERO PUSH2 0xEB8 JUMPI DUP1 PUSH1 0x1F LT PUSH2 0xE8D JUMPI PUSH2 0x100 DUP1 DUP4 SLOAD DIV MUL DUP4 MSTORE SWAP2 PUSH1 0x20 ADD SWAP2 PUSH2 0xEB8 JUMP JUMPDEST DUP3 ADD SWAP2 SWAP1 PUSH1 0x0 MSTORE PUSH1 0x20 PUSH1 0x0 KECCAK256 SWAP1 JUMPDEST DUP2 SLOAD DUP2 MSTORE SWAP1 PUSH1 0x1 ADD SWAP1 PUSH1 0x20 ADD DUP1 DUP4 GT PUSH2 0xE9B JUMPI DUP3 SWAP1 SUB PUSH1 0x1F AND DUP3 ADD SWAP2 JUMPDEST POP POP POP POP POP DUP2 MSTORE PUSH1 0x20 ADD PUSH1 0x2 DUP3 ADD DUP1 SLOAD PUSH2 0xED1 SWAP1 PUSH2 0x3A04 JUMP JUMPDEST DUP1 PUSH1 0x1F ADD PUSH1 0x20 DUP1 SWAP2 DIV MUL PUSH1 0x20 ADD PUSH1 0x40 MLOAD SWAP1 DUP2 ADD PUSH1 0x40 MSTORE DUP1 SWAP3 SWAP2 SWAP1 DUP2 DUP2 MSTORE PUSH1 0x20 ADD DUP3 DUP1 SLOAD PUSH2 0xEFD SWAP1 PUSH2 0x3A04 JUMP JUMPDEST DUP1 ISZERO PUSH2 0xF4A JUMPI DUP1 PUSH1 0x1F LT PUSH2 0xF1F JUMPI PUSH2 0x100 DUP1 DUP4 SLOAD DIV MUL DUP4 MSTORE SWAP2 PUSH1 0x20 ADD SWAP2 PUSH2 0xF4A JUMP JUMPDEST DUP3 ADD SWAP2 SWAP1 PUSH1 0x0 MSTORE PUSH1 0x20 PUSH1 0x0 KECCAK256 SWAP1 JUMPDEST DUP2 SLOAD DUP2 MSTORE SWAP1 PUSH1 0x1 ADD SWAP1 PUSH1 0x20 ADD DUP1 DUP4 GT PUSH2 0xF2D JUMPI DUP3 SWAP1 SUB PUSH1 0x1F AND DUP3 ADD SWAP2 JUMPDEST POP POP POP POP POP DUP2 MSTORE PUSH1 0x20 ADD PUSH1 0x3 DUP3 ADD DUP1 SLOAD PUSH2 0xF63 SWAP1 PUSH2 0x3A04 JUMP JUMPDEST DUP1 PUSH1 0x1F ADD PUSH1 0x20 DUP1 SWAP2 DIV MUL PUSH1 0x20 ADD PUSH1 0x40 MLOAD SWAP1 DUP2 ADD PUSH1 0x40 MSTORE DUP1 SWAP3 SWAP2 SWAP1 DUP2 DUP2 MSTORE PUSH1 0x20 ADD DUP3 DUP1 SLOAD PUSH2 0xF8F SWAP1 PUSH2 0x3A04 JUMP JUMPDEST DUP1 ISZERO PUSH2 0xFDC JUMPI DUP1 PUSH1 0x1F LT PUSH2 0xFB1 JUMPI PUSH2 0x100 DUP1 DUP4 SLOAD DIV MUL DUP4 MSTORE SWAP2 PUSH1 0x20 ADD SWAP2 PUSH2 0xFDC JUMP JUMPDEST DUP3 ADD SWAP2 SWAP1 PUSH1 0x0 MSTORE PUSH1 0x20 PUSH1 0x0 KECCAK256 SWAP1 JUMPDEST DUP2 SLOAD DUP2 MSTORE SWAP1 PUSH1 0x1 ADD SWAP1 PUSH1 0x20 ADD DUP1 DUP4 GT PUSH2 0xFBF JUMPI DUP3 SWAP1 SUB PUSH1 0x1F AND DUP3 ADD SWAP2 JUMPDEST POP POP POP POP POP DUP2 MSTORE PUSH1 0x20 ADD PUSH1 0x4 DUP3 ADD DUP1 SLOAD PUSH2 0xFF5 SWAP1 PUSH2 0x3A04 JUMP JUMPDEST DUP1 PUSH1 0x1F ADD PUSH1 0x20 DUP1 SWAP2 DIV MUL PUSH1 0x20 ADD PUSH1 0x40 MLOAD SWAP1 DUP2 ADD PUSH1 0x40 MSTORE DUP1 SWAP3 SWAP2 SWAP1 DUP2 DUP2 MSTORE PUSH1 0x20 ADD DUP3 DUP1 SLOAD PUSH2 0x1021 SWAP1 PUSH2 0x3A04 JUMP JUMPDEST DUP1 ISZERO PUSH2 0x106E JUMPI DUP1 PUSH1 0x1F LT PUSH2 0x1043 JUMPI PUSH2 0x100 DUP1 DUP4 SLOAD DIV MUL DUP4 MSTORE SWAP2 PUSH1 0x20 ADD SWAP2 PUSH2 0x106E JUMP JUMPDEST DUP3 ADD SWAP2 SWAP1 PUSH1 0x0 MSTORE PUSH1 0x20 PUSH1 0x0 KECCAK256 SWAP1 JUMPDEST DUP2 SLOAD DUP2 MSTORE SWAP1 PUSH1 0x1 ADD SWAP1 PUSH1 0x20 ADD DUP1 DUP4 GT PUSH2 0x1051 JUMPI DUP3 SWAP1 SUB PUSH1 0x1F AND DUP3 ADD SWAP2 JUMPDEST POP POP POP POP POP DUP2 MSTORE PUSH1 0x20 ADD PUSH1 0x5 DUP3 ADD DUP1 SLOAD PUSH2 0x1087 SWAP1 PUSH2 0x3A04 JUMP JUMPDEST DUP1 PUSH1 0x1F ADD PUSH1 0x20 DUP1 SWAP2 DIV MUL PUSH1 0x20 ADD PUSH1 0x40 MLOAD SWAP1 DUP2 ADD PUSH1 0x40 MSTORE DUP1 SWAP3 SWAP2 SWAP1 DUP2 DUP2 MSTORE PUSH1 0x20 ADD DUP3 DUP1 SLOAD PUSH2 0x10B3 SWAP1 PUSH2 0x3A04 JUMP JUMPDEST DUP1 ISZERO PUSH2 0x1100 JUMPI DUP1 PUSH1 0x1F LT PUSH2 0x10D5 JUMPI PUSH2 0x100 DUP1 DUP4 SLOAD DIV MUL DUP4 MSTORE SWAP2 PUSH1 0x20 ADD SWAP2 PUSH2 0x1100 JUMP JUMPDEST DUP3 ADD SWAP2 SWAP1 PUSH1 0x0 MSTORE PUSH1 0x20 PUSH1 0x0 KECCAK256 SWAP1 JUMPDEST DUP2 SLOAD DUP2 MSTORE SWAP1 PUSH1 0x1 ADD SWAP1 PUSH1 0x20 ADD DUP1 DUP4 GT PUSH2 0x10E3 JUMPI DUP3 SWAP1 SUB PUSH1 0x1F AND DUP3 ADD SWAP2 JUMPDEST POP POP POP POP POP DUP2 MSTORE POP POP SWAP1 DUP1 PUSH1 0x6 ADD PUSH1 0x40 MLOAD DUP1 PUSH1 0x60 ADD PUSH1 0x40 MSTORE SWAP1 DUP2 PUSH1 0x0 DUP3 ADD DUP1 SLOAD PUSH2 0x1129 SWAP1 PUSH2 0x3A04 JUMP JUMPDEST DUP1 PUSH1 0x1F ADD PUSH1 0x20 DUP1 SWAP2 DIV MUL PUSH1 0x20 ADD PUSH1 0x40 MLOAD SWAP1 DUP2 ADD PUSH1 0x40 MSTORE DUP1 SWAP3 SWAP2 SWAP1 DUP2 DUP2 MSTORE PUSH1 0x20 ADD DUP3 DUP1 SLOAD PUSH2 0x1155 SWAP1 PUSH2 0x3A04 JUMP JUMPDEST DUP1 ISZERO PUSH2 0x11A2 JUMPI DUP1 PUSH1 0x1F LT PUSH2 0x1177 JUMPI PUSH2 0x100 DUP1 DUP4 SLOAD DIV MUL DUP4 MSTORE SWAP2 PUSH1 0x20 ADD SWAP2 PUSH2 0x11A2 JUMP JUMPDEST DUP3 ADD SWAP2 SWAP1 PUSH1 0x0 MSTORE PUSH1 0x20 PUSH1 0x0 KECCAK256 SWAP1 JUMPDEST DUP2 SLOAD DUP2 MSTORE SWAP1 PUSH1 0x1 ADD SWAP1 PUSH1 0x20 ADD DUP1 DUP4 GT PUSH2 0x1185 JUMPI DUP3 SWAP1 SUB PUSH1 0x1F AND DUP3 ADD SWAP2 JUMPDEST POP POP POP POP POP DUP2 MSTORE PUSH1 0x20 ADD PUSH1 0x1 DUP3 ADD DUP1 SLOAD PUSH2 0x11BB SWAP1 PUSH2 0x3A04 JUMP JUMPDEST DUP1 PUSH1 0x1F ADD PUSH1 0x20 DUP1 SWAP2 DIV MUL PUSH1 0x20 ADD PUSH1 0x40 MLOAD SWAP1 DUP2 ADD PUSH1 0x40 MSTORE DUP1 SWAP3 SWAP2 SWAP1 DUP2 DUP2 MSTORE PUSH1 0x20 ADD DUP3 DUP1 SLOAD PUSH2 0x11E7 SWAP1 PUSH2 0x3A04 JUMP JUMPDEST DUP1 ISZERO PUSH2 0x1234 JUMPI DUP1 PUSH1 0x1F LT PUSH2 0x1209 JUMPI PUSH2 0x100 DUP1 DUP4 SLOAD DIV MUL DUP4 MSTORE SWAP2 PUSH1 0x20 ADD SWAP2 PUSH2 0x1234 JUMP JUMPDEST DUP3 ADD SWAP2 SWAP1 PUSH1 0x0 MSTORE PUSH1 0x20 PUSH1 0x0 KECCAK256 SWAP1 JUMPDEST DUP2 SLOAD DUP2 MSTORE SWAP1 PUSH1 0x1 ADD SWAP1 PUSH1 0x20 ADD DUP1 DUP4 GT PUSH2 0x1217 JUMPI DUP3 SWAP1 SUB PUSH1 0x1F AND DUP3 ADD SWAP2 JUMPDEST POP POP POP POP POP DUP2 MSTORE PUSH1 0x20 ADD PUSH1 0x2 DUP3 ADD DUP1 SLOAD PUSH2 0x124D SWAP1 PUSH2 0x3A04 JUMP JUMPDEST DUP1 PUSH1 0x1F ADD PUSH1 0x20 DUP1 SWAP2 DIV MUL PUSH1 0x20 ADD PUSH1 0x40 MLOAD SWAP1 DUP2 ADD PUSH1 0x40 MSTORE DUP1 SWAP3 SWAP2 SWAP1 DUP2 DUP2 MSTORE PUSH1 0x20 ADD DUP3 DUP1 SLOAD PUSH2 0x1279 SWAP1 PUSH2 0x3A04 JUMP JUMPDEST DUP1 ISZERO PUSH2 0x12C6 JUMPI DUP1 PUSH1 0x1F LT PUSH2 0x129B JUMPI PUSH2 0x100 DUP1 DUP4 SLOAD DIV MUL DUP4 MSTORE SWAP2 PUSH1 0x20 ADD SWAP2 PUSH2 0x12C6 JUMP JUMPDEST DUP3 ADD SWAP2 SWAP1 PUSH1 0x0 MSTORE PUSH1 0x20 PUSH1 0x0 KECCAK256 SWAP1 JUMPDEST DUP2 SLOAD DUP2 MSTORE SWAP1 PUSH1 0x1 ADD SWAP1 PUSH1 0x20 ADD DUP1 DUP4 GT PUSH2 0x12A9 JUMPI DUP3 SWAP1 SUB PUSH1 0x1F AND DUP3 ADD SWAP2 JUMPDEST POP POP POP POP POP DUP2 MSTORE POP POP SWAP1 DUP1 PUSH1 0x9 ADD PUSH1 0x40 MLOAD DUP1 PUSH1 0x80 ADD PUSH1 0x40 MSTORE SWAP1 DUP2 PUSH1 0x0 DUP3 ADD DUP1 SLOAD PUSH2 0x12EF SWAP1 PUSH2 0x3A04 JUMP JUMPDEST DUP1 PUSH1 0x1F ADD PUSH1 0x20 DUP1 SWAP2 DIV MUL PUSH1 0x20 ADD PUSH1 0x40 MLOAD SWAP1 DUP2 ADD PUSH1 0x40 MSTORE DUP1 SWAP3 SWAP2 SWAP1 DUP2 DUP2 MSTORE PUSH1 0x20 ADD DUP3 DUP1 SLOAD PUSH2 0x131B SWAP1 PUSH2 0x3A04 JUMP JUMPDEST DUP1 ISZERO PUSH2 0x1368 JUMPI DUP1 PUSH1 0x1F LT PUSH2 0x133D JUMPI PUSH2 0x100 DUP1 DUP4 SLOAD DIV MUL DUP4 MSTORE SWAP2 PUSH1 0x20 ADD SWAP2 PUSH2 0x1368 JUMP JUMPDEST DUP3 ADD SWAP2 SWAP1 PUSH1 0x0 MSTORE PUSH1 0x20 PUSH1 0x0 KECCAK256 SWAP1 JUMPDEST DUP2 SLOAD DUP2 MSTORE SWAP1 PUSH1 0x1 ADD SWAP1 PUSH1 0x20 ADD DUP1 DUP4 GT PUSH2 0x134B JUMPI DUP3 SWAP1 SUB PUSH1 0x1F AND DUP3 ADD SWAP2 JUMPDEST POP POP POP POP POP DUP2 MSTORE PUSH1 0x20 ADD PUSH1 0x1 DUP3 ADD DUP1 SLOAD PUSH2 0x1381 SWAP1 PUSH2 0x3A04 JUMP JUMPDEST DUP1 PUSH1 0x1F ADD PUSH1 0x20 DUP1 SWAP2 DIV MUL PUSH1 0x20 ADD PUSH1 0x40 MLOAD SWAP1 DUP2 ADD PUSH1 0x40 MSTORE DUP1 SWAP3 SWAP2 SWAP1 DUP2 DUP2 MSTORE PUSH1 0x20 ADD DUP3 DUP1 SLOAD PUSH2 0x13AD SWAP1 PUSH2 0x3A04 JUMP JUMPDEST DUP1 ISZERO PUSH2 0x13FA JUMPI DUP1 PUSH1 0x1F LT PUSH2 0x13CF JUMPI PUSH2 0x100 DUP1 DUP4 SLOAD DIV MUL DUP4 MSTORE SWAP2 PUSH1 0x20 ADD SWAP2 PUSH2 0x13FA JUMP JUMPDEST DUP3 ADD SWAP2 SWAP1 PUSH1 0x0 MSTORE PUSH1 0x20 PUSH1 0x0 KECCAK256 SWAP1 JUMPDEST DUP2 SLOAD DUP2 MSTORE SWAP1 PUSH1 0x1 ADD SWAP1 PUSH1 0x20 ADD DUP1 DUP4 GT PUSH2 0x13DD JUMPI DUP3 SWAP1 SUB PUSH1 0x1F AND DUP3 ADD SWAP2 JUMPDEST POP POP POP POP POP DUP2 MSTORE PUSH1 0x20 ADD PUSH1 0x2 DUP3 ADD DUP1 SLOAD PUSH2 0x1413 SWAP1 PUSH2 0x3A04 JUMP JUMPDEST DUP1 PUSH1 0x1F ADD PUSH1 0x20 DUP1 SWAP2 DIV MUL PUSH1 0x20 ADD PUSH1 0x40 MLOAD SWAP1 DUP2 ADD PUSH1 0x40 MSTORE DUP1 SWAP3 SWAP2 SWAP1 DUP2 DUP2 MSTORE PUSH1 0x20 ADD DUP3 DUP1 SLOAD PUSH2 0x143F SWAP1 PUSH2 0x3A04 JUMP JUMPDEST DUP1 ISZERO PUSH2 0x148C JUMPI DUP1 PUSH1 0x1F LT PUSH2 0x1461 JUMPI PUSH2 0x100 DUP1 DUP4 SLOAD DIV MUL DUP4 MSTORE SWAP2 PUSH1 0x20 ADD SWAP2 PUSH2 0x148C JUMP JUMPDEST DUP3 ADD SWAP2 SWAP1 PUSH1 0x0 MSTORE PUSH1 0x20 PUSH1 0x0 KECCAK256 SWAP1 JUMPDEST DUP2 SLOAD DUP2 MSTORE SWAP1 PUSH1 0x1 ADD SWAP1 PUSH1 0x20 ADD DUP1 DUP4 GT PUSH2 0x146F JUMPI DUP3 SWAP1 SUB PUSH1 0x1F AND DUP3 ADD SWAP2 JUMPDEST POP POP POP POP POP DUP2 MSTORE PUSH1 0x20 ADD PUSH1 0x3 DUP3 ADD DUP1 SLOAD PUSH2 0x14A5 SWAP1 PUSH2 0x3A04 JUMP JUMPDEST DUP1 PUSH1 0x1F ADD PUSH1 0x20 DUP1 SWAP2 DIV MUL PUSH1 0x20 ADD PUSH1 0x40 MLOAD SWAP1 DUP2 ADD PUSH1 0x40 MSTORE DUP1 SWAP3 SWAP2 SWAP1 DUP2 DUP2 MSTORE PUSH1 0x20 ADD DUP3 DUP1 SLOAD PUSH2 0x14D1 SWAP1 PUSH2 0x3A04 JUMP JUMPDEST DUP1 ISZERO PUSH2 0x151E JUMPI DUP1 PUSH1 0x1F LT PUSH2 0x14F3 JUMPI PUSH2 0x100 DUP1 DUP4 SLOAD DIV MUL DUP4 MSTORE SWAP2 PUSH1 0x20 ADD SWAP2 PUSH2 0x151E JUMP JUMPDEST DUP3 ADD SWAP2 SWAP1 PUSH1 0x0 MSTORE PUSH1 0x20 PUSH1 0x0 KECCAK256 SWAP1 JUMPDEST DUP2 SLOAD DUP2 MSTORE SWAP1 PUSH1 0x1 ADD SWAP1 PUSH1 0x20 ADD DUP1 DUP4 GT PUSH2 0x1501 JUMPI DUP3 SWAP1 SUB PUSH1 0x1F AND DUP3 ADD SWAP2 JUMPDEST POP POP POP POP POP DUP2 MSTORE POP POP SWAP1 DUP1 PUSH1 0xD ADD PUSH1 0x0 SWAP1 SLOAD SWAP1 PUSH2 0x100 EXP SWAP1 DIV PUSH1 0xFF AND SWAP1 POP DUP5 JUMP JUMPDEST PUSH1 0x0 DUP1 PUSH1 0x0 CALLER PUSH20 0xFFFFFFFFFFFFFFFFFFFFFFFFFFFFFFFFFFFFFFFF AND PUSH20 0xFFFFFFFFFFFFFFFFFFFFFFFFFFFFFFFFFFFFFFFF AND DUP2 MSTORE PUSH1 0x20 ADD SWAP1 DUP2 MSTORE PUSH1 0x20 ADD PUSH1 0x0 KECCAK256 SWAP1 POP DUP1 PUSH1 0xD ADD PUSH1 0x0 SWAP1 SLOAD SWAP1 PUSH2 0x100 EXP SWAP1 DIV PUSH1 0xFF AND PUSH2 0x15D2 JUMPI PUSH1 0x40 MLOAD PUSH32 0x8C379A000000000000000000000000000000000000000000000000000000000 DUP2 MSTORE PUSH1 0x4 ADD PUSH2 0x15C9 SWAP1 PUSH2 0x3A81 JUMP JUMPDEST PUSH1 0x40 MLOAD DUP1 SWAP2 SUB SWAP1 REVERT JUMPDEST DUP5 DUP2 PUSH1 0x9 ADD PUSH1 0x0 ADD SWAP1 DUP2 PUSH2 0x15E6 SWAP2 SWAP1 PUSH2 0x3C4D JUMP JUMPDEST POP DUP4 DUP2 PUSH1 0x9 ADD PUSH1 0x1 ADD SWAP1 DUP2 PUSH2 0x15FB SWAP2 SWAP1 PUSH2 0x3C4D JUMP JUMPDEST POP DUP3 DUP2 PUSH1 0x9 ADD PUSH1 0x2 ADD SWAP1 DUP2 PUSH2 0x1610 SWAP2 SWAP1 PUSH2 0x3C4D JUMP JUMPDEST POP DUP2 DUP2 PUSH1 0x9 ADD PUSH1 0x3 ADD SWAP1 DUP2 PUSH2 0x1625 SWAP2 SWAP1 PUSH2 0x3C4D JUMP JUMPDEST POP CALLER PUSH20 0xFFFFFFFFFFFFFFFFFFFFFFFFFFFFFFFFFFFFFFFF AND PUSH32 0xDD635A4CD84864E37E4479DBFC2EC667ACFA473C83C8422A8AC9D9D07599B01C DUP3 PUSH1 0x0 ADD PUSH1 0x0 ADD PUSH1 0x40 MLOAD PUSH2 0x1672 SWAP2 SWAP1 PUSH2 0x3DA3 JUMP JUMPDEST PUSH1 0x40 MLOAD DUP1 SWAP2 SUB SWAP1 LOG2 POP POP POP POP POP JUMP JUMPDEST PUSH1 0x60 DUP1 PUSH1 0x60 DUP1 PUSH1 0x60 DUP1 PUSH1 0x0 DUP1 PUSH1 0x0 DUP10 PUSH20 0xFFFFFFFFFFFFFFFFFFFFFFFFFFFFFFFFFFFFFFFF AND PUSH20 0xFFFFFFFFFFFFFFFFFFFFFFFFFFFFFFFFFFFFFFFF AND DUP2 MSTORE PUSH1 0x20 ADD SWAP1 DUP2 MSTORE PUSH1 0x20 ADD PUSH1 0x0 KECCAK256 PUSH1 0x40 MLOAD DUP1 PUSH1 0x80 ADD PUSH1 0x40 MSTORE SWAP1 DUP2 PUSH1 0x0 DUP3 ADD PUSH1 0x40 MLOAD DUP1 PUSH1 0xC0 ADD PUSH1 0x40 MSTORE SWAP1 DUP2 PUSH1 0x0 DUP3 ADD DUP1 SLOAD PUSH2 0x16F5 SWAP1 PUSH2 0x3A04 JUMP JUMPDEST DUP1 PUSH1 0x1F ADD PUSH1 0x20 DUP1 SWAP2 DIV MUL PUSH1 0x20 ADD PUSH1 0x40 MLOAD SWAP1 DUP2 ADD PUSH1 0x40 MSTORE DUP1 SWAP3 SWAP2 SWAP1 DUP2 DUP2 MSTORE PUSH1 0x20 ADD DUP3 DUP1 SLOAD PUSH2 0x1721 SWAP1 PUSH2 0x3A04 JUMP JUMPDEST DUP1 ISZERO PUSH2 0x176E JUMPI DUP1 PUSH1 0x1F LT PUSH2 0x1743 JUMPI PUSH2 0x100 DUP1 DUP4 SLOAD DIV MUL DUP4 MSTORE SWAP2 PUSH1 0x20 ADD SWAP2 PUSH2 0x176E JUMP JUMPDEST DUP3 ADD SWAP2 SWAP1 PUSH1 0x0 MSTORE PUSH1 0x20 PUSH1 0x0 KECCAK256 SWAP1 JUMPDEST DUP2 SLOAD DUP2 MSTORE SWAP1 PUSH1 0x1 ADD SWAP1 PUSH1 0x20 ADD DUP1 DUP4 GT PUSH2 0x1751 JUMPI DUP3 SWAP1 SUB PUSH1 0x1F AND DUP3 ADD SWAP2 JUMPDEST POP POP POP POP POP DUP2 MSTORE PUSH1 0x20 ADD PUSH1 0x1 DUP3 ADD DUP1 SLOAD PUSH2 0x1787 SWAP1 PUSH2 0x3A04 JUMP JUMPDEST DUP1 PUSH1 0x1F ADD PUSH1 0x20 DUP1 SWAP2 DIV MUL PUSH1 0x20 ADD PUSH1 0x40 MLOAD SWAP1 DUP2 ADD PUSH1 0x40 MSTORE DUP1 SWAP3 SWAP2 SWAP1 DUP2 DUP2 MSTORE PUSH1 0x20 ADD DUP3 DUP1 SLOAD PUSH2 0x17B3 SWAP1 PUSH2 0x3A04 JUMP JUMPDEST DUP1 ISZERO PUSH2 0x1800 JUMPI DUP1 PUSH1 0x1F LT PUSH2 0x17D5 JUMPI PUSH2 0x100 DUP1 DUP4 SLOAD DIV MUL DUP4 MSTORE SWAP2 PUSH1 0x20 ADD SWAP2 PUSH2 0x1800 JUMP JUMPDEST DUP3 ADD SWAP2 SWAP1 PUSH1 0x0 MSTORE PUSH1 0x20 PUSH1 0x0 KECCAK256 SWAP1 JUMPDEST DUP2 SLOAD DUP2 MSTORE SWAP1 PUSH1 0x1 ADD SWAP1 PUSH1 0x20 ADD DUP1 DUP4 GT PUSH2 0x17E3 JUMPI DUP3 SWAP1 SUB PUSH1 0x1F AND DUP3 ADD SWAP2 JUMPDEST POP POP POP POP POP DUP2 MSTORE PUSH1 0x20 ADD PUSH1 0x2 DUP3 ADD DUP1 SLOAD PUSH2 0x1819 SWAP1 PUSH2 0x3A04 JUMP JUMPDEST DUP1 PUSH1 0x1F ADD PUSH1 0x20 DUP1 SWAP2 DIV MUL PUSH1 0x20 ADD PUSH1 0x40 MLOAD SWAP1 DUP2 ADD PUSH1 0x40 MSTORE DUP1 SWAP3 SWAP2 SWAP1 DUP2 DUP2 MSTORE PUSH1 0x20 ADD DUP3 DUP1 SLOAD PUSH2 0x1845 SWAP1 PUSH2 0x3A04 JUMP JUMPDEST DUP1 ISZERO PUSH2 0x1892 JUMPI DUP1 PUSH1 0x1F LT PUSH2 0x1867 JUMPI PUSH2 0x100 DUP1 DUP4 SLOAD DIV MUL DUP4 MSTORE SWAP2 PUSH1 0x20 ADD SWAP2 PUSH2 0x1892 JUMP JUMPDEST DUP3 ADD SWAP2 SWAP1 PUSH1 0x0 MSTORE PUSH1 0x20 PUSH1 0x0 KECCAK256 SWAP1 JUMPDEST DUP2 SLOAD DUP2 MSTORE SWAP1 PUSH1 0x1 ADD SWAP1 PUSH1 0x20 ADD DUP1 DUP4 GT PUSH2 0x1875 JUMPI DUP3 SWAP1 SUB PUSH1 0x1F AND DUP3 ADD SWAP2 JUMPDEST POP POP POP POP POP DUP2 MSTORE PUSH1 0x20 ADD PUSH1 0x3 DUP3 ADD DUP1 SLOAD PUSH2 0x18AB SWAP1 PUSH2 0x3A04 JUMP JUMPDEST DUP1 PUSH1 0x1F ADD PUSH1 0x20 DUP1 SWAP2 DIV MUL PUSH1 0x20 ADD PUSH1 0x40 MLOAD SWAP1 DUP2 ADD PUSH1 0x40 MSTORE DUP1 SWAP3 SWAP2 SWAP1 DUP2 DUP2 MSTORE PUSH1 0x20 ADD DUP3 DUP1 SLOAD PUSH2 0x18D7 SWAP1 PUSH2 0x3A04 JUMP JUMPDEST DUP1 ISZERO PUSH2 0x1924 JUMPI DUP1 PUSH1 0x1F LT PUSH2 0x18F9 JUMPI PUSH2 0x100 DUP1 DUP4 SLOAD DIV MUL DUP4 MSTORE SWAP2 PUSH1 0x20 ADD SWAP2 PUSH2 0x1924 JUMP JUMPDEST DUP3 ADD SWAP2 SWAP1 PUSH1 0x0 MSTORE PUSH1 0x20 PUSH1 0x0 KECCAK256 SWAP1 JUMPDEST DUP2 SLOAD DUP2 MSTORE SWAP1 PUSH1 0x1 ADD SWAP1 PUSH1 0x20 ADD DUP1 DUP4 GT PUSH2 0x1907 JUMPI DUP3 SWAP1 SUB PUSH1 0x1F AND DUP3 ADD SWAP2 JUMPDEST POP POP POP POP POP DUP2 MSTORE PUSH1 0x20 ADD PUSH1 0x4 DUP3 ADD DUP1 SLOAD PUSH2 0x193D SWAP1 PUSH2 0x3A04 JUMP JUMPDEST DUP1 PUSH1 0x1F ADD PUSH1 0x20 DUP1 SWAP2 DIV MUL PUSH1 0x20 ADD PUSH1 0x40 MLOAD SWAP1 DUP2 ADD PUSH1 0x40 MSTORE DUP1 SWAP3 SWAP2 SWAP1 DUP2 DUP2 MSTORE PUSH1 0x20 ADD DUP3 DUP1 SLOAD PUSH2 0x1969 SWAP1 PUSH2 0x3A04 JUMP JUMPDEST DUP1 ISZERO PUSH2 0x19B6 JUMPI DUP1 PUSH1 0x1F LT PUSH2 0x198B JUMPI PUSH2 0x100 DUP1 DUP4 SLOAD DIV MUL DUP4 MSTORE SWAP2 PUSH1 0x20 ADD SWAP2 PUSH2 0x19B6 JUMP JUMPDEST DUP3 ADD SWAP2 SWAP1 PUSH1 0x0 MSTORE PUSH1 0x20 PUSH1 0x0 KECCAK256 SWAP1 JUMPDEST DUP2 SLOAD DUP2 MSTORE SWAP1 PUSH1 0x1 ADD SWAP1 PUSH1 0x20 ADD DUP1 DUP4 GT PUSH2 0x1999 JUMPI DUP3 SWAP1 SUB PUSH1 0x1F AND DUP3 ADD SWAP2 JUMPDEST POP POP POP POP POP DUP2 MSTORE PUSH1 0x20 ADD PUSH1 0x5 DUP3 ADD DUP1 SLOAD PUSH2 0x19CF SWAP1 PUSH2 0x3A04 JUMP JUMPDEST DUP1 PUSH1 0x1F ADD PUSH1 0x20 DUP1 SWAP2 DIV MUL PUSH1 0x20 ADD PUSH1 0x40 MLOAD SWAP1 DUP2 ADD PUSH1 0x40 MSTORE DUP1 SWAP3 SWAP2 SWAP1 DUP2 DUP2 MSTORE PUSH1 0x20 ADD DUP3 DUP1 SLOAD PUSH2 0x19FB SWAP1 PUSH2 0x3A04 JUMP JUMPDEST DUP1 ISZERO PUSH2 0x1A48 JUMPI DUP1 PUSH1 0x1F LT PUSH2 0x1A1D JUMPI PUSH2 0x100 DUP1 DUP4 SLOAD DIV MUL DUP4 MSTORE SWAP2 PUSH1 0x20 ADD SWAP2 PUSH2 0x1A48 JUMP JUMPDEST DUP3 ADD SWAP2 SWAP1 PUSH1 0x0 MSTORE PUSH1 0x20 PUSH1 0x0 KECCAK256 SWAP1 JUMPDEST DUP2 SLOAD DUP2 MSTORE SWAP1 PUSH1 0x1 ADD SWAP1 PUSH1 0x20 ADD DUP1 DUP4 GT PUSH2 0x1A2B JUMPI DUP3 SWAP1 SUB PUSH1 0x1F AND DUP3 ADD SWAP2 JUMPDEST POP POP POP POP POP DUP2 MSTORE POP POP DUP2 MSTORE PUSH1 0x20 ADD PUSH1 0x6 DUP3 ADD PUSH1 0x40 MLOAD DUP1 PUSH1 0x60 ADD PUSH1 0x40 MSTORE SWAP1 DUP2 PUSH1 0x0 DUP3 ADD DUP1 SLOAD PUSH2 0x1A75 SWAP1 PUSH2 0x3A04 JUMP JUMPDEST DUP1 PUSH1 0x1F ADD PUSH1 0x20 DUP1 SWAP2 DIV MUL PUSH1 0x20 ADD PUSH1 0x40 MLOAD SWAP1 DUP2 ADD PUSH1 0x40 MSTORE DUP1 SWAP3 SWAP2 SWAP1 DUP2 DUP2 MSTORE PUSH1 0x20 ADD DUP3 DUP1 SLOAD PUSH2 0x1AA1 SWAP1 PUSH2 0x3A04 JUMP JUMPDEST DUP1 ISZERO PUSH2 0x1AEE JUMPI DUP1 PUSH1 0x1F LT PUSH2 0x1AC3 JUMPI PUSH2 0x100 DUP1 DUP4 SLOAD DIV MUL DUP4 MSTORE SWAP2 PUSH1 0x20 ADD SWAP2 PUSH2 0x1AEE JUMP JUMPDEST DUP3 ADD SWAP2 SWAP1 PUSH1 0x0 MSTORE PUSH1 0x20 PUSH1 0x0 KECCAK256 SWAP1 JUMPDEST DUP2 SLOAD DUP2 MSTORE SWAP1 PUSH1 0x1 ADD SWAP1 PUSH1 0x20 ADD DUP1 DUP4 GT PUSH2 0x1AD1 JUMPI DUP3 SWAP1 SUB PUSH1 0x1F AND DUP3 ADD SWAP2 JUMPDEST POP POP POP POP POP DUP2 MSTORE PUSH1 0x20 ADD PUSH1 0x1 DUP3 ADD DUP1 SLOAD PUSH2 0x1B07 SWAP1 PUSH2 0x3A04 JUMP JUMPDEST DUP1 PUSH1 0x1F ADD PUSH1 0x20 DUP1 SWAP2 DIV MUL PUSH1 0x20 ADD PUSH1 0x40 MLOAD SWAP1 DUP2 ADD PUSH1 0x40 MSTORE DUP1 SWAP3 SWAP2 SWAP1 DUP2 DUP2 MSTORE PUSH1 0x20 ADD DUP3 DUP1 SLOAD PUSH2 0x1B33 SWAP1 PUSH2 0x3A04 JUMP JUMPDEST DUP1 ISZERO PUSH2 0x1B80 JUMPI DUP1 PUSH1 0x1F LT PUSH2 0x1B55 JUMPI PUSH2 0x100 DUP1 DUP4 SLOAD DIV MUL DUP4 MSTORE SWAP2 PUSH1 0x20 ADD SWAP2 PUSH2 0x1B80 JUMP JUMPDEST DUP3 ADD SWAP2 SWAP1 PUSH1 0x0 MSTORE PUSH1 0x20 PUSH1 0x0 KECCAK256 SWAP1 JUMPDEST DUP2 SLOAD DUP2 MSTORE SWAP1 PUSH1 0x1 ADD SWAP1 PUSH1 0x20 ADD DUP1 DUP4 GT PUSH2 0x1B63 JUMPI DUP3 SWAP1 SUB PUSH1 0x1F AND DUP3 ADD SWAP2 JUMPDEST POP POP POP POP POP DUP2 MSTORE PUSH1 0x20 ADD PUSH1 0x2 DUP3 ADD DUP1 SLOAD PUSH2 0x1B99 SWAP1 PUSH2 0x3A04 JUMP JUMPDEST DUP1 PUSH1 0x1F ADD PUSH1 0x20 DUP1 SWAP2 DIV MUL PUSH1 0x20 ADD PUSH1 0x40 MLOAD SWAP1 DUP2 ADD PUSH1 0x40 MSTORE DUP1 SWAP3 SWAP2 SWAP1 DUP2 DUP2 MSTORE PUSH1 0x20 ADD DUP3 DUP1 SLOAD PUSH2 0x1BC5 SWAP1 PUSH2 0x3A04 JUMP JUMPDEST DUP1 ISZERO PUSH2 0x1C12 JUMPI DUP1 PUSH1 0x1F LT PUSH2 0x1BE7 JUMPI PUSH2 0x100 DUP1 DUP4 SLOAD DIV MUL DUP4 MSTORE SWAP2 PUSH1 0x20 ADD SWAP2 PUSH2 0x1C12 JUMP JUMPDEST DUP3 ADD SWAP2 SWAP1 PUSH1 0x0 MSTORE PUSH1 0x20 PUSH1 0x0 KECCAK256 SWAP1 JUMPDEST DUP2 SLOAD DUP2 MSTORE SWAP1 PUSH1 0x1 ADD SWAP1 PUSH1 0x20 ADD DUP1 DUP4 GT PUSH2 0x1BF5 JUMPI DUP3 SWAP1 SUB PUSH1 0x1F AND DUP3 ADD SWAP2 JUMPDEST POP POP POP POP POP DUP2 MSTORE POP POP DUP2 MSTORE PUSH1 0x20 ADD PUSH1 0x9 DUP3 ADD PUSH1 0x40 MLOAD DUP1 PUSH1 0x80 ADD PUSH1 0x40 MSTORE SWAP1 DUP2 PUSH1 0x0 DUP3 ADD DUP1 SLOAD PUSH2 0x1C3F SWAP1 PUSH2 0x3A04 JUMP JUMPDEST DUP1 PUSH1 0x1F ADD PUSH1 0x20 DUP1 SWAP2 DIV MUL PUSH1 0x20 ADD PUSH1 0x40 MLOAD SWAP1 DUP2 ADD PUSH1 0x40 MSTORE DUP1 SWAP3 SWAP2 SWAP1 DUP2 DUP2 MSTORE PUSH1 0x20 ADD DUP3 DUP1 SLOAD PUSH2 0x1C6B SWAP1 PUSH2 0x3A04 JUMP JUMPDEST DUP1 ISZERO PUSH2 0x1CB8 JUMPI DUP1 PUSH1 0x1F LT PUSH2 0x1C8D JUMPI PUSH2 0x100 DUP1 DUP4 SLOAD DIV MUL DUP4 MSTORE SWAP2 PUSH1 0x20 ADD SWAP2 PUSH2 0x1CB8 JUMP JUMPDEST DUP3 ADD SWAP2 SWAP1 PUSH1 0x0 MSTORE PUSH1 0x20 PUSH1 0x0 KECCAK256 SWAP1 JUMPDEST DUP2 SLOAD DUP2 MSTORE SWAP1 PUSH1 0x1 ADD SWAP1 PUSH1 0x20 ADD DUP1 DUP4 GT PUSH2 0x1C9B JUMPI DUP3 SWAP1 SUB PUSH1 0x1F AND DUP3 ADD SWAP2 JUMPDEST POP POP POP POP POP DUP2 MSTORE PUSH1 0x20 ADD PUSH1 0x1 DUP3 ADD DUP1 SLOAD PUSH2 0x1CD1 SWAP1 PUSH2 0x3A04 JUMP JUMPDEST DUP1 PUSH1 0x1F ADD PUSH1 0x20 DUP1 SWAP2 DIV MUL PUSH1 0x20 ADD PUSH1 0x40 MLOAD SWAP1 DUP2 ADD PUSH1 0x40 MSTORE DUP1 SWAP3 SWAP2 SWAP1 DUP2 DUP2 MSTORE PUSH1 0x20 ADD DUP3 DUP1 SLOAD PUSH2 0x1CFD SWAP1 PUSH2 0x3A04 JUMP JUMPDEST DUP1 ISZERO PUSH2 0x1D4A JUMPI DUP1 PUSH1 0x1F LT PUSH2 0x1D1F JUMPI PUSH2 0x100 DUP1 DUP4 SLOAD DIV MUL DUP4 MSTORE SWAP2 PUSH1 0x20 ADD SWAP2 PUSH2 0x1D4A JUMP JUMPDEST DUP3 ADD SWAP2 SWAP1 PUSH1 0x0 MSTORE PUSH1 0x20 PUSH1 0x0 KECCAK256 SWAP1 JUMPDEST DUP2 SLOAD DUP2 MSTORE SWAP1 PUSH1 0x1 ADD SWAP1 PUSH1 0x20 ADD DUP1 DUP4 GT PUSH2 0x1D2D JUMPI DUP3 SWAP1 SUB PUSH1 0x1F AND DUP3 ADD SWAP2 JUMPDEST POP POP POP POP POP DUP2 MSTORE PUSH1 0x20 ADD PUSH1 0x2 DUP3 ADD DUP1 SLOAD PUSH2 0x1D63 SWAP1 PUSH2 0x3A04 JUMP JUMPDEST DUP1 PUSH1 0x1F ADD PUSH1 0x20 DUP1 SWAP2 DIV MUL PUSH1 0x20 ADD PUSH1 0x40 MLOAD SWAP1 DUP2 ADD PUSH1 0x40 MSTORE DUP1 SWAP3 SWAP2 SWAP1 DUP2 DUP2 MSTORE PUSH1 0x20 ADD DUP3 DUP1 SLOAD PUSH2 0x1D8F SWAP1 PUSH2 0x3A04 JUMP JUMPDEST DUP1 ISZERO PUSH2 0x1DDC JUMPI DUP1 PUSH1 0x1F LT PUSH2 0x1DB1 JUMPI PUSH2 0x100 DUP1 DUP4 SLOAD DIV MUL DUP4 MSTORE SWAP2 PUSH1 0x20 ADD SWAP2 PUSH2 0x1DDC JUMP JUMPDEST DUP3 ADD SWAP2 SWAP1 PUSH1 0x0 MSTORE PUSH1 0x20 PUSH1 0x0 KECCAK256 SWAP1 JUMPDEST DUP2 SLOAD DUP2 MSTORE SWAP1 PUSH1 0x1 ADD SWAP1 PUSH1 0x20 ADD DUP1 DUP4 GT PUSH2 0x1DBF JUMPI DUP3 SWAP1 SUB PUSH1 0x1F AND DUP3 ADD SWAP2 JUMPDEST POP POP POP POP POP DUP2 MSTORE PUSH1 0x20 ADD PUSH1 0x3 DUP3 ADD DUP1 SLOAD PUSH2 0x1DF5 SWAP1 PUSH2 0x3A04 JUMP JUMPDEST DUP1 PUSH1 0x1F ADD PUSH1 0x20 DUP1 SWAP2 DIV MUL PUSH1 0x20 ADD PUSH1 0x40 MLOAD SWAP1 DUP2 ADD PUSH1 0x40 MSTORE DUP1 SWAP3 SWAP2 SWAP1 DUP2 DUP2 MSTORE PUSH1 0x20 ADD DUP3 DUP1 SLOAD PUSH2 0x1E21 SWAP1 PUSH2 0x3A04 JUMP JUMPDEST DUP1 ISZERO PUSH2 0x1E6E JUMPI DUP1 PUSH1 0x1F LT PUSH2 0x1E43 JUMPI PUSH2 0x100 DUP1 DUP4 SLOAD DIV MUL DUP4 MSTORE SWAP2 PUSH1 0x20 ADD SWAP2 PUSH2 0x1E6E JUMP JUMPDEST DUP3 ADD SWAP2 SWAP1 PUSH1 0x0 MSTORE PUSH1 0x20 PUSH1 0x0 KECCAK256 SWAP1 JUMPDEST DUP2 SLOAD DUP2 MSTORE SWAP1 PUSH1 0x1 ADD SWAP1 PUSH1 0x20 ADD DUP1 DUP4 GT PUSH2 0x1E51 JUMPI DUP3 SWAP1 SUB PUSH1 0x1F AND DUP3 ADD SWAP2 JUMPDEST POP POP POP POP POP DUP2 MSTORE POP POP DUP2 MSTORE PUSH1 0x20 ADD PUSH1 0xD DUP3 ADD PUSH1 0x0 SWAP1 SLOAD SWAP1 PUSH2 0x100 EXP SWAP1 DIV PUSH1 0xFF AND ISZERO ISZERO ISZERO ISZERO DUP2 MSTORE POP POP SWAP1 POP DUP1 PUSH1 0x0 ADD MLOAD PUSH1 0x0 ADD MLOAD DUP2 PUSH1 0x0 ADD MLOAD PUSH1 0x20 ADD MLOAD DUP3 PUSH1 0x0 ADD MLOAD PUSH1 0x40 ADD MLOAD DUP4 PUSH1 0x0 ADD MLOAD PUSH1 0x60 ADD MLOAD DUP5 PUSH1 0x0 ADD MLOAD PUSH1 0x80 ADD MLOAD DUP6 PUSH1 0x0 ADD MLOAD PUSH1 0xA0 ADD MLOAD SWAP7 POP SWAP7 POP SWAP7 POP SWAP7 POP SWAP7 POP SWAP7 POP POP SWAP2 SWAP4 SWAP6 POP SWAP2 SWAP4 SWAP6 JUMP JUMPDEST PUSH1 0x0 DUP1 PUSH1 0x0 DUP4 PUSH20 0xFFFFFFFFFFFFFFFFFFFFFFFFFFFFFFFFFFFFFFFF AND PUSH20 0xFFFFFFFFFFFFFFFFFFFFFFFFFFFFFFFFFFFFFFFF AND DUP2 MSTORE PUSH1 0x20 ADD SWAP1 DUP2 MSTORE PUSH1 0x20 ADD PUSH1 0x0 KECCAK256 PUSH1 0xD ADD PUSH1 0x0 SWAP1 SLOAD SWAP1 PUSH2 0x100 EXP SWAP1 DIV PUSH1 0xFF AND SWAP1 POP SWAP2 SWAP1 POP JUMP JUMPDEST PUSH1 0x60 DUP1 PUSH1 0x60 DUP1 PUSH1 0x0 DUP1 PUSH1 0x0 DUP8 PUSH20 0xFFFFFFFFFFFFFFFFFFFFFFFFFFFFFFFFFFFFFFFF AND PUSH20 0xFFFFFFFFFFFFFFFFFFFFFFFFFFFFFFFFFFFFFFFF AND DUP2 MSTORE PUSH1 0x20 ADD SWAP1 DUP2 MSTORE PUSH1 0x20 ADD PUSH1 0x0 KECCAK256 PUSH1 0x40 MLOAD DUP1 PUSH1 0x80 ADD PUSH1 0x40 MSTORE SWAP1 DUP2 PUSH1 0x0 DUP3 ADD PUSH1 0x40 MLOAD DUP1 PUSH1 0xC0 ADD PUSH1 0x40 MSTORE SWAP1 DUP2 PUSH1 0x0 DUP3 ADD DUP1 SLOAD PUSH2 0x1FAD SWAP1 PUSH2 0x3A04 JUMP JUMPDEST DUP1 PUSH1 0x1F ADD PUSH1 0x20 DUP1 SWAP2 DIV MUL PUSH1 0x20 ADD PUSH1 0x40 MLOAD SWAP1 DUP2 ADD PUSH1 0x40 MSTORE DUP1 SWAP3 SWAP2 SWAP1 DUP2 DUP2 MSTORE PUSH1 0x20 ADD DUP3 DUP1 SLOAD PUSH2 0x1FD9 SWAP1 PUSH2 0x3A04 JUMP JUMPDEST DUP1 ISZERO PUSH2 0x2026 JUMPI DUP1 PUSH1 0x1F LT PUSH2 0x1FFB JUMPI PUSH2 0x100 DUP1 DUP4 SLOAD DIV MUL DUP4 MSTORE SWAP2 PUSH1 0x20 ADD SWAP2 PUSH2 0x2026 JUMP JUMPDEST DUP3 ADD SWAP2 SWAP1 PUSH1 0x0 MSTORE PUSH1 0x20 PUSH1 0x0 KECCAK256 SWAP1 JUMPDEST DUP2 SLOAD DUP2 MSTORE SWAP1 PUSH1 0x1 ADD SWAP1 PUSH1 0x20 ADD DUP1 DUP4 GT PUSH2 0x2009 JUMPI DUP3 SWAP1 SUB PUSH1 0x1F AND DUP3 ADD SWAP2 JUMPDEST POP POP POP POP POP DUP2 MSTORE PUSH1 0x20 ADD PUSH1 0x1 DUP3 ADD DUP1 SLOAD PUSH2 0x203F SWAP1 PUSH2 0x3A04 JUMP JUMPDEST DUP1 PUSH1 0x1F ADD PUSH1 0x20 DUP1 SWAP2 DIV MUL PUSH1 0x20 ADD PUSH1 0x40 MLOAD SWAP1 DUP2 ADD PUSH1 0x40 MSTORE DUP1 SWAP3 SWAP2 SWAP1 DUP2 DUP2 MSTORE PUSH1 0x20 ADD DUP3 DUP1 SLOAD PUSH2 0x206B SWAP1 PUSH2 0x3A04 JUMP JUMPDEST DUP1 ISZERO PUSH2 0x20B8 JUMPI DUP1 PUSH1 0x1F LT PUSH2 0x208D JUMPI PUSH2 0x100 DUP1 DUP4 SLOAD DIV MUL DUP4 MSTORE SWAP2 PUSH1 0x20 ADD SWAP2 PUSH2 0x20B8 JUMP JUMPDEST DUP3 ADD SWAP2 SWAP1 PUSH1 0x0 MSTORE PUSH1 0x20 PUSH1 0x0 KECCAK256 SWAP1 JUMPDEST DUP2 SLOAD DUP2 MSTORE SWAP1 PUSH1 0x1 ADD SWAP1 PUSH1 0x20 ADD DUP1 DUP4 GT PUSH2 0x209B JUMPI DUP3 SWAP1 SUB PUSH1 0x1F AND DUP3 ADD SWAP2 JUMPDEST POP POP POP POP POP DUP2 MSTORE PUSH1 0x20 ADD PUSH1 0x2 DUP3 ADD DUP1 SLOAD PUSH2 0x20D1 SWAP1 PUSH2 0x3A04 JUMP JUMPDEST DUP1 PUSH1 0x1F ADD PUSH1 0x20 DUP1 SWAP2 DIV MUL PUSH1 0x20 ADD PUSH1 0x40 MLOAD SWAP1 DUP2 ADD PUSH1 0x40 MSTORE DUP1 SWAP3 SWAP2 SWAP1 DUP2 DUP2 MSTORE PUSH1 0x20 ADD DUP3 DUP1 SLOAD PUSH2 0x20FD SWAP1 PUSH2 0x3A04 JUMP JUMPDEST DUP1 ISZERO PUSH2 0x214A JUMPI DUP1 PUSH1 0x1F LT PUSH2 0x211F JUMPI PUSH2 0x100 DUP1 DUP4 SLOAD DIV MUL DUP4 MSTORE SWAP2 PUSH1 0x20 ADD SWAP2 PUSH2 0x214A JUMP JUMPDEST DUP3 ADD SWAP2 SWAP1 PUSH1 0x0 MSTORE PUSH1 0x20 PUSH1 0x0 KECCAK256 SWAP1 JUMPDEST DUP2 SLOAD DUP2 MSTORE SWAP1 PUSH1 0x1 ADD SWAP1 PUSH1 0x20 ADD DUP1 DUP4 GT PUSH2 0x212D JUMPI DUP3 SWAP1 SUB PUSH1 0x1F AND DUP3 ADD SWAP2 JUMPDEST POP POP POP POP POP DUP2 MSTORE PUSH1 0x20 ADD PUSH1 0x3 DUP3 ADD DUP1 SLOAD PUSH2 0x2163 SWAP1 PUSH2 0x3A04 JUMP JUMPDEST DUP1 PUSH1 0x1F ADD PUSH1 0x20 DUP1 SWAP2 DIV MUL PUSH1 0x20 ADD PUSH1 0x40 MLOAD SWAP1 DUP2 ADD PUSH1 0x40 MSTORE DUP1 SWAP3 SWAP2 SWAP1 DUP2 DUP2 MSTORE PUSH1 0x20 ADD DUP3 DUP1 SLOAD PUSH2 0x218F SWAP1 PUSH2 0x3A04 JUMP JUMPDEST DUP1 ISZERO PUSH2 0x21DC JUMPI DUP1 PUSH1 0x1F LT PUSH2 0x21B1 JUMPI PUSH2 0x100 DUP1 DUP4 SLOAD DIV MUL DUP4 MSTORE SWAP2 PUSH1 0x20 ADD SWAP2 PUSH2 0x21DC JUMP JUMPDEST DUP3 ADD SWAP2 SWAP1 PUSH1 0x0 MSTORE PUSH1 0x20 PUSH1 0x0 KECCAK256 SWAP1 JUMPDEST DUP2 SLOAD DUP2 MSTORE SWAP1 PUSH1 0x1 ADD SWAP1 PUSH1 0x20 ADD DUP1 DUP4 GT PUSH2 0x21BF JUMPI DUP3 SWAP1 SUB PUSH1 0x1F AND DUP3 ADD SWAP2 JUMPDEST POP POP POP POP POP DUP2 MSTORE PUSH1 0x20 ADD PUSH1 0x4 DUP3 ADD DUP1 SLOAD PUSH2 0x21F5 SWAP1 PUSH2 0x3A04 JUMP JUMPDEST DUP1 PUSH1 0x1F ADD PUSH1 0x20 DUP1 SWAP2 DIV MUL PUSH1 0x20 ADD PUSH1 0x40 MLOAD SWAP1 DUP2 ADD PUSH1 0x40 MSTORE DUP1 SWAP3 SWAP2 SWAP1 DUP2 DUP2 MSTORE PUSH1 0x20 ADD DUP3 DUP1 SLOAD PUSH2 0x2221 SWAP1 PUSH2 0x3A04 JUMP JUMPDEST DUP1 ISZERO PUSH2 0x226E JUMPI DUP1 PUSH1 0x1F LT PUSH2 0x2243 JUMPI PUSH2 0x100 DUP1 DUP4 SLOAD DIV MUL DUP4 MSTORE SWAP2 PUSH1 0x20 ADD SWAP2 PUSH2 0x226E JUMP JUMPDEST DUP3 ADD SWAP2 SWAP1 PUSH1 0x0 MSTORE PUSH1 0x20 PUSH1 0x0 KECCAK256 SWAP1 JUMPDEST DUP2 SLOAD DUP2 MSTORE SWAP1 PUSH1 0x1 ADD SWAP1 PUSH1 0x20 ADD DUP1 DUP4 GT PUSH2 0x2251 JUMPI DUP3 SWAP1 SUB PUSH1 0x1F AND DUP3 ADD SWAP2 JUMPDEST POP POP POP POP POP DUP2 MSTORE PUSH1 0x20 ADD PUSH1 0x5 DUP3 ADD DUP1 SLOAD PUSH2 0x2287 SWAP1 PUSH2 0x3A04 JUMP JUMPDEST DUP1 PUSH1 0x1F ADD PUSH1 0x20 DUP1 SWAP2 DIV MUL PUSH1 0x20 ADD PUSH1 0x40 MLOAD SWAP1 DUP2 ADD PUSH1 0x40 MSTORE DUP1 SWAP3 SWAP2 SWAP1 DUP2 DUP2 MSTORE PUSH1 0x20 ADD DUP3 DUP1 SLOAD PUSH2 0x22B3 SWAP1 PUSH2 0x3A04 JUMP JUMPDEST DUP1 ISZERO PUSH2 0x2300 JUMPI DUP1 PUSH1 0x1F LT PUSH2 0x22D5 JUMPI PUSH2 0x100 DUP1 DUP4 SLOAD DIV MUL DUP4 MSTORE SWAP2 PUSH1 0x20 ADD SWAP2 PUSH2 0x2300 JUMP JUMPDEST DUP3 ADD SWAP2 SWAP1 PUSH1 0x0 MSTORE PUSH1 0x20 PUSH1 0x0 KECCAK256 SWAP1 JUMPDEST DUP2 SLOAD DUP2 MSTORE SWAP1 PUSH1 0x1 ADD SWAP1 PUSH1 0x20 ADD DUP1 DUP4 GT PUSH2 0x22E3 JUMPI DUP3 SWAP1 SUB PUSH1 0x1F AND DUP3 ADD SWAP2 JUMPDEST POP POP POP POP POP DUP2 MSTORE POP POP DUP2 MSTORE PUSH1 0x20 ADD PUSH1 0x6 DUP3 ADD PUSH1 0x40 MLOAD DUP1 PUSH1 0x60 ADD PUSH1 0x40 MSTORE SWAP1 DUP2 PUSH1 0x0 DUP3 ADD DUP1 SLOAD PUSH2 0x232D SWAP1 PUSH2 0x3A04 JUMP JUMPDEST DUP1 PUSH1 0x1F ADD PUSH1 0x20 DUP1 SWAP2 DIV MUL PUSH1 0x20 ADD PUSH1 0x40 MLOAD SWAP1 DUP2 ADD PUSH1 0x40 MSTORE DUP1 SWAP3 SWAP2 SWAP1 DUP2 DUP2 MSTORE PUSH1 0x20 ADD DUP3 DUP1 SLOAD PUSH2 0x2359 SWAP1 PUSH2 0x3A04 JUMP JUMPDEST DUP1 ISZERO PUSH2 0x23A6 JUMPI DUP1 PUSH1 0x1F LT PUSH2 0x237B JUMPI PUSH2 0x100 DUP1 DUP4 SLOAD DIV MUL DUP4 MSTORE SWAP2 PUSH1 0x20 ADD SWAP2 PUSH2 0x23A6 JUMP JUMPDEST DUP3 ADD SWAP2 SWAP1 PUSH1 0x0 MSTORE PUSH1 0x20 PUSH1 0x0 KECCAK256 SWAP1 JUMPDEST DUP2 SLOAD DUP2 MSTORE SWAP1 PUSH1 0x1 ADD SWAP1 PUSH1 0x20 ADD DUP1 DUP4 GT PUSH2 0x2389 JUMPI DUP3 SWAP1 SUB PUSH1 0x1F AND DUP3 ADD SWAP2 JUMPDEST POP POP POP POP POP DUP2 MSTORE PUSH1 0x20 ADD PUSH1 0x1 DUP3 ADD DUP1 SLOAD PUSH2 0x23BF SWAP1 PUSH2 0x3A04 JUMP JUMPDEST DUP1 PUSH1 0x1F ADD PUSH1 0x20 DUP1 SWAP2 DIV MUL PUSH1 0x20 ADD PUSH1 0x40 MLOAD SWAP1 DUP2 ADD PUSH1 0x40 MSTORE DUP1 SWAP3 SWAP2 SWAP1 DUP2 DUP2 MSTORE PUSH1 0x20 ADD DUP3 DUP1 SLOAD PUSH2 0x23EB SWAP1 PUSH2 0x3A04 JUMP JUMPDEST DUP1 ISZERO PUSH2 0x2438 JUMPI DUP1 PUSH1 0x1F LT PUSH2 0x240D JUMPI PUSH2 0x100 DUP1 DUP4 SLOAD DIV MUL DUP4 MSTORE SWAP2 PUSH1 0x20 ADD SWAP2 PUSH2 0x2438 JUMP JUMPDEST DUP3 ADD SWAP2 SWAP1 PUSH1 0x0 MSTORE PUSH1 0x20 PUSH1 0x0 KECCAK256 SWAP1 JUMPDEST DUP2 SLOAD DUP2 MSTORE SWAP1 PUSH1 0x1 ADD SWAP1 PUSH1 0x20 ADD DUP1 DUP4 GT PUSH2 0x241B JUMPI DUP3 SWAP1 SUB PUSH1 0x1F AND DUP3 ADD SWAP2 JUMPDEST POP POP POP POP POP DUP2 MSTORE PUSH1 0x20 ADD PUSH1 0x2 DUP3 ADD DUP1 SLOAD PUSH2 0x2451 SWAP1 PUSH2 0x3A04 JUMP JUMPDEST DUP1 PUSH1 0x1F ADD PUSH1 0x20 DUP1 SWAP2 DIV MUL PUSH1 0x20 ADD PUSH1 0x40 MLOAD SWAP1 DUP2 ADD PUSH1 0x40 MSTORE DUP1 SWAP3 SWAP2 SWAP1 DUP2 DUP2 MSTORE PUSH1 0x20 ADD DUP3 DUP1 SLOAD PUSH2 0x247D SWAP1 PUSH2 0x3A04 JUMP JUMPDEST DUP1 ISZERO PUSH2 0x24CA JUMPI DUP1 PUSH1 0x1F LT PUSH2 0x249F JUMPI PUSH2 0x100 DUP1 DUP4 SLOAD DIV MUL DUP4 MSTORE SWAP2 PUSH1 0x20 ADD SWAP2 PUSH2 0x24CA JUMP JUMPDEST DUP3 ADD SWAP2 SWAP1 PUSH1 0x0 MSTORE PUSH1 0x20 PUSH1 0x0 KECCAK256 SWAP1 JUMPDEST DUP2 SLOAD DUP2 MSTORE SWAP1 PUSH1 0x1 ADD SWAP1 PUSH1 0x20 ADD DUP1 DUP4 GT PUSH2 0x24AD JUMPI DUP3 SWAP1 SUB PUSH1 0x1F AND DUP3 ADD SWAP2 JUMPDEST POP POP POP POP POP DUP2 MSTORE POP POP DUP2 MSTORE PUSH1 0x20 ADD PUSH1 0x9 DUP3 ADD PUSH1 0x40 MLOAD DUP1 PUSH1 0x80 ADD PUSH1 0x40 MSTORE SWAP1 DUP2 PUSH1 0x0 DUP3 ADD DUP1 SLOAD PUSH2 0x24F7 SWAP1 PUSH2 0x3A04 JUMP JUMPDEST DUP1 PUSH1 0x1F ADD PUSH1 0x20 DUP1 SWAP2 DIV MUL PUSH1 0x20 ADD PUSH1 0x40 MLOAD SWAP1 DUP2 ADD PUSH1 0x40 MSTORE DUP1 SWAP3 SWAP2 SWAP1 DUP2 DUP2 MSTORE PUSH1 0x20 ADD DUP3 DUP1 SLOAD PUSH2 0x2523 SWAP1 PUSH2 0x3A04 JUMP JUMPDEST DUP1 ISZERO PUSH2 0x2570 JUMPI DUP1 PUSH1 0x1F LT PUSH2 0x2545 JUMPI PUSH2 0x100 DUP1 DUP4 SLOAD DIV MUL DUP4 MSTORE SWAP2 PUSH1 0x20 ADD SWAP2 PUSH2 0x2570 JUMP JUMPDEST DUP3 ADD SWAP2 SWAP1 PUSH1 0x0 MSTORE PUSH1 0x20 PUSH1 0x0 KECCAK256 SWAP1 JUMPDEST DUP2 SLOAD DUP2 MSTORE SWAP1 PUSH1 0x1 ADD SWAP1 PUSH1 0x20 ADD DUP1 DUP4 GT PUSH2 0x2553 JUMPI DUP3 SWAP1 SUB PUSH1 0x1F AND DUP3 ADD SWAP2 JUMPDEST POP POP POP POP POP DUP2 MSTORE PUSH1 0x20 ADD PUSH1 0x1 DUP3 ADD DUP1 SLOAD PUSH2 0x2589 SWAP1 PUSH2 0x3A04 JUMP JUMPDEST DUP1 PUSH1 0x1F ADD PUSH1 0x20 DUP1 SWAP2 DIV MUL PUSH1 0x20 ADD PUSH1 0x40 MLOAD SWAP1 DUP2 ADD PUSH1 0x40 MSTORE DUP1 SWAP3 SWAP2 SWAP1 DUP2 DUP2 MSTORE PUSH1 0x20 ADD DUP3 DUP1 SLOAD PUSH2 0x25B5 SWAP1 PUSH2 0x3A04 JUMP JUMPDEST DUP1 ISZERO PUSH2 0x2602 JUMPI DUP1 PUSH1 0x1F LT PUSH2 0x25D7 JUMPI PUSH2 0x100 DUP1 DUP4 SLOAD DIV MUL DUP4 MSTORE SWAP2 PUSH1 0x20 ADD SWAP2 PUSH2 0x2602 JUMP JUMPDEST DUP3 ADD SWAP2 SWAP1 PUSH1 0x0 MSTORE PUSH1 0x20 PUSH1 0x0 KECCAK256 SWAP1 JUMPDEST DUP2 SLOAD DUP2 MSTORE SWAP1 PUSH1 0x1 ADD SWAP1 PUSH1 0x20 ADD DUP1 DUP4 GT PUSH2 0x25E5 JUMPI DUP3 SWAP1 SUB PUSH1 0x1F AND DUP3 ADD SWAP2 JUMPDEST POP POP POP POP POP DUP2 MSTORE PUSH1 0x20 ADD PUSH1 0x2 DUP3 ADD DUP1 SLOAD PUSH2 0x261B SWAP1 PUSH2 0x3A04 JUMP JUMPDEST DUP1 PUSH1 0x1F ADD PUSH1 0x20 DUP1 SWAP2 DIV MUL PUSH1 0x20 ADD PUSH1 0x40 MLOAD SWAP1 DUP2 ADD PUSH1 0x40 MSTORE DUP1 SWAP3 SWAP2 SWAP1 DUP2 DUP2 MSTORE PUSH1 0x20 ADD DUP3 DUP1 SLOAD PUSH2 0x2647 SWAP1 PUSH2 0x3A04 JUMP JUMPDEST DUP1 ISZERO PUSH2 0x2694 JUMPI DUP1 PUSH1 0x1F LT PUSH2 0x2669 JUMPI PUSH2 0x100 DUP1 DUP4 SLOAD DIV MUL DUP4 MSTORE SWAP2 PUSH1 0x20 ADD SWAP2 PUSH2 0x2694 JUMP JUMPDEST DUP3 ADD SWAP2 SWAP1 PUSH1 0x0 MSTORE PUSH1 0x20 PUSH1 0x0 KECCAK256 SWAP1 JUMPDEST DUP2 SLOAD DUP2 MSTORE SWAP1 PUSH1 0x1 ADD SWAP1 PUSH1 0x20 ADD DUP1 DUP4 GT PUSH2 0x2677 JUMPI DUP3 SWAP1 SUB PUSH1 0x1F AND DUP3 ADD SWAP2 JUMPDEST POP POP POP POP POP DUP2 MSTORE PUSH1 0x20 ADD PUSH1 0x3 DUP3 ADD DUP1 SLOAD PUSH2 0x26AD SWAP1 PUSH2 0x3A04 JUMP JUMPDEST DUP1 PUSH1 0x1F ADD PUSH1 0x20 DUP1 SWAP2 DIV MUL PUSH1 0x20 ADD PUSH1 0x40 MLOAD SWAP1 DUP2 ADD PUSH1 0x40 MSTORE DUP1 SWAP3 SWAP2 SWAP1 DUP2 DUP2 MSTORE PUSH1 0x20 ADD DUP3 DUP1 SLOAD PUSH2 0x26D9 SWAP1 PUSH2 0x3A04 JUMP JUMPDEST DUP1 ISZERO PUSH2 0x2726 JUMPI DUP1 PUSH1 0x1F LT PUSH2 0x26FB JUMPI PUSH2 0x100 DUP1 DUP4 SLOAD DIV MUL DUP4 MSTORE SWAP2 PUSH1 0x20 ADD SWAP2 PUSH2 0x2726 JUMP JUMPDEST DUP3 ADD SWAP2 SWAP1 PUSH1 0x0 MSTORE PUSH1 0x20 PUSH1 0x0 KECCAK256 SWAP1 JUMPDEST DUP2 SLOAD DUP2 MSTORE SWAP1 PUSH1 0x1 ADD SWAP1 PUSH1 0x20 ADD DUP1 DUP4 GT PUSH2 0x2709 JUMPI DUP3 SWAP1 SUB PUSH1 0x1F AND DUP3 ADD SWAP2 JUMPDEST POP POP POP POP POP DUP2 MSTORE POP POP DUP2 MSTORE PUSH1 0x20 ADD PUSH1 0xD DUP3 ADD PUSH1 0x0 SWAP1 SLOAD SWAP1 PUSH2 0x100 EXP SWAP1 DIV PUSH1 0xFF AND ISZERO ISZERO ISZERO ISZERO DUP2 MSTORE POP POP SWAP1 POP DUP1 PUSH1 0x40 ADD MLOAD PUSH1 0x0 ADD MLOAD DUP2 PUSH1 0x40 ADD MLOAD PUSH1 0x20 ADD MLOAD DUP3 PUSH1 0x40 ADD MLOAD PUSH1 0x40 ADD MLOAD DUP4 PUSH1 0x40 ADD MLOAD PUSH1 0x60 ADD MLOAD SWAP5 POP SWAP5 POP SWAP5 POP SWAP5 POP POP SWAP2 SWAP4 POP SWAP2 SWAP4 JUMP JUMPDEST PUSH1 0x0 DUP1 CALLER PUSH20 0xFFFFFFFFFFFFFFFFFFFFFFFFFFFFFFFFFFFFFFFF AND PUSH20 0xFFFFFFFFFFFFFFFFFFFFFFFFFFFFFFFFFFFFFFFF AND DUP2 MSTORE PUSH1 0x20 ADD SWAP1 DUP2 MSTORE PUSH1 0x20 ADD PUSH1 0x0 KECCAK256 PUSH1 0xD ADD PUSH1 0x0 SWAP1 SLOAD SWAP1 PUSH2 0x100 EXP SWAP1 DIV PUSH1 0xFF AND PUSH2 0x2812 JUMPI PUSH1 0x40 MLOAD PUSH32 0x8C379A000000000000000000000000000000000000000000000000000000000 DUP2 MSTORE PUSH1 0x4 ADD PUSH2 0x2809 SWAP1 PUSH2 0x3A81 JUMP JUMPDEST PUSH1 0x40 MLOAD DUP1 SWAP2 SUB SWAP1 REVERT JUMPDEST PUSH1 0x0 PUSH1 0x40 MLOAD DUP1 PUSH1 0xA0 ADD PUSH1 0x40 MSTORE DUP1 DUP7 DUP2 MSTORE PUSH1 0x20 ADD DUP6 DUP2 MSTORE PUSH1 0x20 ADD DUP5 DUP2 MSTORE PUSH1 0x20 ADD DUP4 DUP2 MSTORE PUSH1 0x20 ADD PUSH1 0x0 ISZERO ISZERO DUP2 MSTORE POP SWAP1 POP PUSH1 0x1 PUSH1 0x0 CALLER PUSH20 0xFFFFFFFFFFFFFFFFFFFFFFFFFFFFFFFFFFFFFFFF AND PUSH20 0xFFFFFFFFFFFFFFFFFFFFFFFFFFFFFFFFFFFFFFFF AND DUP2 MSTORE PUSH1 0x20 ADD SWAP1 DUP2 MSTORE PUSH1 0x20 ADD PUSH1 0x0 KECCAK256 DUP2 SWAP1 DUP1 PUSH1 0x1 DUP2 SLOAD ADD DUP1 DUP3 SSTORE DUP1 SWAP2 POP POP PUSH1 0x1 SWAP1 SUB SWAP1 PUSH1 0x0 MSTORE PUSH1 0x20 PUSH1 0x0 KECCAK256 SWAP1 PUSH1 0x5 MUL ADD PUSH1 0x0 SWAP1 SWAP2 SWAP1 SWAP2 SWAP1 SWAP2 POP PUSH1 0x0 DUP3 ADD MLOAD DUP2 PUSH1 0x0 ADD SWAP1 DUP2 PUSH2 0x28BE SWAP2 SWAP1 PUSH2 0x3C4D JUMP JUMPDEST POP PUSH1 0x20 DUP3 ADD MLOAD DUP2 PUSH1 0x1 ADD SWAP1 DUP2 PUSH2 0x28D4 SWAP2 SWAP1 PUSH2 0x3C4D JUMP JUMPDEST POP PUSH1 0x40 DUP3 ADD MLOAD DUP2 PUSH1 0x2 ADD SWAP1 DUP2 PUSH2 0x28EA SWAP2 SWAP1 PUSH2 0x3C4D JUMP JUMPDEST POP PUSH1 0x60 DUP3 ADD MLOAD DUP2 PUSH1 0x3 ADD SWAP1 DUP2 PUSH2 0x2900 SWAP2 SWAP1 PUSH2 0x3C4D JUMP JUMPDEST POP PUSH1 0x80 DUP3 ADD MLOAD DUP2 PUSH1 0x4 ADD PUSH1 0x0 PUSH2 0x100 EXP DUP2 SLOAD DUP2 PUSH1 0xFF MUL NOT AND SWAP1 DUP4 ISZERO ISZERO MUL OR SWAP1 SSTORE POP POP POP CALLER PUSH20 0xFFFFFFFFFFFFFFFFFFFFFFFFFFFFFFFFFFFFFFFF AND PUSH32 0x87BE2DA18798460424D9CF9D0FE10AB3232D6942A225257C106658FC3DDA6FD2 DUP7 DUP7 PUSH1 0x40 MLOAD PUSH2 0x296B SWAP3 SWAP2 SWAP1 PUSH2 0x3DC5 JUMP JUMPDEST PUSH1 0x40 MLOAD DUP1 SWAP2 SUB SWAP1 LOG2 POP POP POP POP POP JUMP JUMPDEST PUSH1 0x60 DUP1 PUSH1 0x60 DUP1 PUSH1 0x0 PUSH1 0x1 PUSH1 0x0 DUP9 PUSH20 0xFFFFFFFFFFFFFFFFFFFFFFFFFFFFFFFFFFFFFFFF AND PUSH20 0xFFFFFFFFFFFFFFFFFFFFFFFFFFFFFFFFFFFFFFFF AND DUP2 MSTORE PUSH1 0x20 ADD SWAP1 DUP2 MSTORE PUSH1 0x20 ADD PUSH1 0x0 KECCAK256 DUP1 SLOAD SWAP1 POP DUP7 LT PUSH2 0x2A06 JUMPI PUSH1 0x40 MLOAD PUSH32 0x8C379A000000000000000000000000000000000000000000000000000000000 DUP2 MSTORE PUSH1 0x4 ADD PUSH2 0x29FD SWAP1 PUSH2 0x3E48 JUMP JUMPDEST PUSH1 0x40 MLOAD DUP1 SWAP2 SUB SWAP1 REVERT JUMPDEST PUSH1 0x0 PUSH1 0x1 PUSH1 0x0 DUP10 PUSH20 0xFFFFFFFFFFFFFFFFFFFFFFFFFFFFFFFFFFFFFFFF AND PUSH20 0xFFFFFFFFFFFFFFFFFFFFFFFFFFFFFFFFFFFFFFFF AND DUP2 MSTORE PUSH1 0x20 ADD SWAP1 DUP2 MSTORE PUSH1 0x20 ADD PUSH1 0x0 KECCAK256 DUP8 DUP2 SLOAD DUP2 LT PUSH2 0x2A59 JUMPI PUSH2 0x2A58 PUSH2 0x3E68 JUMP JUMPDEST JUMPDEST SWAP1 PUSH1 0x0 MSTORE PUSH1 0x20 PUSH1 0x0 KECCAK256 SWAP1 PUSH1 0x5 MUL ADD PUSH1 0x40 MLOAD DUP1 PUSH1 0xA0 ADD PUSH1 0x40 MSTORE SWAP1 DUP2 PUSH1 0x0 DUP3 ADD DUP1 SLOAD PUSH2 0x2A82 SWAP1 PUSH2 0x3A04 JUMP JUMPDEST DUP1 PUSH1 0x1F ADD PUSH1 0x20 DUP1 SWAP2 DIV MUL PUSH1 0x20 ADD PUSH1 0x40 MLOAD SWAP1 DUP2 ADD PUSH1 0x40 MSTORE DUP1 SWAP3 SWAP2 SWAP1 DUP2 DUP2 MSTORE PUSH1 0x20 ADD DUP3 DUP1 SLOAD PUSH2 0x2AAE SWAP1 PUSH2 0x3A04 JUMP JUMPDEST DUP1 ISZERO PUSH2 0x2AFB JUMPI DUP1 PUSH1 0x1F LT PUSH2 0x2AD0 JUMPI PUSH2 0x100 DUP1 DUP4 SLOAD DIV MUL DUP4 MSTORE SWAP2 PUSH1 0x20 ADD SWAP2 PUSH2 0x2AFB JUMP JUMPDEST DUP3 ADD SWAP2 SWAP1 PUSH1 0x0 MSTORE PUSH1 0x20 PUSH1 0x0 KECCAK256 SWAP1 JUMPDEST DUP2 SLOAD DUP2 MSTORE SWAP1 PUSH1 0x1 ADD SWAP1 PUSH1 0x20 ADD DUP1 DUP4 GT PUSH2 0x2ADE JUMPI DUP3 SWAP1 SUB PUSH1 0x1F AND DUP3 ADD SWAP2 JUMPDEST POP POP POP POP POP DUP2 MSTORE PUSH1 0x20 ADD PUSH1 0x1 DUP3 ADD DUP1 SLOAD PUSH2 0x2B14 SWAP1 PUSH2 0x3A04 JUMP JUMPDEST DUP1 PUSH1 0x1F ADD PUSH1 0x20 DUP1 SWAP2 DIV MUL PUSH1 0x20 ADD PUSH1 0x40 MLOAD SWAP1 DUP2 ADD PUSH1 0x40 MSTORE DUP1 SWAP3 SWAP2 SWAP1 DUP2 DUP2 MSTORE PUSH1 0x20 ADD DUP3 DUP1 SLOAD PUSH2 0x2B40 SWAP1 PUSH2 0x3A04 JUMP JUMPDEST DUP1 ISZERO PUSH2 0x2B8D JUMPI DUP1 PUSH1 0x1F LT PUSH2 0x2B62 JUMPI PUSH2 0x100 DUP1 DUP4 SLOAD DIV MUL DUP4 MSTORE SWAP2 PUSH1 0x20 ADD SWAP2 PUSH2 0x2B8D JUMP JUMPDEST DUP3 ADD SWAP2 SWAP1 PUSH1 0x0 MSTORE PUSH1 0x20 PUSH1 0x0 KECCAK256 SWAP1 JUMPDEST DUP2 SLOAD DUP2 MSTORE SWAP1 PUSH1 0x1 ADD SWAP1 PUSH1 0x20 ADD DUP1 DUP4 GT PUSH2 0x2B70 JUMPI DUP3 SWAP1 SUB PUSH1 0x1F AND DUP3 ADD SWAP2 JUMPDEST POP POP POP POP POP DUP2 MSTORE PUSH1 0x20 ADD PUSH1 0x2 DUP3 ADD DUP1 SLOAD PUSH2 0x2BA6 SWAP1 PUSH2 0x3A04 JUMP JUMPDEST DUP1 PUSH1 0x1F ADD PUSH1 0x20 DUP1 SWAP2 DIV MUL PUSH1 0x20 ADD PUSH1 0x40 MLOAD SWAP1 DUP2 ADD PUSH1 0x40 MSTORE DUP1 SWAP3 SWAP2 SWAP1 DUP2 DUP2 MSTORE PUSH1 0x20 ADD DUP3 DUP1 SLOAD PUSH2 0x2BD2 SWAP1 PUSH2 0x3A04 JUMP JUMPDEST DUP1 ISZERO PUSH2 0x2C1F JUMPI DUP1 PUSH1 0x1F LT PUSH2 0x2BF4 JUMPI PUSH2 0x100 DUP1 DUP4 SLOAD DIV MUL DUP4 MSTORE SWAP2 PUSH1 0x20 ADD SWAP2 PUSH2 0x2C1F JUMP JUMPDEST DUP3 ADD SWAP2 SWAP1 PUSH1 0x0 MSTORE PUSH1 0x20 PUSH1 0x0 KECCAK256 SWAP1 JUMPDEST DUP2 SLOAD DUP2 MSTORE SWAP1 PUSH1 0x1 ADD SWAP1 PUSH1 0x20 ADD DUP1 DUP4 GT PUSH2 0x2C02 JUMPI DUP3 SWAP1 SUB PUSH1 0x1F AND DUP3 ADD SWAP2 JUMPDEST POP POP POP POP POP DUP2 MSTORE PUSH1 0x20 ADD PUSH1 0x3 DUP3 ADD DUP1 SLOAD PUSH2 0x2C38 SWAP1 PUSH2 0x3A04 JUMP JUMPDEST DUP1 PUSH1 0x1F ADD PUSH1 0x20 DUP1 SWAP2 DIV MUL PUSH1 0x20 ADD PUSH1 0x40 MLOAD SWAP1 DUP2 ADD PUSH1 0x40 MSTORE DUP1 SWAP3 SWAP2 SWAP1 DUP2 DUP2 MSTORE PUSH1 0x20 ADD DUP3 DUP1 SLOAD PUSH2 0x2C64 SWAP1 PUSH2 0x3A04 JUMP JUMPDEST DUP1 ISZERO PUSH2 0x2CB1 JUMPI DUP1 PUSH1 0x1F LT PUSH2 0x2C86 JUMPI PUSH2 0x100 DUP1 DUP4 SLOAD DIV MUL DUP4 MSTORE SWAP2 PUSH1 0x20 ADD SWAP2 PUSH2 0x2CB1 JUMP JUMPDEST DUP3 ADD SWAP2 SWAP1 PUSH1 0x0 MSTORE PUSH1 0x20 PUSH1 0x0 KECCAK256 SWAP1 JUMPDEST DUP2 SLOAD DUP2 MSTORE SWAP1 PUSH1 0x1 ADD SWAP1 PUSH1 0x20 ADD DUP1 DUP4 GT PUSH2 0x2C94 JUMPI DUP3 SWAP1 SUB PUSH1 0x1F AND DUP3 ADD SWAP2 JUMPDEST POP POP POP POP POP DUP2 MSTORE PUSH1 0x20 ADD PUSH1 0x4 DUP3 ADD PUSH1 0x0 SWAP1 SLOAD SWAP1 PUSH2 0x100 EXP SWAP1 DIV PUSH1 0xFF AND ISZERO ISZERO ISZERO ISZERO DUP2 MSTORE POP POP SWAP1 POP DUP1 PUSH1 0x0 ADD MLOAD DUP2 PUSH1 0x20 ADD MLOAD DUP3 PUSH1 0x40 ADD MLOAD DUP4 PUSH1 0x60 ADD MLOAD DUP5 PUSH1 0x80 ADD MLOAD SWAP6 POP SWAP6 POP SWAP6 POP SWAP6 POP SWAP6 POP POP SWAP3 SWAP6 POP SWAP3 SWAP6 SWAP1 SWAP4 POP JUMP JUMPDEST PUSH1 0x0 DUP1 PUSH1 0x0 CALLER PUSH20 0xFFFFFFFFFFFFFFFFFFFFFFFFFFFFFFFFFFFFFFFF AND PUSH20 0xFFFFFFFFFFFFFFFFFFFFFFFFFFFFFFFFFFFFFFFF AND DUP2 MSTORE PUSH1 0x20 ADD SWAP1 DUP2 MSTORE PUSH1 0x20 ADD PUSH1 0x0 KECCAK256 SWAP1 POP DUP7 DUP2 PUSH1 0x0 ADD PUSH1 0x0 ADD SWAP1 DUP2 PUSH2 0x2D5B SWAP2 SWAP1 PUSH2 0x3C4D JUMP JUMPDEST POP DUP6 DUP2 PUSH1 0x0 ADD PUSH1 0x1 ADD SWAP1 DUP2 PUSH2 0x2D70 SWAP2 SWAP1 PUSH2 0x3C4D JUMP JUMPDEST POP DUP5 DUP2 PUSH1 0x0 ADD PUSH1 0x2 ADD SWAP1 DUP2 PUSH2 0x2D85 SWAP2 SWAP1 PUSH2 0x3C4D JUMP JUMPDEST POP DUP4 DUP2 PUSH1 0x0 ADD PUSH1 0x3 ADD SWAP1 DUP2 PUSH2 0x2D9A SWAP2 SWAP1 PUSH2 0x3C4D JUMP JUMPDEST POP DUP3 DUP2 PUSH1 0x0 ADD PUSH1 0x4 ADD SWAP1 DUP2 PUSH2 0x2DAF SWAP2 SWAP1 PUSH2 0x3C4D JUMP JUMPDEST POP DUP2 DUP2 PUSH1 0x0 ADD PUSH1 0x5 ADD SWAP1 DUP2 PUSH2 0x2DC4 SWAP2 SWAP1 PUSH2 0x3C4D JUMP JUMPDEST POP DUP1 PUSH1 0xD ADD PUSH1 0x0 SWAP1 SLOAD SWAP1 PUSH2 0x100 EXP SWAP1 DIV PUSH1 0xFF AND PUSH2 0x2E4B JUMPI PUSH1 0x1 DUP2 PUSH1 0xD ADD PUSH1 0x0 PUSH2 0x100 EXP DUP2 SLOAD DUP2 PUSH1 0xFF MUL NOT AND SWAP1 DUP4 ISZERO ISZERO MUL OR SWAP1 SSTORE POP CALLER PUSH20 0xFFFFFFFFFFFFFFFFFFFFFFFFFFFFFFFFFFFFFFFF AND PUSH32 0xBAFDDECBD1DEC1C1AFB76D693F1DE16901F521BDF29A02438E3E6806C0B8D948 DUP9 PUSH1 0x40 MLOAD PUSH2 0x2E3E SWAP2 SWAP1 PUSH2 0x3E97 JUMP JUMPDEST PUSH1 0x40 MLOAD DUP1 SWAP2 SUB SWAP1 LOG2 PUSH2 0x2E9A JUMP JUMPDEST CALLER PUSH20 0xFFFFFFFFFFFFFFFFFFFFFFFFFFFFFFFFFFFFFFFF AND PUSH32 0xDD635A4CD84864E37E4479DBFC2EC667ACFA473C83C8422A8AC9D9D07599B01C DUP9 PUSH1 0x40 MLOAD PUSH2 0x2E91 SWAP2 SWAP1 PUSH2 0x3E97 JUMP JUMPDEST PUSH1 0x40 MLOAD DUP1 SWAP2 SUB SWAP1 LOG2 JUMPDEST POP POP POP POP POP POP POP JUMP JUMPDEST PUSH1 0x0 DUP1 PUSH1 0x0 CALLER PUSH20 0xFFFFFFFFFFFFFFFFFFFFFFFFFFFFFFFFFFFFFFFF AND PUSH20 0xFFFFFFFFFFFFFFFFFFFFFFFFFFFFFFFFFFFFFFFF AND DUP2 MSTORE PUSH1 0x20 ADD SWAP1 DUP2 MSTORE PUSH1 0x20 ADD PUSH1 0x0 KECCAK256 SWAP1 POP DUP1 PUSH1 0xD ADD PUSH1 0x0 SWAP1 SLOAD SWAP1 PUSH2 0x100 EXP SWAP1 DIV PUSH1 0xFF AND PUSH2 0x2F36 JUMPI PUSH1 0x40 MLOAD PUSH32 0x8C379A000000000000000000000000000000000000000000000000000000000 DUP2 MSTORE PUSH1 0x4 ADD PUSH2 0x2F2D SWAP1 PUSH2 0x3A81 JUMP JUMPDEST PUSH1 0x40 MLOAD DUP1 SWAP2 SUB SWAP1 REVERT JUMPDEST DUP4 DUP2 PUSH1 0x6 ADD PUSH1 0x0 ADD SWAP1 DUP2 PUSH2 0x2F4A SWAP2 SWAP1 PUSH2 0x3C4D JUMP JUMPDEST POP DUP3 DUP2 PUSH1 0x6 ADD PUSH1 0x1 ADD SWAP1 DUP2 PUSH2 0x2F5F SWAP2 SWAP1 PUSH2 0x3C4D JUMP JUMPDEST POP DUP2 DUP2 PUSH1 0x6 ADD PUSH1 0x2 ADD SWAP1 DUP2 PUSH2 0x2F74 SWAP2 SWAP1 PUSH2 0x3C4D JUMP JUMPDEST POP CALLER PUSH20 0xFFFFFFFFFFFFFFFFFFFFFFFFFFFFFFFFFFFFFFFF AND PUSH32 0xDD635A4CD84864E37E4479DBFC2EC667ACFA473C83C8422A8AC9D9D07599B01C DUP3 PUSH1 0x0 ADD PUSH1 0x0 ADD PUSH1 0x40 MLOAD PUSH2 0x2FC1 SWAP2 SWAP1 PUSH2 0x3DA3 JUMP JUMPDEST PUSH1 0x40 MLOAD DUP1 SWAP2 SUB SWAP1 LOG2 POP POP POP POP JUMP JUMPDEST PUSH1 0x0 PUSH1 0x1 PUSH1 0x0 DUP4 PUSH20 0xFFFFFFFFFFFFFFFFFFFFFFFFFFFFFFFFFFFFFFFF AND PUSH20 0xFFFFFFFFFFFFFFFFFFFFFFFFFFFFFFFFFFFFFFFF AND DUP2 MSTORE PUSH1 0x20 ADD SWAP1 DUP2 MSTORE PUSH1 0x20 ADD PUSH1 0x0 KECCAK256 DUP1 SLOAD SWAP1 POP SWAP1 POP SWAP2 SWAP1 POP JUMP JUMPDEST PUSH1 0x0 PUSH1 0x40 MLOAD SWAP1 POP SWAP1 JUMP JUMPDEST PUSH1 0x0 DUP1 REVERT JUMPDEST PUSH1 0x0 DUP1 REVERT JUMPDEST PUSH1 0x0 PUSH20 0xFFFFFFFFFFFFFFFFFFFFFFFFFFFFFFFFFFFFFFFF DUP3 AND SWAP1 POP SWAP2 SWAP1 POP JUMP JUMPDEST PUSH1 0x0 PUSH2 0x305A DUP3 PUSH2 0x302F JUMP JUMPDEST SWAP1 POP SWAP2 SWAP1 POP JUMP JUMPDEST PUSH2 0x306A DUP2 PUSH2 0x304F JUMP JUMPDEST DUP2 EQ PUSH2 0x3075 JUMPI PUSH1 0x0 DUP1 REVERT JUMPDEST POP JUMP JUMPDEST PUSH1 0x0 DUP2 CALLDATALOAD SWAP1 POP PUSH2 0x3087 DUP2 PUSH2 0x3061 JUMP JUMPDEST SWAP3 SWAP2 POP POP JUMP JUMPDEST PUSH1 0x0 DUP2 SWAP1 POP SWAP2 SWAP1 POP JUMP JUMPDEST PUSH2 0x30A0 DUP2 PUSH2 0x308D JUMP JUMPDEST DUP2 EQ PUSH2 0x30AB JUMPI PUSH1 0x0 DUP1 REVERT JUMPDEST POP JUMP JUMPDEST PUSH1 0x0 DUP2 CALLDATALOAD SWAP1 POP PUSH2 0x30BD DUP2 PUSH2 0x3097 JUMP JUMPDEST SWAP3 SWAP2 POP POP JUMP JUMPDEST PUSH1 0x0 DUP1 PUSH1 0x40 DUP4 DUP6 SUB SLT ISZERO PUSH2 0x30DA JUMPI PUSH2 0x30D9 PUSH2 0x3025 JUMP JUMPDEST JUMPDEST PUSH1 0x0 PUSH2 0x30E8 DUP6 DUP3 DUP7 ADD PUSH2 0x3078 JUMP JUMPDEST SWAP3 POP POP PUSH1 0x20 PUSH2 0x30F9 DUP6 DUP3 DUP7 ADD PUSH2 0x30AE JUMP JUMPDEST SWAP2 POP POP SWAP3 POP SWAP3 SWAP1 POP JUMP JUMPDEST PUSH1 0x0 DUP2 MLOAD SWAP1 POP SWAP2 SWAP1 POP JUMP JUMPDEST PUSH1 0x0 DUP3 DUP3 MSTORE PUSH1 0x20 DUP3 ADD SWAP1 POP SWAP3 SWAP2 POP POP JUMP JUMPDEST PUSH1 0x0 JUMPDEST DUP4 DUP2 LT ISZERO PUSH2 0x313D JUMPI DUP1 DUP3 ADD MLOAD DUP2 DUP5 ADD MSTORE PUSH1 0x20 DUP2 ADD SWAP1 POP PUSH2 0x3122 JUMP JUMPDEST PUSH1 0x0 DUP5 DUP5 ADD MSTORE POP POP POP POP JUMP JUMPDEST PUSH1 0x0 PUSH1 0x1F NOT PUSH1 0x1F DUP4 ADD AND SWAP1 POP SWAP2 SWAP1 POP JUMP JUMPDEST PUSH1 0x0 PUSH2 0x3165 DUP3 PUSH2 0x3103 JUMP JUMPDEST PUSH2 0x316F DUP2 DUP6 PUSH2 0x310E JUMP JUMPDEST SWAP4 POP PUSH2 0x317F DUP2 DUP6 PUSH1 0x20 DUP7 ADD PUSH2 0x311F JUMP JUMPDEST PUSH2 0x3188 DUP2 PUSH2 0x3149 JUMP JUMPDEST DUP5 ADD SWAP2 POP POP SWAP3 SWAP2 POP POP JUMP JUMPDEST PUSH1 0x0 DUP2 ISZERO ISZERO SWAP1 POP SWAP2 SWAP1 POP JUMP JUMPDEST PUSH2 0x31A8 DUP2 PUSH2 0x3193 JUMP JUMPDEST DUP3 MSTORE POP POP JUMP JUMPDEST PUSH1 0x0 PUSH1 0xA0 DUP3 ADD SWAP1 POP DUP2 DUP2 SUB PUSH1 0x0 DUP4 ADD MSTORE PUSH2 0x31C8 DUP2 DUP9 PUSH2 0x315A JUMP JUMPDEST SWAP1 POP DUP2 DUP2 SUB PUSH1 0x20 DUP4 ADD MSTORE PUSH2 0x31DC DUP2 DUP8 PUSH2 0x315A JUMP JUMPDEST SWAP1 POP DUP2 DUP2 SUB PUSH1 0x40 DUP4 ADD MSTORE PUSH2 0x31F0 DUP2 DUP7 PUSH2 0x315A JUMP JUMPDEST SWAP1 POP DUP2 DUP2 SUB PUSH1 0x60 DUP4 ADD MSTORE PUSH2 0x3204 DUP2 DUP6 PUSH2 0x315A JUMP JUMPDEST SWAP1 POP PUSH2 0x3213 PUSH1 0x80 DUP4 ADD DUP5 PUSH2 0x319F JUMP JUMPDEST SWAP7 SWAP6 POP POP POP POP POP POP JUMP JUMPDEST PUSH1 0x0 PUSH1 0x20 DUP3 DUP5 SUB SLT ISZERO PUSH2 0x3233 JUMPI PUSH2 0x3232 PUSH2 0x3025 JUMP JUMPDEST JUMPDEST PUSH1 0x0 PUSH2 0x3241 DUP5 DUP3 DUP6 ADD PUSH2 0x3078 JUMP JUMPDEST SWAP2 POP POP SWAP3 SWAP2 POP POP JUMP JUMPDEST PUSH1 0x0 PUSH1 0x60 DUP3 ADD SWAP1 POP DUP2 DUP2 SUB PUSH1 0x0 DUP4 ADD MSTORE PUSH2 0x3264 DUP2 DUP7 PUSH2 0x315A JUMP JUMPDEST SWAP1 POP DUP2 DUP2 SUB PUSH1 0x20 DUP4 ADD MSTORE PUSH2 0x3278 DUP2 DUP6 PUSH2 0x315A JUMP JUMPDEST SWAP1 POP DUP2 DUP2 SUB PUSH1 0x40 DUP4 ADD MSTORE PUSH2 0x328C DUP2 DUP5 PUSH2 0x315A JUMP JUMPDEST SWAP1 POP SWAP5 SWAP4 POP POP POP POP JUMP JUMPDEST PUSH1 0x0 DUP3 DUP3 MSTORE PUSH1 0x20 DUP3 ADD SWAP1 POP SWAP3 SWAP2 POP POP JUMP JUMPDEST PUSH1 0x0 PUSH2 0x32B2 DUP3 PUSH2 0x3103 JUMP JUMPDEST PUSH2 0x32BC DUP2 DUP6 PUSH2 0x3296 JUMP JUMPDEST SWAP4 POP PUSH2 0x32CC DUP2 DUP6 PUSH1 0x20 DUP7 ADD PUSH2 0x311F JUMP JUMPDEST PUSH2 0x32D5 DUP2 PUSH2 0x3149 JUMP JUMPDEST DUP5 ADD SWAP2 POP POP SWAP3 SWAP2 POP POP JUMP JUMPDEST PUSH1 0x0 PUSH1 0xC0 DUP4 ADD PUSH1 0x0 DUP4 ADD MLOAD DUP5 DUP3 SUB PUSH1 0x0 DUP7 ADD MSTORE PUSH2 0x32FD DUP3 DUP3 PUSH2 0x32A7 JUMP JUMPDEST SWAP2 POP POP PUSH1 0x20 DUP4 ADD MLOAD DUP5 DUP3 SUB PUSH1 0x20 DUP7 ADD MSTORE PUSH2 0x3317 DUP3 DUP3 PUSH2 0x32A7 JUMP JUMPDEST SWAP2 POP POP PUSH1 0x40 DUP4 ADD MLOAD DUP5 DUP3 SUB PUSH1 0x40 DUP7 ADD MSTORE PUSH2 0x3331 DUP3 DUP3 PUSH2 0x32A7 JUMP JUMPDEST SWAP2 POP POP PUSH1 0x60 DUP4 ADD MLOAD DUP5 DUP3 SUB PUSH1 0x60 DUP7 ADD MSTORE PUSH2 0x334B DUP3 DUP3 PUSH2 0x32A7 JUMP JUMPDEST SWAP2 POP POP PUSH1 0x80 DUP4 ADD MLOAD DUP5 DUP3 SUB PUSH1 0x80 DUP7 ADD MSTORE PUSH2 0x3365 DUP3 DUP3 PUSH2 0x32A7 JUMP JUMPDEST SWAP2 POP POP PUSH1 0xA0 DUP4 ADD MLOAD DUP5 DUP3 SUB PUSH1 0xA0 DUP7 ADD MSTORE PUSH2 0x337F DUP3 DUP3 PUSH2 0x32A7 JUMP JUMPDEST SWAP2 POP POP DUP1 SWAP2 POP POP SWAP3 SWAP2 POP POP JUMP JUMPDEST PUSH1 0x0 PUSH1 0x60 DUP4 ADD PUSH1 0x0 DUP4 ADD MLOAD DUP5 DUP3 SUB PUSH1 0x0 DUP7 ADD MSTORE PUSH2 0x33A9 DUP3 DUP3 PUSH2 0x32A7 JUMP JUMPDEST SWAP2 POP POP PUSH1 0x20 DUP4 ADD MLOAD DUP5 DUP3 SUB PUSH1 0x20 DUP7 ADD MSTORE PUSH2 0x33C3 DUP3 DUP3 PUSH2 0x32A7 JUMP JUMPDEST SWAP2 POP POP PUSH1 0x40 DUP4 ADD MLOAD DUP5 DUP3 SUB PUSH1 0x40 DUP7 ADD MSTORE PUSH2 0x33DD DUP3 DUP3 PUSH2 0x32A7 JUMP JUMPDEST SWAP2 POP POP DUP1 SWAP2 POP POP SWAP3 SWAP2 POP POP JUMP JUMPDEST PUSH1 0x0 PUSH1 0x80 DUP4 ADD PUSH1 0x0 DUP4 ADD MLOAD DUP5 DUP3 SUB PUSH1 0x0 DUP7 ADD MSTORE PUSH2 0x3407 DUP3 DUP3 PUSH2 0x32A7 JUMP JUMPDEST SWAP2 POP POP PUSH1 0x20 DUP4 ADD MLOAD DUP5 DUP3 SUB PUSH1 0x20 DUP7 ADD MSTORE PUSH2 0x3421 DUP3 DUP3 PUSH2 0x32A7 JUMP JUMPDEST SWAP2 POP POP PUSH1 0x40 DUP4 ADD MLOAD DUP5 DUP3 SUB PUSH1 0x40 DUP7 ADD MSTORE PUSH2 0x343B DUP3 DUP3 PUSH2 0x32A7 JUMP JUMPDEST SWAP2 POP POP PUSH1 0x60 DUP4 ADD MLOAD DUP5 DUP3 SUB PUSH1 0x60 DUP7 ADD MSTORE PUSH2 0x3455 DUP3 DUP3 PUSH2 0x32A7 JUMP JUMPDEST SWAP2 POP POP DUP1 SWAP2 POP POP SWAP3 SWAP2 POP POP JUMP JUMPDEST PUSH1 0x0 PUSH1 0x80 DUP3 ADD SWAP1 POP DUP2 DUP2 SUB PUSH1 0x0 DUP4 ADD MSTORE PUSH2 0x347C DUP2 DUP8 PUSH2 0x32E0 JUMP JUMPDEST SWAP1 POP DUP2 DUP2 SUB PUSH1 0x20 DUP4 ADD MSTORE PUSH2 0x3490 DUP2 DUP7 PUSH2 0x338C JUMP JUMPDEST SWAP1 POP DUP2 DUP2 SUB PUSH1 0x40 DUP4 ADD MSTORE PUSH2 0x34A4 DUP2 DUP6 PUSH2 0x33EA JUMP JUMPDEST SWAP1 POP PUSH2 0x34B3 PUSH1 0x60 DUP4 ADD DUP5 PUSH2 0x319F JUMP JUMPDEST SWAP6 SWAP5 POP POP POP POP POP JUMP JUMPDEST PUSH1 0x0 DUP1 REVERT JUMPDEST PUSH1 0x0 DUP1 REVERT JUMPDEST PUSH32 0x4E487B7100000000000000000000000000000000000000000000000000000000 PUSH1 0x0 MSTORE PUSH1 0x41 PUSH1 0x4 MSTORE PUSH1 0x24 PUSH1 0x0 REVERT JUMPDEST PUSH2 0x34FE DUP3 PUSH2 0x3149 JUMP JUMPDEST DUP2 ADD DUP2 DUP2 LT PUSH8 0xFFFFFFFFFFFFFFFF DUP3 GT OR ISZERO PUSH2 0x351D JUMPI PUSH2 0x351C PUSH2 0x34C6 JUMP JUMPDEST JUMPDEST DUP1 PUSH1 0x40 MSTORE POP POP POP JUMP JUMPDEST PUSH1 0x0 PUSH2 0x3530 PUSH2 0x301B JUMP JUMPDEST SWAP1 POP PUSH2 0x353C DUP3 DUP3 PUSH2 0x34F5 JUMP JUMPDEST SWAP2 SWAP1 POP JUMP JUMPDEST PUSH1 0x0 PUSH8 0xFFFFFFFFFFFFFFFF DUP3 GT ISZERO PUSH2 0x355C JUMPI PUSH2 0x355B PUSH2 0x34C6 JUMP JUMPDEST JUMPDEST PUSH2 0x3565 DUP3 PUSH2 0x3149 JUMP JUMPDEST SWAP1 POP PUSH1 0x20 DUP2 ADD SWAP1 POP SWAP2 SWAP1 POP JUMP JUMPDEST DUP3 DUP2 DUP4 CALLDATACOPY PUSH1 0x0 DUP4 DUP4 ADD MSTORE POP POP POP JUMP JUMPDEST PUSH1 0x0 PUSH2 0x3594 PUSH2 0x358F DUP5 PUSH2 0x3541 JUMP JUMPDEST PUSH2 0x3526 JUMP JUMPDEST SWAP1 POP DUP3 DUP2 MSTORE PUSH1 0x20 DUP2 ADD DUP5 DUP5 DUP5 ADD GT ISZERO PUSH2 0x35B0 JUMPI PUSH2 0x35AF PUSH2 0x34C1 JUMP JUMPDEST JUMPDEST PUSH2 0x35BB DUP5 DUP3 DUP6 PUSH2 0x3572 JUMP JUMPDEST POP SWAP4 SWAP3 POP POP POP JUMP JUMPDEST PUSH1 0x0 DUP3 PUSH1 0x1F DUP4 ADD SLT PUSH2 0x35D8 JUMPI PUSH2 0x35D7 PUSH2 0x34BC JUMP JUMPDEST JUMPDEST DUP2 CALLDATALOAD PUSH2 0x35E8 DUP5 DUP3 PUSH1 0x20 DUP7 ADD PUSH2 0x3581 JUMP JUMPDEST SWAP2 POP POP SWAP3 SWAP2 POP POP JUMP JUMPDEST PUSH1 0x0 DUP1 PUSH1 0x0 DUP1 PUSH1 0x80 DUP6 DUP8 SUB SLT ISZERO PUSH2 0x360B JUMPI PUSH2 0x360A PUSH2 0x3025 JUMP JUMPDEST JUMPDEST PUSH1 0x0 DUP6 ADD CALLDATALOAD PUSH8 0xFFFFFFFFFFFFFFFF DUP2 GT ISZERO PUSH2 0x3629 JUMPI PUSH2 0x3628 PUSH2 0x302A JUMP JUMPDEST JUMPDEST PUSH2 0x3635 DUP8 DUP3 DUP9 ADD PUSH2 0x35C3 JUMP JUMPDEST SWAP5 POP POP PUSH1 0x20 DUP6 ADD CALLDATALOAD PUSH8 0xFFFFFFFFFFFFFFFF DUP2 GT ISZERO PUSH2 0x3656 JUMPI PUSH2 0x3655 PUSH2 0x302A JUMP JUMPDEST JUMPDEST PUSH2 0x3662 DUP8 DUP3 DUP9 ADD PUSH2 0x35C3 JUMP JUMPDEST SWAP4 POP POP PUSH1 0x40 DUP6 ADD CALLDATALOAD PUSH8 0xFFFFFFFFFFFFFFFF DUP2 GT ISZERO PUSH2 0x3683 JUMPI PUSH2 0x3682 PUSH2 0x302A JUMP JUMPDEST JUMPDEST PUSH2 0x368F DUP8 DUP3 DUP9 ADD PUSH2 0x35C3 JUMP JUMPDEST SWAP3 POP POP PUSH1 0x60 DUP6 ADD CALLDATALOAD PUSH8 0xFFFFFFFFFFFFFFFF DUP2 GT ISZERO PUSH2 0x36B0 JUMPI PUSH2 0x36AF PUSH2 0x302A JUMP JUMPDEST JUMPDEST PUSH2 0x36BC DUP8 DUP3 DUP9 ADD PUSH2 0x35C3 JUMP JUMPDEST SWAP2 POP POP SWAP3 SWAP6 SWAP2 SWAP5 POP SWAP3 POP JUMP JUMPDEST PUSH1 0x0 PUSH1 0xC0 DUP3 ADD SWAP1 POP DUP2 DUP2 SUB PUSH1 0x0 DUP4 ADD MSTORE PUSH2 0x36E2 DUP2 DUP10 PUSH2 0x315A JUMP JUMPDEST SWAP1 POP DUP2 DUP2 SUB PUSH1 0x20 DUP4 ADD MSTORE PUSH2 0x36F6 DUP2 DUP9 PUSH2 0x315A JUMP JUMPDEST SWAP1 POP DUP2 DUP2 SUB PUSH1 0x40 DUP4 ADD MSTORE PUSH2 0x370A DUP2 DUP8 PUSH2 0x315A JUMP JUMPDEST SWAP1 POP DUP2 DUP2 SUB PUSH1 0x60 DUP4 ADD MSTORE PUSH2 0x371E DUP2 DUP7 PUSH2 0x315A JUMP JUMPDEST SWAP1 POP DUP2 DUP2 SUB PUSH1 0x80 DUP4 ADD MSTORE PUSH2 0x3732 DUP2 DUP6 PUSH2 0x315A JUMP JUMPDEST SWAP1 POP DUP2 DUP2 SUB PUSH1 0xA0 DUP4 ADD MSTORE PUSH2 0x3746 DUP2 DUP5 PUSH2 0x315A JUMP JUMPDEST SWAP1 POP SWAP8 SWAP7 POP POP POP POP POP POP POP JUMP JUMPDEST PUSH1 0x0 PUSH1 0x20 DUP3 ADD SWAP1 POP PUSH2 0x3768 PUSH1 0x0 DUP4 ADD DUP5 PUSH2 0x319F JUMP JUMPDEST SWAP3 SWAP2 POP POP JUMP JUMPDEST PUSH1 0x0 PUSH1 0x80 DUP3 ADD SWAP1 POP DUP2 DUP2 SUB PUSH1 0x0 DUP4 ADD MSTORE PUSH2 0x3788 DUP2 DUP8 PUSH2 0x315A JUMP JUMPDEST SWAP1 POP DUP2 DUP2 SUB PUSH1 0x20 DUP4 ADD MSTORE PUSH2 0x379C DUP2 DUP7 PUSH2 0x315A JUMP JUMPDEST SWAP1 POP DUP2 DUP2 SUB PUSH1 0x40 DUP4 ADD MSTORE PUSH2 0x37B0 DUP2 DUP6 PUSH2 0x315A JUMP JUMPDEST SWAP1 POP DUP2 DUP2 SUB PUSH1 0x60 DUP4 ADD MSTORE PUSH2 0x37C4 DUP2 DUP5 PUSH2 0x315A JUMP JUMPDEST SWAP1 POP SWAP6 SWAP5 POP POP POP POP POP JUMP JUMPDEST PUSH1 0x0 DUP1 PUSH1 0x0 DUP1 PUSH1 0x0 DUP1 PUSH1 0xC0 DUP8 DUP10 SUB SLT ISZERO PUSH2 0x37EC JUMPI PUSH2 0x37EB PUSH2 0x3025 JUMP JUMPDEST JUMPDEST PUSH1 0x0 DUP8 ADD CALLDATALOAD PUSH8 0xFFFFFFFFFFFFFFFF DUP2 GT ISZERO PUSH2 0x380A JUMPI PUSH2 0x3809 PUSH2 0x302A JUMP JUMPDEST JUMPDEST PUSH2 0x3816 DUP10 DUP3 DUP11 ADD PUSH2 0x35C3 JUMP JUMPDEST SWAP7 POP POP PUSH1 0x20 DUP8 ADD CALLDATALOAD PUSH8 0xFFFFFFFFFFFFFFFF DUP2 GT ISZERO PUSH2 0x3837 JUMPI PUSH2 0x3836 PUSH2 0x302A JUMP JUMPDEST JUMPDEST PUSH2 0x3843 DUP10 DUP3 DUP11 ADD PUSH2 0x35C3 JUMP JUMPDEST SWAP6 POP POP PUSH1 0x40 DUP8 ADD CALLDATALOAD PUSH8 0xFFFFFFFFFFFFFFFF DUP2 GT ISZERO PUSH2 0x3864 JUMPI PUSH2 0x3863 PUSH2 0x302A JUMP JUMPDEST JUMPDEST PUSH2 0x3870 DUP10 DUP3 DUP11 ADD PUSH2 0x35C3 JUMP JUMPDEST SWAP5 POP POP PUSH1 0x60 DUP8 ADD CALLDATALOAD PUSH8 0xFFFFFFFFFFFFFFFF DUP2 GT ISZERO PUSH2 0x3891 JUMPI PUSH2 0x3890 PUSH2 0x302A JUMP JUMPDEST JUMPDEST PUSH2 0x389D DUP10 DUP3 DUP11 ADD PUSH2 0x35C3 JUMP JUMPDEST SWAP4 POP POP PUSH1 0x80 DUP8 ADD CALLDATALOAD PUSH8 0xFFFFFFFFFFFFFFFF DUP2 GT ISZERO PUSH2 0x38BE JUMPI PUSH2 0x38BD PUSH2 0x302A JUMP JUMPDEST JUMPDEST PUSH2 0x38CA DUP10 DUP3 DUP11 ADD PUSH2 0x35C3 JUMP JUMPDEST SWAP3 POP POP PUSH1 0xA0 DUP8 ADD CALLDATALOAD PUSH8 0xFFFFFFFFFFFFFFFF DUP2 GT ISZERO PUSH2 0x38EB JUMPI PUSH2 0x38EA PUSH2 0x302A JUMP JUMPDEST JUMPDEST PUSH2 0x38F7 DUP10 DUP3 DUP11 ADD PUSH2 0x35C3 JUMP JUMPDEST SWAP2 POP POP SWAP3 SWAP6 POP SWAP3 SWAP6 POP SWAP3 SWAP6 JUMP JUMPDEST PUSH1 0x0 DUP1 PUSH1 0x0 PUSH1 0x60 DUP5 DUP7 SUB SLT ISZERO PUSH2 0x391D JUMPI PUSH2 0x391C PUSH2 0x3025 JUMP JUMPDEST JUMPDEST PUSH1 0x0 DUP5 ADD CALLDATALOAD PUSH8 0xFFFFFFFFFFFFFFFF DUP2 GT ISZERO PUSH2 0x393B JUMPI PUSH2 0x393A PUSH2 0x302A JUMP JUMPDEST JUMPDEST PUSH2 0x3947 DUP7 DUP3 DUP8 ADD PUSH2 0x35C3 JUMP JUMPDEST SWAP4 POP POP PUSH1 0x20 DUP5 ADD CALLDATALOAD PUSH8 0xFFFFFFFFFFFFFFFF DUP2 GT ISZERO PUSH2 0x3968 JUMPI PUSH2 0x3967 PUSH2 0x302A JUMP JUMPDEST JUMPDEST PUSH2 0x3974 DUP7 DUP3 DUP8 ADD PUSH2 0x35C3 JUMP JUMPDEST SWAP3 POP POP PUSH1 0x40 DUP5 ADD CALLDATALOAD PUSH8 0xFFFFFFFFFFFFFFFF DUP2 GT ISZERO PUSH2 0x3995 JUMPI PUSH2 0x3994 PUSH2 0x302A JUMP JUMPDEST JUMPDEST PUSH2 0x39A1 DUP7 DUP3 DUP8 ADD PUSH2 0x35C3 JUMP JUMPDEST SWAP2 POP POP SWAP3 POP SWAP3 POP SWAP3 JUMP JUMPDEST PUSH2 0x39B4 DUP2 PUSH2 0x308D JUMP JUMPDEST DUP3 MSTORE POP POP JUMP JUMPDEST PUSH1 0x0 PUSH1 0x20 DUP3 ADD SWAP1 POP PUSH2 0x39CF PUSH1 0x0 DUP4 ADD DUP5 PUSH2 0x39AB JUMP JUMPDEST SWAP3 SWAP2 POP POP JUMP JUMPDEST PUSH32 0x4E487B7100000000000000000000000000000000000000000000000000000000 PUSH1 0x0 MSTORE PUSH1 0x22 PUSH1 0x4 MSTORE PUSH1 0x24 PUSH1 0x0 REVERT JUMPDEST PUSH1 0x0 PUSH1 0x2 DUP3 DIV SWAP1 POP PUSH1 0x1 DUP3 AND DUP1 PUSH2 0x3A1C JUMPI PUSH1 0x7F DUP3 AND SWAP2 POP JUMPDEST PUSH1 0x20 DUP3 LT DUP2 SUB PUSH2 0x3A2F JUMPI PUSH2 0x3A2E PUSH2 0x39D5 JUMP JUMPDEST JUMPDEST POP SWAP2 SWAP1 POP JUMP JUMPDEST PUSH32 0x50726F66696C6520646F6573206E6F7420657869737400000000000000000000 PUSH1 0x0 DUP3 ADD MSTORE POP JUMP JUMPDEST PUSH1 0x0 PUSH2 0x3A6B PUSH1 0x16 DUP4 PUSH2 0x310E JUMP JUMPDEST SWAP2 POP PUSH2 0x3A76 DUP3 PUSH2 0x3A35 JUMP JUMPDEST PUSH1 0x20 DUP3 ADD SWAP1 POP SWAP2 SWAP1 POP JUMP JUMPDEST PUSH1 0x0 PUSH1 0x20 DUP3 ADD SWAP1 POP DUP2 DUP2 SUB PUSH1 0x0 DUP4 ADD MSTORE PUSH2 0x3A9A DUP2 PUSH2 0x3A5E JUMP JUMPDEST SWAP1 POP SWAP2 SWAP1 POP JUMP JUMPDEST PUSH1 0x0 DUP2 SWAP1 POP DUP2 PUSH1 0x0 MSTORE PUSH1 0x20 PUSH1 0x0 KECCAK256 SWAP1 POP SWAP2 SWAP1 POP JUMP JUMPDEST PUSH1 0x0 PUSH1 0x20 PUSH1 0x1F DUP4 ADD DIV SWAP1 POP SWAP2 SWAP1 POP JUMP JUMPDEST PUSH1 0x0 DUP3 DUP3 SHL SWAP1 POP SWAP3 SWAP2 POP POP JUMP JUMPDEST PUSH1 0x0 PUSH1 0x8 DUP4 MUL PUSH2 0x3B03 PUSH32 0xFFFFFFFFFFFFFFFFFFFFFFFFFFFFFFFFFFFFFFFFFFFFFFFFFFFFFFFFFFFFFFFF DUP3 PUSH2 0x3AC6 JUMP JUMPDEST PUSH2 0x3B0D DUP7 DUP4 PUSH2 0x3AC6 JUMP JUMPDEST SWAP6 POP DUP1 NOT DUP5 AND SWAP4 POP DUP1 DUP7 AND DUP5 OR SWAP3 POP POP POP SWAP4 SWAP3 POP POP POP JUMP JUMPDEST PUSH1 0x0 DUP2 SWAP1 POP SWAP2 SWAP1 POP JUMP JUMPDEST PUSH1 0x0 PUSH2 0x3B4A PUSH2 0x3B45 PUSH2 0x3B40 DUP5 PUSH2 0x308D JUMP JUMPDEST PUSH2 0x3B25 JUMP JUMPDEST PUSH2 0x308D JUMP JUMPDEST SWAP1 POP SWAP2 SWAP1 POP JUMP JUMPDEST PUSH1 0x0 DUP2 SWAP1 POP SWAP2 SWAP1 POP JUMP JUMPDEST PUSH2 0x3B64 DUP4 PUSH2 0x3B2F JUMP JUMPDEST PUSH2 0x3B78 PUSH2 0x3B70 DUP3 PUSH2 0x3B51 JUMP JUMPDEST DUP5 DUP5 SLOAD PUSH2 0x3AD3 JUMP JUMPDEST DUP3 SSTORE POP POP POP POP JUMP JUMPDEST PUSH1 0x0 SWAP1 JUMP JUMPDEST PUSH2 0x3B8D PUSH2 0x3B80 JUMP JUMPDEST PUSH2 0x3B98 DUP2 DUP5 DUP5 PUSH2 0x3B5B JUMP JUMPDEST POP POP POP JUMP JUMPDEST JUMPDEST DUP2 DUP2 LT ISZERO PUSH2 0x3BBC JUMPI PUSH2 0x3BB1 PUSH1 0x0 DUP3 PUSH2 0x3B85 JUMP JUMPDEST PUSH1 0x1 DUP2 ADD SWAP1 POP PUSH2 0x3B9E JUMP JUMPDEST POP POP JUMP JUMPDEST PUSH1 0x1F DUP3 GT ISZERO PUSH2 0x3C01 JUMPI PUSH2 0x3BD2 DUP2 PUSH2 0x3AA1 JUMP JUMPDEST PUSH2 0x3BDB DUP5 PUSH2 0x3AB6 JUMP JUMPDEST DUP2 ADD PUSH1 0x20 DUP6 LT ISZERO PUSH2 0x3BEA JUMPI DUP2 SWAP1 POP JUMPDEST PUSH2 0x3BFE PUSH2 0x3BF6 DUP6 PUSH2 0x3AB6 JUMP JUMPDEST DUP4 ADD DUP3 PUSH2 0x3B9D JUMP JUMPDEST POP POP JUMPDEST POP POP POP JUMP JUMPDEST PUSH1 0x0 DUP3 DUP3 SHR SWAP1 POP SWAP3 SWAP2 POP POP JUMP JUMPDEST PUSH1 0x0 PUSH2 0x3C24 PUSH1 0x0 NOT DUP5 PUSH1 0x8 MUL PUSH2 0x3C06 JUMP JUMPDEST NOT DUP1 DUP4 AND SWAP2 POP POP SWAP3 SWAP2 POP POP JUMP JUMPDEST PUSH1 0x0 PUSH2 0x3C3D DUP4 DUP4 PUSH2 0x3C13 JUMP JUMPDEST SWAP2 POP DUP3 PUSH1 0x2 MUL DUP3 OR SWAP1 POP SWAP3 SWAP2 POP POP JUMP JUMPDEST PUSH2 0x3C56 DUP3 PUSH2 0x3103 JUMP JUMPDEST PUSH8 0xFFFFFFFFFFFFFFFF DUP2 GT ISZERO PUSH2 0x3C6F JUMPI PUSH2 0x3C6E PUSH2 0x34C6 JUMP JUMPDEST JUMPDEST PUSH2 0x3C79 DUP3 SLOAD PUSH2 0x3A04 JUMP JUMPDEST PUSH2 0x3C84 DUP3 DUP3 DUP6 PUSH2 0x3BC0 JUMP JUMPDEST PUSH1 0x0 PUSH1 0x20 SWAP1 POP PUSH1 0x1F DUP4 GT PUSH1 0x1 DUP2 EQ PUSH2 0x3CB7 JUMPI PUSH1 0x0 DUP5 ISZERO PUSH2 0x3CA5 JUMPI DUP3 DUP8 ADD MLOAD SWAP1 POP JUMPDEST PUSH2 0x3CAF DUP6 DUP3 PUSH2 0x3C31 JUMP JUMPDEST DUP7 SSTORE POP PUSH2 0x3D17 JUMP JUMPDEST PUSH1 0x1F NOT DUP5 AND PUSH2 0x3CC5 DUP7 PUSH2 0x3AA1 JUMP JUMPDEST PUSH1 0x0 JUMPDEST DUP3 DUP2 LT ISZERO PUSH2 0x3CED JUMPI DUP5 DUP10 ADD MLOAD DUP3 SSTORE PUSH1 0x1 DUP3 ADD SWAP2 POP PUSH1 0x20 DUP6 ADD SWAP5 POP PUSH1 0x20 DUP2 ADD SWAP1 POP PUSH2 0x3CC8 JUMP JUMPDEST DUP7 DUP4 LT ISZERO PUSH2 0x3D0A JUMPI DUP5 DUP10 ADD MLOAD PUSH2 0x3D06 PUSH1 0x1F DUP10 AND DUP3 PUSH2 0x3C13 JUMP JUMPDEST DUP4 SSTORE POP JUMPDEST PUSH1 0x1 PUSH1 0x2 DUP9 MUL ADD DUP9 SSTORE POP POP POP JUMPDEST POP POP POP POP POP POP JUMP JUMPDEST PUSH1 0x0 DUP2 SLOAD PUSH2 0x3D2C DUP2 PUSH2 0x3A04 JUMP JUMPDEST PUSH2 0x3D36 DUP2 DUP7 PUSH2 0x310E JUMP JUMPDEST SWAP5 POP PUSH1 0x1 DUP3 AND PUSH1 0x0 DUP2 EQ PUSH2 0x3D51 JUMPI PUSH1 0x1 DUP2 EQ PUSH2 0x3D67 JUMPI PUSH2 0x3D9A JUMP JUMPDEST PUSH1 0xFF NOT DUP4 AND DUP7 MSTORE DUP2 ISZERO ISZERO PUSH1 0x20 MUL DUP7 ADD SWAP4 POP PUSH2 0x3D9A JUMP JUMPDEST PUSH2 0x3D70 DUP6 PUSH2 0x3AA1 JUMP JUMPDEST PUSH1 0x0 JUMPDEST DUP4 DUP2 LT ISZERO PUSH2 0x3D92 JUMPI DUP2 SLOAD DUP2 DUP10 ADD MSTORE PUSH1 0x1 DUP3 ADD SWAP2 POP PUSH1 0x20 DUP2 ADD SWAP1 POP PUSH2 0x3D73 JUMP JUMPDEST DUP1 DUP9 ADD SWAP6 POP POP POP JUMPDEST POP POP POP SWAP3 SWAP2 POP POP JUMP JUMPDEST PUSH1 0x0 PUSH1 0x20 DUP3 ADD SWAP1 POP DUP2 DUP2 SUB PUSH1 0x0 DUP4 ADD MSTORE PUSH2 0x3DBD DUP2 DUP5 PUSH2 0x3D1F JUMP JUMPDEST SWAP1 POP SWAP3 SWAP2 POP POP JUMP JUMPDEST PUSH1 0x0 PUSH1 0x40 DUP3 ADD SWAP1 POP DUP2 DUP2 SUB PUSH1 0x0 DUP4 ADD MSTORE PUSH2 0x3DDF DUP2 DUP6 PUSH2 0x315A JUMP JUMPDEST SWAP1 POP DUP2 DUP2 SUB PUSH1 0x20 DUP4 ADD MSTORE PUSH2 0x3DF3 DUP2 DUP5 PUSH2 0x315A JUMP JUMPDEST SWAP1 POP SWAP4 SWAP3 POP POP POP JUMP JUMPDEST PUSH32 0x436572746966696361746520646F6573206E6F74206578697374000000000000 PUSH1 0x0 DUP3 ADD MSTORE POP JUMP JUMPDEST PUSH1 0x0 PUSH2 0x3E32 PUSH1 0x1A DUP4 PUSH2 0x310E JUMP JUMPDEST SWAP2 POP PUSH2 0x3E3D DUP3 PUSH2 0x3DFC JUMP JUMPDEST PUSH1 0x20 DUP3 ADD SWAP1 POP SWAP2 SWAP1 POP JUMP JUMPDEST PUSH1 0x0 PUSH1 0x20 DUP3 ADD SWAP1 POP DUP2 DUP2 SUB PUSH1 0x0 DUP4 ADD MSTORE PUSH2 0x3E61 DUP2 PUSH2 0x3E25 JUMP JUMPDEST SWAP1 POP SWAP2 SWAP1 POP JUMP JUMPDEST PUSH32 0x4E487B7100000000000000000000000000000000000000000000000000000000 PUSH1 0x0 MSTORE PUSH1 0x32 PUSH1 0x4 MSTORE PUSH1 0x24 PUSH1 0x0 REVERT JUMPDEST PUSH1 0x0 PUSH1 0x20 DUP3 ADD SWAP1 POP DUP2 DUP2 SUB PUSH1 0x0 DUP4 ADD MSTORE PUSH2 0x3EB1 DUP2 DUP5 PUSH2 0x315A JUMP JUMPDEST SWAP1 POP SWAP3 SWAP2 POP POP JUMP INVALID LOG2 PUSH5 0x6970667358 0x22 SLT KECCAK256 0xB4 0xEE 0xEA DIFFICULTY 0xC3 MUL SMOD DIV 0xB1 POP KECCAK256 PUSH31 0xEA0284F868B90C88B156C71E73E3D5622889EF4464736F6C63430008110033 "},"methodIdentifiers":{"addCertificate(string,string,string,string)":"72c44638","getCertificate(address,uint256)":"817bb331","getCertificateCount(address)":"b1d5ccf8","getUserBasicInfo(address)":"4a2ff37e","getUserProfessionalInfo(address)":"0d54d50e","getUserSocialInfo(address)":"5e26111d","setUserBasicInfo(string,string,string,string,string,string)":"9382b61c","setUserProfessionalInfo(string,string,string)":"aa40c368","setUserSocialInfo(string,string,string,string)":"41cc2215","userCertificates(address,uint256)":"0175f889","userProfileExists(address)":"5215608b","userProfiles(address)":"332d56d7"}}}}}