{
  "_format": "hh-sol-artifact-1",
  "contractName": "EPortfolio",
  "sourceName": "contracts/EPortfolio.sol",
  "abi": [
    {
      "anonymous": false,
      "inputs": [
        {
          "indexed": true,
          "internalType": "address",
          "name": "user",
          "type": "address"
        },
        {
          "indexed": false,
          "internalType": "string",
          "name": "name",
          "type": "string"
        },
        {
          "indexed": false,
          "internalType": "string",
          "name": "issuer",
          "type": "string"
        }
      ],
      "name": "CertificateAdded",
      "type": "event"
    },
    {
      "anonymous": false,
      "inputs": [
        {
          "indexed": true,
          "internalType": "address",
          "name": "user",
          "type": "address"
        },
        {
          "indexed": false,
          "internalType": "string",
          "name": "name",
          "type": "string"
        }
      ],
      "name": "ProfileCreated",
      "type": "event"
    },
    {
      "anonymous": false,
      "inputs": [
        {
          "indexed": true,
          "internalType": "address",
          "name": "user",
          "type": "address"
        },
        {
          "indexed": false,
          "internalType": "string",
          "name": "name",
          "type": "string"
        }
      ],
      "name": "ProfileUpdated",
      "type": "event"
    },
    {
      "inputs": [
        {
          "internalType": "string",
          "name": "_name",
          "type": "string"
        },
        {
          "internalType": "string",
          "name": "_issuer",
          "type": "string"
        },
        {
          "internalType": "string",
          "name": "_date",
          "type": "string"
        },
        {
          "internalType": "string",
          "name": "_cid",
          "type": "string"
        }
      ],
      "name": "addCertificate",
      "outputs": [],
      "stateMutability": "nonpayable",
      "type": "function"
    },
    {
      "inputs": [
        {
          "internalType": "address",
          "name": "_user",
          "type": "address"
        },
        {
          "internalType": "uint256",
          "name": "_index",
          "type": "uint256"
        }
      ],
      "name": "getCertificate",
      "outputs": [
        {
          "internalType": "string",
          "name": "name",
          "type": "string"
        },
        {
          "internalType": "string",
          "name": "issuer",
          "type": "string"
        },
        {
          "internalType": "string",
          "name": "date",
          "type": "string"
        },
        {
          "internalType": "string",
          "name": "cid",
          "type": "string"
        },
        {
          "internalType": "bool",
          "name": "verified",
          "type": "bool"
        }
      ],
      "stateMutability": "view",
      "type": "function"
    },
    {
      "inputs": [
        {
          "internalType": "address",
          "name": "_user",
          "type": "address"
        }
      ],
      "name": "getCertificateCount",
      "outputs": [
        {
          "internalType": "uint256",
          "name": "",
          "type": "uint256"
        }
      ],
      "stateMutability": "view",
      "type": "function"
    },
    {
      "inputs": [
        {
          "internalType": "address",
          "name": "_user",
          "type": "address"
        }
      ],
      "name": "getUserBasicInfo",
      "outputs": [
        {
          "internalType": "string",
          "name": "name",
          "type": "string"
        },
        {
          "internalType": "string",
          "name": "title",
          "type": "string"
        },
        {
          "internalType": "string",
          "name": "email",
          "type": "string"
        },
        {
          "internalType": "string",
          "name": "phone",
          "type": "string"
        },
        {
          "internalType": "string",
          "name": "location",
          "type": "string"
        },
        {
          "internalType": "string",
          "name": "bio",
          "type": "string"
        }
      ],
      "stateMutability": "view",
      "type": "function"
    },
    {
      "inputs": [
        {
          "internalType": "address",
          "name": "_user",
          "type": "address"
        }
      ],
      "name": "getUserProfessionalInfo",
      "outputs": [
        {
          "internalType": "string",
          "name": "skills",
          "type": "string"
        },
        {
          "internalType": "string",
          "name": "education",
          "type": "string"
        },
        {
          "internalType": "string",
          "name": "experience",
          "type": "string"
        }
      ],
      "stateMutability": "view",
      "type": "function"
    },
    {
      "inputs": [
        {
          "internalType": "address",
          "name": "_user",
          "type": "address"
        }
      ],
      "name": "getUserSocialInfo",
      "outputs": [
        {
          "internalType": "string",
          "name": "linkedinUrl",
          "type": "string"
        },
        {
          "internalType": "string",
          "name": "githubUrl",
          "type": "string"
        },
        {
          "internalType": "string",
          "name": "websiteUrl",
          "type": "string"
        },
        {
          "internalType": "string",
          "name": "profilePicCid",
          "type": "string"
        }
      ],
      "stateMutability": "view",
      "type": "function"
    },
    {
      "inputs": [
        {
          "internalType": "string",
          "name": "_name",
          "type": "string"
        },
        {
          "internalType": "string",
          "name": "_title",
          "type": "string"
        },
        {
          "internalType": "string",
          "name": "_email",
          "type": "string"
        },
        {
          "internalType": "string",
          "name": "_phone",
          "type": "string"
        },
        {
          "internalType": "string",
          "name": "_location",
          "type": "string"
        },
        {
          "internalType": "string",
          "name": "_bio",
          "type": "string"
        }
      ],
      "name": "setUserBasicInfo",
      "outputs": [],
      "stateMutability": "nonpayable",
      "type": "function"
    },
    {
      "inputs": [
        {
          "internalType": "string",
          "name": "_skills",
          "type": "string"
        },
        {
          "internalType": "string",
          "name": "_education",
          "type": "string"
        },
        {
          "internalType": "string",
          "name": "_experience",
          "type": "string"
        }
      ],
      "name": "setUserProfessionalInfo",
      "outputs": [],
      "stateMutability": "nonpayable",
      "type": "function"
    },
    {
      "inputs": [
        {
          "internalType": "string",
          "name": "_linkedinUrl",
          "type": "string"
        },
        {
          "internalType": "string",
          "name": "_githubUrl",
          "type": "string"
        },
        {
          "internalType": "string",
          "name": "_websiteUrl",
          "type": "string"
        },
        {
          "internalType": "string",
          "name": "_profilePicCid",
          "type": "string"
        }
      ],
      "name": "setUserSocialInfo",
      "outputs": [],
      "stateMutability": "nonpayable",
      "type": "function"
    },
    {
      "inputs": [
        {
          "internalType": "address",
          "name": "",
          "type": "address"
        },
        {
          "internalType": "uint256",
          "name": "",
          "type": "uint256"
        }
      ],
      "name": "userCertificates",
      "outputs": [
        {
          "internalType": "string",
          "name": "name",
          "type": "string"
        },
        {
          "internalType": "string",
          "name": "issuer",
          "type": "string"
        },
        {
          "internalType": "string",
          "name": "date",
          "type": "string"
        },
        {
          "internalType": "string",
          "name": "cid",
          "type": "string"
        },
        {
          "internalType": "bool",
          "name": "verified",
          "type": "bool"
        }
      ],
      "stateMutability": "view",
      "type": "function"
    },
    {
      "inputs": [
        {
          "internalType": "address",
          "name": "_user",
          "type": "address"
        }
      ],
      "name": "userProfileExists",
      "outputs": [
        {
          "internalType": "bool",
          "name": "",
          "type": "bool"
        }
      ],
      "stateMutability": "view",
      "type": "function"
    },
    {
      "inputs": [
        {
          "internalType": "address",
          "name": "",
          "type": "address"
        }
      ],
      "name": "userProfiles",
      "outputs": [
        {
          "components": [
            {
              "internalType": "string",
              "name": "name",
              "type": "string"
            },
            {
              "internalType": "string",
              "name": "title",
              "type": "string"
            },
            {
              "internalType": "string",
              "name": "email",
              "type": "string"
            },
            {
              "internalType": "string",
              "name": "phone",
              "type": "string"
            },
            {
              "internalType": "string",
              "name": "location",
              "type": "string"
            },
            {
              "internalType": "string",
              "name": "bio",
              "type": "string"
            }
          ],
          "internalType": "struct EPortfolio.UserBasicInfo",
          "name": "basicInfo",
          "type": "tuple"
        },
        {
          "components": [
            {
              "internalType": "string",
              "name": "skills",
              "type": "string"
            },
            {
              "internalType": "string",
              "name": "education",
              "type": "string"
            },
            {
              "internalType": "string",
              "name": "experience",
              "type": "string"
            }
          ],
          "internalType": "struct EPortfolio.UserProfessionalInfo",
          "name": "professionalInfo",
          "type": "tuple"
        },
        {
          "components": [
            {
              "internalType": "string",
              "name": "linkedinUrl",
              "type": "string"
            },
            {
              "internalType": "string",
              "name": "githubUrl",
              "type": "string"
            },
            {
              "internalType": "string",
              "name": "websiteUrl",
              "type": "string"
            },
            {
              "internalType": "string",
              "name": "profilePicCid",
              "type": "string"
            }
          ],
          "internalType": "struct EPortfolio.UserSocialInfo",
          "name": "socialInfo",
          "type": "tuple"
        },
        {
          "internalType": "bool",
          "name": "exists",
          "type": "bool"
        }
      ],
      "stateMutability": "view",
      "type": "function"
    }
  ],
  "bytecode": "0x608060405234801561001057600080fd5b50613eef806100206000396000f3fe608060405234801561001057600080fd5b50600436106100b45760003560e01c80635e26111d116100715780635e26111d146101d357806372c4463814610206578063817bb331146102225780639382b61c14610256578063aa40c36814610272578063b1d5ccf81461028e576100b4565b80630175f889146100b95780630d54d50e146100ed578063332d56d71461011f57806341cc2215146101525780634a2ff37e1461016e5780635215608b146101a3575b600080fd5b6100d360048036038101906100ce91906130c3565b6102be565b6040516100e49594939291906131ae565b60405180910390f35b6101076004803603810190610102919061321d565b61053e565b6040516101169392919061324a565b60405180910390f35b6101396004803603810190610134919061321d565b610d7a565b6040516101499493929190613462565b60405180910390f35b61016c600480360381019061016791906135f1565b61153f565b005b6101886004803603810190610183919061321d565b611681565b60405161019a969594939291906136c8565b60405180910390f35b6101bd60048036038101906101b8919061321d565b611ee4565b6040516101ca9190613753565b60405180910390f35b6101ed60048036038101906101e8919061321d565b611f3c565b6040516101fd949392919061376e565b60405180910390f35b610220600480360381019061021b91906135f1565b612784565b005b61023c600480360381019061023791906130c3565b61297a565b60405161024d9594939291906131ae565b60405180910390f35b610270600480360381019061026b91906137cf565b612d05565b005b61028c60048036038101906102879190613904565b612ea3565b005b6102a860048036038101906102a3919061321d565b612fcf565b6040516102b591906139ba565b60405180910390f35b600160205281600052604060002081815481106102da57600080fd5b9060005260206000209060050201600091509150508060000180546102fe90613a04565b80601f016020809104026020016040519081016040528092919081815260200182805461032a90613a04565b80156103775780601f1061034c57610100808354040283529160200191610377565b820191906000526020600020905b81548152906001019060200180831161035a57829003601f168201915b50505050509080600101805461038c90613a04565b80601f01602080910402602001604051908101604052809291908181526020018280546103b890613a04565b80156104055780601f106103da57610100808354040283529160200191610405565b820191906000526020600020905b8154815290600101906020018083116103e857829003601f168201915b50505050509080600201805461041a90613a04565b80601f016020809104026020016040519081016040528092919081815260200182805461044690613a04565b80156104935780601f1061046857610100808354040283529160200191610493565b820191906000526020600020905b81548152906001019060200180831161047657829003601f168201915b5050505050908060030180546104a890613a04565b80601f01602080910402602001604051908101604052809291908181526020018280546104d490613a04565b80156105215780601f106104f657610100808354040283529160200191610521565b820191906000526020600020905b81548152906001019060200180831161050457829003601f168201915b5050505050908060040160009054906101000a900460ff16905085565b606080606060008060008673ffffffffffffffffffffffffffffffffffffffff1673ffffffffffffffffffffffffffffffffffffffff168152602001908152602001600020604051806080016040529081600082016040518060c00160405290816000820180546105ae90613a04565b80601f01602080910402602001604051908101604052809291908181526020018280546105da90613a04565b80156106275780601f106105fc57610100808354040283529160200191610627565b820191906000526020600020905b81548152906001019060200180831161060a57829003601f168201915b5050505050815260200160018201805461064090613a04565b80601f016020809104026020016040519081016040528092919081815260200182805461066c90613a04565b80156106b95780601f1061068e576101008083540402835291602001916106b9565b820191906000526020600020905b81548152906001019060200180831161069c57829003601f168201915b505050505081526020016002820180546106d290613a04565b80601f01602080910402602001604051908101604052809291908181526020018280546106fe90613a04565b801561074b5780601f106107205761010080835404028352916020019161074b565b820191906000526020600020905b81548152906001019060200180831161072e57829003601f168201915b5050505050815260200160038201805461076490613a04565b80601f016020809104026020016040519081016040528092919081815260200182805461079090613a04565b80156107dd5780601f106107b2576101008083540402835291602001916107dd565b820191906000526020600020905b8154815290600101906020018083116107c057829003601f168201915b505050505081526020016004820180546107f690613a04565b80601f016020809104026020016040519081016040528092919081815260200182805461082290613a04565b801561086f5780601f106108445761010080835404028352916020019161086f565b820191906000526020600020905b81548152906001019060200180831161085257829003601f168201915b5050505050815260200160058201805461088890613a04565b80601f01602080910402602001604051908101604052809291908181526020018280546108b490613a04565b80156109015780601f106108d657610100808354040283529160200191610901565b820191906000526020600020905b8154815290600101906020018083116108e457829003601f168201915b50505050508152505081526020016006820160405180606001604052908160008201805461092e90613a04565b80601f016020809104026020016040519081016040528092919081815260200182805461095a90613a04565b80156109a75780601f1061097c576101008083540402835291602001916109a7565b820191906000526020600020905b81548152906001019060200180831161098a57829003601f168201915b505050505081526020016001820180546109c090613a04565b80601f01602080910402602001604051908101604052809291908181526020018280546109ec90613a04565b8015610a395780601f10610a0e57610100808354040283529160200191610a39565b820191906000526020600020905b815481529060010190602001808311610a1c57829003601f168201915b50505050508152602001600282018054610a5290613a04565b80601f0160208091040260200160405190810160405280929190818152602001828054610a7e90613a04565b8015610acb5780601f10610aa057610100808354040283529160200191610acb565b820191906000526020600020905b815481529060010190602001808311610aae57829003601f168201915b505050505081525050815260200160098201604051806080016040529081600082018054610af890613a04565b80601f0160208091040260200160405190810160405280929190818152602001828054610b2490613a04565b8015610b715780601f10610b4657610100808354040283529160200191610b71565b820191906000526020600020905b815481529060010190602001808311610b5457829003601f168201915b50505050508152602001600182018054610b8a90613a04565b80601f0160208091040260200160405190810160405280929190818152602001828054610bb690613a04565b8015610c035780601f10610bd857610100808354040283529160200191610c03565b820191906000526020600020905b815481529060010190602001808311610be657829003601f168201915b50505050508152602001600282018054610c1c90613a04565b80601f0160208091040260200160405190810160405280929190818152602001828054610c4890613a04565b8015610c955780601f10610c6a57610100808354040283529160200191610c95565b820191906000526020600020905b815481529060010190602001808311610c7857829003601f168201915b50505050508152602001600382018054610cae90613a04565b80601f0160208091040260200160405190810160405280929190818152602001828054610cda90613a04565b8015610d275780601f10610cfc57610100808354040283529160200191610d27565b820191906000526020600020905b815481529060010190602001808311610d0a57829003601f168201915b5050505050815250508152602001600d820160009054906101000a900460ff1615151515815250509050806020015160000151816020015160200151826020015160400151935093509350509193909250565b6000602052806000526040600020600091509050806000016040518060c0016040529081600082018054610dad90613a04565b80601f0160208091040260200160405190810160405280929190818152602001828054610dd990613a04565b8015610e265780601f10610dfb57610100808354040283529160200191610e26565b820191906000526020600020905b815481529060010190602001808311610e0957829003601f168201915b50505050508152602001600182018054610e3f90613a04565b80601f0160208091040260200160405190810160405280929190818152602001828054610e6b90613a04565b8015610eb85780601f10610e8d57610100808354040283529160200191610eb8565b820191906000526020600020905b815481529060010190602001808311610e9b57829003601f168201915b50505050508152602001600282018054610ed190613a04565b80601f0160208091040260200160405190810160405280929190818152602001828054610efd90613a04565b8015610f4a5780601f10610f1f57610100808354040283529160200191610f4a565b820191906000526020600020905b815481529060010190602001808311610f2d57829003601f168201915b50505050508152602001600382018054610f6390613a04565b80601f0160208091040260200160405190810160405280929190818152602001828054610f8f90613a04565b8015610fdc5780601f10610fb157610100808354040283529160200191610fdc565b820191906000526020600020905b815481529060010190602001808311610fbf57829003601f168201915b50505050508152602001600482018054610ff590613a04565b80601f016020809104026020016040519081016040528092919081815260200182805461102190613a04565b801561106e5780601f106110435761010080835404028352916020019161106e565b820191906000526020600020905b81548152906001019060200180831161105157829003601f168201915b5050505050815260200160058201805461108790613a04565b80601f01602080910402602001604051908101604052809291908181526020018280546110b390613a04565b80156111005780601f106110d557610100808354040283529160200191611100565b820191906000526020600020905b8154815290600101906020018083116110e357829003601f168201915b505050505081525050908060060160405180606001604052908160008201805461112990613a04565b80601f016020809104026020016040519081016040528092919081815260200182805461115590613a04565b80156111a25780601f10611177576101008083540402835291602001916111a2565b820191906000526020600020905b81548152906001019060200180831161118557829003601f168201915b505050505081526020016001820180546111bb90613a04565b80601f01602080910402602001604051908101604052809291908181526020018280546111e790613a04565b80156112345780601f1061120957610100808354040283529160200191611234565b820191906000526020600020905b81548152906001019060200180831161121757829003601f168201915b5050505050815260200160028201805461124d90613a04565b80601f016020809104026020016040519081016040528092919081815260200182805461127990613a04565b80156112c65780601f1061129b576101008083540402835291602001916112c6565b820191906000526020600020905b8154815290600101906020018083116112a957829003601f168201915b50505050508152505090806009016040518060800160405290816000820180546112ef90613a04565b80601f016020809104026020016040519081016040528092919081815260200182805461131b90613a04565b80156113685780601f1061133d57610100808354040283529160200191611368565b820191906000526020600020905b81548152906001019060200180831161134b57829003601f168201915b5050505050815260200160018201805461138190613a04565b80601f01602080910402602001604051908101604052809291908181526020018280546113ad90613a04565b80156113fa5780601f106113cf576101008083540402835291602001916113fa565b820191906000526020600020905b8154815290600101906020018083116113dd57829003601f168201915b5050505050815260200160028201805461141390613a04565b80601f016020809104026020016040519081016040528092919081815260200182805461143f90613a04565b801561148c5780601f106114615761010080835404028352916020019161148c565b820191906000526020600020905b81548152906001019060200180831161146f57829003601f168201915b505050505081526020016003820180546114a590613a04565b80601f01602080910402602001604051908101604052809291908181526020018280546114d190613a04565b801561151e5780601f106114f35761010080835404028352916020019161151e565b820191906000526020600020905b81548152906001019060200180831161150157829003601f168201915b5050505050815250509080600d0160009054906101000a900460ff16905084565b60008060003373ffffffffffffffffffffffffffffffffffffffff1673ffffffffffffffffffffffffffffffffffffffff168152602001908152602001600020905080600d0160009054906101000a900460ff166115d2576040517f08c379a00000000000000000000000000000000000000000000000000000000081526004016115c990613a81565b60405180910390fd5b848160090160000190816115e69190613c4d565b50838160090160010190816115fb9190613c4d565b50828160090160020190816116109190613c4d565b50818160090160030190816116259190613c4d565b503373ffffffffffffffffffffffffffffffffffffffff167fdd635a4cd84864e37e4479dbfc2ec667acfa473c83c8422a8ac9d9d07599b01c826000016000016040516116729190613da3565b60405180910390a25050505050565b60608060608060608060008060008973ffffffffffffffffffffffffffffffffffffffff1673ffffffffffffffffffffffffffffffffffffffff168152602001908152602001600020604051806080016040529081600082016040518060c00160405290816000820180546116f590613a04565b80601f016020809104026020016040519081016040528092919081815260200182805461172190613a04565b801561176e5780601f106117435761010080835404028352916020019161176e565b820191906000526020600020905b81548152906001019060200180831161175157829003601f168201915b5050505050815260200160018201805461178790613a04565b80601f01602080910402602001604051908101604052809291908181526020018280546117b390613a04565b80156118005780601f106117d557610100808354040283529160200191611800565b820191906000526020600020905b8154815290600101906020018083116117e357829003601f168201915b5050505050815260200160028201805461181990613a04565b80601f016020809104026020016040519081016040528092919081815260200182805461184590613a04565b80156118925780601f1061186757610100808354040283529160200191611892565b820191906000526020600020905b81548152906001019060200180831161187557829003601f168201915b505050505081526020016003820180546118ab90613a04565b80601f01602080910402602001604051908101604052809291908181526020018280546118d790613a04565b80156119245780601f106118f957610100808354040283529160200191611924565b820191906000526020600020905b81548152906001019060200180831161190757829003601f168201915b5050505050815260200160048201805461193d90613a04565b80601f016020809104026020016040519081016040528092919081815260200182805461196990613a04565b80156119b65780601f1061198b576101008083540402835291602001916119b6565b820191906000526020600020905b81548152906001019060200180831161199957829003601f168201915b505050505081526020016005820180546119cf90613a04565b80601f01602080910402602001604051908101604052809291908181526020018280546119fb90613a04565b8015611a485780601f10611a1d57610100808354040283529160200191611a48565b820191906000526020600020905b815481529060010190602001808311611a2b57829003601f168201915b505050505081525050815260200160068201604051806060016040529081600082018054611a7590613a04565b80601f0160208091040260200160405190810160405280929190818152602001828054611aa190613a04565b8015611aee5780601f10611ac357610100808354040283529160200191611aee565b820191906000526020600020905b815481529060010190602001808311611ad157829003601f168201915b50505050508152602001600182018054611b0790613a04565b80601f0160208091040260200160405190810160405280929190818152602001828054611b3390613a04565b8015611b805780601f10611b5557610100808354040283529160200191611b80565b820191906000526020600020905b815481529060010190602001808311611b6357829003601f168201915b50505050508152602001600282018054611b9990613a04565b80601f0160208091040260200160405190810160405280929190818152602001828054611bc590613a04565b8015611c125780601f10611be757610100808354040283529160200191611c12565b820191906000526020600020905b815481529060010190602001808311611bf557829003601f168201915b505050505081525050815260200160098201604051806080016040529081600082018054611c3f90613a04565b80601f0160208091040260200160405190810160405280929190818152602001828054611c6b90613a04565b8015611cb85780601f10611c8d57610100808354040283529160200191611cb8565b820191906000526020600020905b815481529060010190602001808311611c9b57829003601f168201915b50505050508152602001600182018054611cd190613a04565b80601f0160208091040260200160405190810160405280929190818152602001828054611cfd90613a04565b8015611d4a5780601f10611d1f57610100808354040283529160200191611d4a565b820191906000526020600020905b815481529060010190602001808311611d2d57829003601f168201915b50505050508152602001600282018054611d6390613a04565b80601f0160208091040260200160405190810160405280929190818152602001828054611d8f90613a04565b8015611ddc5780601f10611db157610100808354040283529160200191611ddc565b820191906000526020600020905b815481529060010190602001808311611dbf57829003601f168201915b50505050508152602001600382018054611df590613a04565b80601f0160208091040260200160405190810160405280929190818152602001828054611e2190613a04565b8015611e6e5780601f10611e4357610100808354040283529160200191611e6e565b820191906000526020600020905b815481529060010190602001808311611e5157829003601f168201915b5050505050815250508152602001600d820160009054906101000a900460ff1615151515815250509050806000015160000151816000015160200151826000015160400151836000015160600151846000015160800151856000015160a001519650965096509650965096505091939550919395565b60008060008373ffffffffffffffffffffffffffffffffffffffff1673ffffffffffffffffffffffffffffffffffffffff168152602001908152602001600020600d0160009054906101000a900460ff169050919050565b60608060608060008060008773ffffffffffffffffffffffffffffffffffffffff1673ffffffffffffffffffffffffffffffffffffffff168152602001908152602001600020604051806080016040529081600082016040518060c0016040529081600082018054611fad90613a04565b80601f0160208091040260200160405190810160405280929190818152602001828054611fd990613a04565b80156120265780601f10611ffb57610100808354040283529160200191612026565b820191906000526020600020905b81548152906001019060200180831161200957829003601f168201915b5050505050815260200160018201805461203f90613a04565b80601f016020809104026020016040519081016040528092919081815260200182805461206b90613a04565b80156120b85780601f1061208d576101008083540402835291602001916120b8565b820191906000526020600020905b81548152906001019060200180831161209b57829003601f168201915b505050505081526020016002820180546120d190613a04565b80601f01602080910402602001604051908101604052809291908181526020018280546120fd90613a04565b801561214a5780601f1061211f5761010080835404028352916020019161214a565b820191906000526020600020905b81548152906001019060200180831161212d57829003601f168201915b5050505050815260200160038201805461216390613a04565b80601f016020809104026020016040519081016040528092919081815260200182805461218f90613a04565b80156121dc5780601f106121b1576101008083540402835291602001916121dc565b820191906000526020600020905b8154815290600101906020018083116121bf57829003601f168201915b505050505081526020016004820180546121f590613a04565b80601f016020809104026020016040519081016040528092919081815260200182805461222190613a04565b801561226e5780601f106122435761010080835404028352916020019161226e565b820191906000526020600020905b81548152906001019060200180831161225157829003601f168201915b5050505050815260200160058201805461228790613a04565b80601f01602080910402602001604051908101604052809291908181526020018280546122b390613a04565b80156123005780601f106122d557610100808354040283529160200191612300565b820191906000526020600020905b8154815290600101906020018083116122e357829003601f168201915b50505050508152505081526020016006820160405180606001604052908160008201805461232d90613a04565b80601f016020809104026020016040519081016040528092919081815260200182805461235990613a04565b80156123a65780601f1061237b576101008083540402835291602001916123a6565b820191906000526020600020905b81548152906001019060200180831161238957829003601f168201915b505050505081526020016001820180546123bf90613a04565b80601f01602080910402602001604051908101604052809291908181526020018280546123eb90613a04565b80156124385780601f1061240d57610100808354040283529160200191612438565b820191906000526020600020905b81548152906001019060200180831161241b57829003601f168201915b5050505050815260200160028201805461245190613a04565b80601f016020809104026020016040519081016040528092919081815260200182805461247d90613a04565b80156124ca5780601f1061249f576101008083540402835291602001916124ca565b820191906000526020600020905b8154815290600101906020018083116124ad57829003601f168201915b5050505050815250508152602001600982016040518060800160405290816000820180546124f790613a04565b80601f016020809104026020016040519081016040528092919081815260200182805461252390613a04565b80156125705780601f1061254557610100808354040283529160200191612570565b820191906000526020600020905b81548152906001019060200180831161255357829003601f168201915b5050505050815260200160018201805461258990613a04565b80601f01602080910402602001604051908101604052809291908181526020018280546125b590613a04565b80156126025780601f106125d757610100808354040283529160200191612602565b820191906000526020600020905b8154815290600101906020018083116125e557829003601f168201915b5050505050815260200160028201805461261b90613a04565b80601f016020809104026020016040519081016040528092919081815260200182805461264790613a04565b80156126945780601f1061266957610100808354040283529160200191612694565b820191906000526020600020905b81548152906001019060200180831161267757829003601f168201915b505050505081526020016003820180546126ad90613a04565b80601f01602080910402602001604051908101604052809291908181526020018280546126d990613a04565b80156127265780601f106126fb57610100808354040283529160200191612726565b820191906000526020600020905b81548152906001019060200180831161270957829003601f168201915b5050505050815250508152602001600d820160009054906101000a900460ff16151515158152505090508060400151600001518160400151602001518260400151604001518360400151606001519450945094509450509193509193565b6000803373ffffffffffffffffffffffffffffffffffffffff1673ffffffffffffffffffffffffffffffffffffffff168152602001908152602001600020600d0160009054906101000a900460ff16612812576040517f08c379a000000000000000000000000000000000000000000000000000000000815260040161280990613a81565b60405180910390fd5b60006040518060a00160405280868152602001858152602001848152602001838152602001600015158152509050600160003373ffffffffffffffffffffffffffffffffffffffff1673ffffffffffffffffffffffffffffffffffffffff16815260200190815260200160002081908060018154018082558091505060019003906000526020600020906005020160009091909190915060008201518160000190816128be9190613c4d565b5060208201518160010190816128d49190613c4d565b5060408201518160020190816128ea9190613c4d565b5060608201518160030190816129009190613c4d565b5060808201518160040160006101000a81548160ff02191690831515021790555050503373ffffffffffffffffffffffffffffffffffffffff167f87be2da18798460424d9cf9d0fe10ab3232d6942a225257c106658fc3dda6fd2868660405161296b929190613dc5565b60405180910390a25050505050565b6060806060806000600160008873ffffffffffffffffffffffffffffffffffffffff1673ffffffffffffffffffffffffffffffffffffffff168152602001908152602001600020805490508610612a06576040517f08c379a00000000000000000000000000000000000000000000000000000000081526004016129fd90613e48565b60405180910390fd5b6000600160008973ffffffffffffffffffffffffffffffffffffffff1673ffffffffffffffffffffffffffffffffffffffff1681526020019081526020016000208781548110612a5957612a58613e68565b5b90600052602060002090600502016040518060a0016040529081600082018054612a8290613a04565b80601f0160208091040260200160405190810160405280929190818152602001828054612aae90613a04565b8015612afb5780601f10612ad057610100808354040283529160200191612afb565b820191906000526020600020905b815481529060010190602001808311612ade57829003601f168201915b50505050508152602001600182018054612b1490613a04565b80601f0160208091040260200160405190810160405280929190818152602001828054612b4090613a04565b8015612b8d5780601f10612b6257610100808354040283529160200191612b8d565b820191906000526020600020905b815481529060010190602001808311612b7057829003601f168201915b50505050508152602001600282018054612ba690613a04565b80601f0160208091040260200160405190810160405280929190818152602001828054612bd290613a04565b8015612c1f5780601f10612bf457610100808354040283529160200191612c1f565b820191906000526020600020905b815481529060010190602001808311612c0257829003601f168201915b50505050508152602001600382018054612c3890613a04565b80601f0160208091040260200160405190810160405280929190818152602001828054612c6490613a04565b8015612cb15780601f10612c8657610100808354040283529160200191612cb1565b820191906000526020600020905b815481529060010190602001808311612c9457829003601f168201915b505050505081526020016004820160009054906101000a900460ff16151515158152505090508060000151816020015182604001518360600151846080015195509550955095509550509295509295909350565b60008060003373ffffffffffffffffffffffffffffffffffffffff1673ffffffffffffffffffffffffffffffffffffffff168152602001908152602001600020905086816000016000019081612d5b9190613c4d565b5085816000016001019081612d709190613c4d565b5084816000016002019081612d859190613c4d565b5083816000016003019081612d9a9190613c4d565b5082816000016004019081612daf9190613c4d565b5081816000016005019081612dc49190613c4d565b5080600d0160009054906101000a900460ff16612e4b57600181600d0160006101000a81548160ff0219169083151502179055503373ffffffffffffffffffffffffffffffffffffffff167fbafddecbd1dec1c1afb76d693f1de16901f521bdf29a02438e3e6806c0b8d94888604051612e3e9190613e97565b60405180910390a2612e9a565b3373ffffffffffffffffffffffffffffffffffffffff167fdd635a4cd84864e37e4479dbfc2ec667acfa473c83c8422a8ac9d9d07599b01c88604051612e919190613e97565b60405180910390a25b50505050505050565b60008060003373ffffffffffffffffffffffffffffffffffffffff1673ffffffffffffffffffffffffffffffffffffffff168152602001908152602001600020905080600d0160009054906101000a900460ff16612f36576040517f08c379a0000000000000000000000000000000000000000000000000000000008152600401612f2d90613a81565b60405180910390fd5b83816006016000019081612f4a9190613c4d565b5082816006016001019081612f5f9190613c4d565b5081816006016002019081612f749190613c4d565b503373ffffffffffffffffffffffffffffffffffffffff167fdd635a4cd84864e37e4479dbfc2ec667acfa473c83c8422a8ac9d9d07599b01c82600001600001604051612fc19190613da3565b60405180910390a250505050565b6000600160008373ffffffffffffffffffffffffffffffffffffffff1673ffffffffffffffffffffffffffffffffffffffff168152602001908152602001600020805490509050919050565b6000604051905090565b600080fd5b600080fd5b600073ffffffffffffffffffffffffffffffffffffffff82169050919050565b600061305a8261302f565b9050919050565b61306a8161304f565b811461307557600080fd5b50565b60008135905061308781613061565b92915050565b6000819050919050565b6130a08161308d565b81146130ab57600080fd5b50565b6000813590506130bd81613097565b92915050565b600080604083850312156130da576130d9613025565b5b60006130e885828601613078565b92505060206130f9858286016130ae565b9150509250929050565b600081519050919050565b600082825260208201905092915050565b60005b8381101561313d578082015181840152602081019050613122565b60008484015250505050565b6000601f19601f8301169050919050565b600061316582613103565b61316f818561310e565b935061317f81856020860161311f565b61318881613149565b840191505092915050565b60008115159050919050565b6131a881613193565b82525050565b600060a08201905081810360008301526131c8818861315a565b905081810360208301526131dc818761315a565b905081810360408301526131f0818661315a565b90508181036060830152613204818561315a565b9050613213608083018461319f565b9695505050505050565b60006020828403121561323357613232613025565b5b600061324184828501613078565b91505092915050565b60006060820190508181036000830152613264818661315a565b90508181036020830152613278818561315a565b9050818103604083015261328c818461315a565b9050949350505050565b600082825260208201905092915050565b60006132b282613103565b6132bc8185613296565b93506132cc81856020860161311f565b6132d581613149565b840191505092915050565b600060c08301600083015184820360008601526132fd82826132a7565b9150506020830151848203602086015261331782826132a7565b9150506040830151848203604086015261333182826132a7565b9150506060830151848203606086015261334b82826132a7565b9150506080830151848203608086015261336582826132a7565b91505060a083015184820360a086015261337f82826132a7565b9150508091505092915050565b600060608301600083015184820360008601526133a982826132a7565b915050602083015184820360208601526133c382826132a7565b915050604083015184820360408601526133dd82826132a7565b9150508091505092915050565b6000608083016000830151848203600086015261340782826132a7565b9150506020830151848203602086015261342182826132a7565b9150506040830151848203604086015261343b82826132a7565b9150506060830151848203606086015261345582826132a7565b9150508091505092915050565b6000608082019050818103600083015261347c81876132e0565b90508181036020830152613490818661338c565b905081810360408301526134a481856133ea565b90506134b3606083018461319f565b95945050505050565b600080fd5b600080fd5b7f4e487b7100000000000000000000000000000000000000000000000000000000600052604160045260246000fd5b6134fe82613149565b810181811067ffffffffffffffff8211171561351d5761351c6134c6565b5b80604052505050565b600061353061301b565b905061353c82826134f5565b919050565b600067ffffffffffffffff82111561355c5761355b6134c6565b5b61356582613149565b9050602081019050919050565b82818337600083830152505050565b600061359461358f84613541565b613526565b9050828152602081018484840111156135b0576135af6134c1565b5b6135bb848285613572565b509392505050565b600082601f8301126135d8576135d76134bc565b5b81356135e8848260208601613581565b91505092915050565b6000806000806080858703121561360b5761360a613025565b5b600085013567ffffffffffffffff8111156136295761362861302a565b5b613635878288016135c3565b945050602085013567ffffffffffffffff8111156136565761365561302a565b5b613662878288016135c3565b935050604085013567ffffffffffffffff8111156136835761368261302a565b5b61368f878288016135c3565b925050606085013567ffffffffffffffff8111156136b0576136af61302a565b5b6136bc878288016135c3565b91505092959194509250565b600060c08201905081810360008301526136e2818961315a565b905081810360208301526136f6818861315a565b9050818103604083015261370a818761315a565b9050818103606083015261371e818661315a565b90508181036080830152613732818561315a565b905081810360a0830152613746818461315a565b9050979650505050505050565b6000602082019050613768600083018461319f565b92915050565b60006080820190508181036000830152613788818761315a565b9050818103602083015261379c818661315a565b905081810360408301526137b0818561315a565b905081810360608301526137c4818461315a565b905095945050505050565b60008060008060008060c087890312156137ec576137eb613025565b5b600087013567ffffffffffffffff81111561380a5761380961302a565b5b61381689828a016135c3565b965050602087013567ffffffffffffffff8111156138375761383661302a565b5b61384389828a016135c3565b955050604087013567ffffffffffffffff8111156138645761386361302a565b5b61387089828a016135c3565b945050606087013567ffffffffffffffff8111156138915761389061302a565b5b61389d89828a016135c3565b935050608087013567ffffffffffffffff8111156138be576138bd61302a565b5b6138ca89828a016135c3565b92505060a087013567ffffffffffffffff8111156138eb576138ea61302a565b5b6138f789828a016135c3565b9150509295509295509295565b60008060006060848603121561391d5761391c613025565b5b600084013567ffffffffffffffff81111561393b5761393a61302a565b5b613947868287016135c3565b935050602084013567ffffffffffffffff8111156139685761396761302a565b5b613974868287016135c3565b925050604084013567ffffffffffffffff8111156139955761399461302a565b5b6139a1868287016135c3565b9150509250925092565b6139b48161308d565b82525050565b60006020820190506139cf60008301846139ab565b92915050565b7f4e487b7100000000000000000000000000000000000000000000000000000000600052602260045260246000fd5b60006002820490506001821680613a1c57607f821691505b602082108103613a2f57613a2e6139d5565b5b50919050565b7f50726f66696c6520646f6573206e6f7420657869737400000000000000000000600082015250565b6000613a6b60168361310e565b9150613a7682613a35565b602082019050919050565b60006020820190508181036000830152613a9a81613a5e565b9050919050565b60008190508160005260206000209050919050565b60006020601f8301049050919050565b600082821b905092915050565b600060088302613b037fffffffffffffffffffffffffffffffffffffffffffffffffffffffffffffffff82613ac6565b613b0d8683613ac6565b95508019841693508086168417925050509392505050565b6000819050919050565b6000613b4a613b45613b408461308d565b613b25565b61308d565b9050919050565b6000819050919050565b613b6483613b2f565b613b78613b7082613b51565b848454613ad3565b825550505050565b600090565b613b8d613b80565b613b98818484613b5b565b505050565b5b81811015613bbc57613bb1600082613b85565b600181019050613b9e565b5050565b601f821115613c0157613bd281613aa1565b613bdb84613ab6565b81016020851015613bea578190505b613bfe613bf685613ab6565b830182613b9d565b50505b505050565b600082821c905092915050565b6000613c2460001984600802613c06565b1980831691505092915050565b6000613c3d8383613c13565b9150826002028217905092915050565b613c5682613103565b67ffffffffffffffff811115613c6f57613c6e6134c6565b5b613c798254613a04565b613c84828285613bc0565b600060209050601f831160018114613cb75760008415613ca5578287015190505b613caf8582613c31565b865550613d17565b601f198416613cc586613aa1565b60005b82811015613ced57848901518255600182019150602085019450602081019050613cc8565b86831015613d0a5784890151613d06601f891682613c13565b8355505b6001600288020188555050505b505050505050565b60008154613d2c81613a04565b613d36818661310e565b94506001821660008114613d515760018114613d6757613d9a565b60ff198316865281151560200286019350613d9a565b613d7085613aa1565b60005b83811015613d9257815481890152600182019150602081019050613d73565b808801955050505b50505092915050565b60006020820190508181036000830152613dbd8184613d1f565b905092915050565b60006040820190508181036000830152613ddf818561315a565b90508181036020830152613df3818461315a565b90509392505050565b7f436572746966696361746520646f6573206e6f74206578697374000000000000600082015250565b6000613e32601a8361310e565b9150613e3d82613dfc565b602082019050919050565b60006020820190508181036000830152613e6181613e25565b9050919050565b7f4e487b7100000000000000000000000000000000000000000000000000000000600052603260045260246000fd5b60006020820190508181036000830152613eb1818461315a565b90509291505056fea2646970667358221220b4eeea44c3020704b150207eea0284f868b90c88b156c71e73e3d5622889ef4464736f6c63430008110033",
  "linkReferences": {},
  "deployedLinkReferences": {}
}